:100000000040002061030000A9030000AB030000D2
:1000100000000000000000000000000000000000E0
:10002000000000000000000000000000AD03000020
:100030000000000000000000AF030000B10300005A
:10004000B3030000B3030000B3030000B3030000D8
:10005000B303000000000000B3030000B30300007E
:10006000B3030000B3030000B3030000B3030000B8
:10007000B3030000B3030000B3030000B3030000A8
:10008000B3030000B3030000B3030000B303000098
:10009000B3030000B3030000B3030000B303000088
:1000A000B3030000B30300000000000000000000E4
:1000B0000000000000000000000000000000000040
:1000C00010B5064C2378002B07D1054B002B02D02E
:1000D000044800E000BF0123237010BD6800002029
:1000E00000000000D4030000084B10B5002B03D023
:1000F0000749084800E000BF07480368002B00D10B
:1001000010BD064B002BFBD09847F9E7000000001C
:100110006C000020D40300006800002000000000F4
:10012000164B002B00D1144B9D46402292029A1A86
:10013000924600218B460F461348144A121A00F0CB
:1001400067F80F4B002B00D098470E4B002B00D0C8
:1001500098470020002104000D000D48002802D01F
:100160000C4800E000BF00F02DF82000290000F04E
:10017000A3F800F011F8C04600000800004000207D
:100180000000000000000000680000208400002043
:100190000000000000000000084B10B50400002B18
:1001A00002D0002100E000BF054B1868836A002BD5
:1001B00000D09847200000F033F8C046000000004F
:1001C000CC0300000E4B70B500251E000D4CE41A48
:1001D000A410A54204D0AB00F35898470135F8E7C6
:1001E00000F0E8F8084B00251E00084CE41AA410A3
:1001F000A54204D0AB00F35898470135F8E770BD2D
:1002000060000020600000206000002064000020EA
:1002100003008218934202D019700133FAE7704745
:10022000FEE7C0461D4B1B78012B00D070471C4BCE
:100230001B681B07FAD1F0221A4B1B68134018D118
:10024000194B1B6813421CD0154B1B681B07EDD1C3
:10025000F022144B1B681340402BE7D1124B1B6854
:100260001342E3D1C12380220121DB00D205D1500A
:10027000DCE7102B01D0302BEAD10B4B1B6813426B
:10028000E6D10A4A0A4B1A6080220A4B12021A600F
:10029000024B1B78012BD7D0C8E7C046E00F00F017
:1002A000E40F00F0E80F00F0EC0F00F0DFFF07C0F4
:1002B00004050040186C0040F8B5A020E02500239C
:1002C000012403216D03C0050133202B0BD02A002C
:1002D0001A411442F8D01A00C132FF3292000133A1
:1002E0001150202BF3D1A0250B4F0C4EED0500240F
:1002F0000122395DAB598A40A1211000C900984301
:100300006850FA201340064A4000AB50013400F018
:1003100009F8032CECD1EAE7D00300000405000043
:100320000C05000082B00190019B002B14D0019BB2
:100330000A48013B01930138C046C046C046C0464A
:10034000C046C046C046C046C046C046C046C0467D
:10035000F1D1019B002BEAD102B07047E703000006
:1003600003210A4802680A430260094802680A43F6
:1003700002600849084A094B9B1A03DD043BC85830
:10038000D050FBDC06488047064800472405004063
:1003900054050040DC03000000000020680000203D
:1003A0002502000021010000FEE7FEE7FEE7FEE770
:1003B000FEE7FEE7F8B5C046F8BC08BC9E467047AD
:1003C000F8B5C046F8BC08BC9E4670470000002047
:0403D00012131400F0
:0803D4004CFDFF7F0100000059
:1003DC000000000000000000000000000000000011
:1003EC000000000000000000000000000000000001
:1003FC0000000000000000000000000000000000F1
:10040C0000000000000000000000000000000000E0
:10041C0000000000000000000000000000000000D0
:10042C0000000000000000000000000000000000C0
:08043C00E9000000C10000000E
:040000030000036195
:00000001FF
