:020000021000EC
:1080000000400020FD9201004593010047930100CC
:108010000000000000000000000000000000000060
:108020000000000000000000000000004993010073
:1080300000000000000000004B9301004D93010080
:108040004F9301004F930100998701004F93010066
:108050004F930100000000004F9301004F93010077
:108060004F9301004F9301004F9301004F93010084
:108070004F9301004F9301004F9301004F93010074
:108080004F9301004F9301004F9301004F93010064
:108090004F9301004F9301004F9301004F93010054
:1080A0004F9301004F93010000000000000000000A
:1080B00000000000000000000000000000000000C0
:1080C00010B5064C2378002B07D1054B002B02D0AE
:1080D000044800E000BF0123237010BDE020002011
:1080E0000000000020950100084B10B5002B03D0C4
:1080F0000749084800E000BF07480368002B00D18B
:1081000010BD064B002BFBD09847F9E7000000009C
:10811000E420002020950100E02000200000000065
:10812000164B002B00D1144B9D46402292029A1A06
:10813000924600218B460F461348144A121A00F04B
:1081400067F80F4B002B00D098470E4B002B00D048
:1081500098470020002104000D000D48002802D09F
:108160000C4800E000BF00F02DF82000290000F0CE
:10817000B1F800F011F8C0460000080000400020EF
:108180000000000000000000E02000205826002031
:108190000000000000000000084B10B50400002B98
:1081A00002D0002100E000BF054B1868836A002B55
:1081B00000D09847200000F033F8C04600000000CF
:1081C000949401000E4B70B500251E000D4CE41A6E
:1081D000A410A54204D0AB00F35898470135F8E746
:1081E00001F04CF9084B00251E00084CE41AA410BD
:1081F000A54204D0AB00F35898470135F8E770BDAD
:10820000D8200020D8200020D8200020DC2000200A
:1082100003008218934202D019700133FAE77047C5
:10822000FEE7C0461D4B1B78012B00D070471C4B4E
:108230001B681B07FAD1F0221A4B1B68134018D198
:10824000194B1B6813421CD0154B1B681B07EDD143
:10825000F022144B1B681340402BE7D1124B1B68D4
:108260001342E3D1C12380220121DB00D205D1508A
:10827000DCE7102B01D0302BEAD10B4B1B681342EB
:10828000E6D10A4A0A4B1A6080220A4B12021A608F
:10829000024B1B78012BD7D0C8E7C046E00F00F097
:1082A000E40F00F0E80F00F0EC0F00F0DFFF07C074
:1082B00004050040186C004010B50378022B02D072
:1082C000012B00D010BD40680022002100F01AFBF5
:1082D000F8E7C046F0B54D4644465F465646E020B6
:1082E000F0B4A02500230121032489B04003ED054B
:1082F0000133202B0BD002001A411142F8D01A0092
:10830000C132FF32920001335451202BF3D101A826
:108310000200314B32CB32C2304B314A049301233D
:108320000593304B04A9069380235B000793FD3B24
:1083300000F090FB00284AD12B49002000F0D0FF2C
:108340002A4B2B4C9B462B4B00259846FF239A46E5
:108350000FE0712B33D0512B29D1E021A123A02292
:108360004903DB00D205D1502560FA20400000F01F
:1083700047F800F023FCC3B2202BEAD1A0205946D5
:108380001D4BC005C2582368CF5C0121B9400F00C6
:108390009743B946A1274E460A401849FF000133CA
:1083A000C65142502360032BDFD12560DDE75246E2
:1083B00041460240002000F093FF2368F3E7E021EC
:1083C000A0220E4B4903D205D1502560CDE70022F3
:1083D000002100F097FAAFE798940100FC200020FC
:1083E000B982010000210020A8940100A49401009A
:1083F00000220020B8940100040500000C050000D4
:1084000082B00190019B002B14D0019B0A48013BD4
:1084100001930138C046C046C046C046C046C0466B
:10842000C046C046C046C046C046C046F1D1019BCA
:10843000002BEAD102B07047E7030000F0B5002836
:108440001EDBFF261A4B37009C4603238208C025FB
:10845000C0B20340DB0089019F4031409940920047
:108460006244AD005459BC43214351511F23C021E4
:1084700018401E3B83400E4A490053501360F0BD24
:10848000FF250C4A2E00944603220F23C0B202405F
:10849000D20089019640294091400340083B9B0847
:1084A0009B006344DC69B4432143D961DEE7C046E5
:1084B00000E100E000ED00E0F0B557464E464546CD
:1084C000E0B4394C0300A27D0820002A04D01CBC73
:1084D00090469946A246F0BD002B62D01A68A020B3
:1084E0000325C132FF32C005920015500122AA4671
:1084F0001D68AA40A125ED004251A94600255A68F1
:10850000AC46C132FF32920015509E69274A284D71
:1085100056515D7DA84646461D7D3543254E9551F5
:108520005D681E68A846244D56514646234D565157
:108530001D7D012D1AD19E683700E0267600B046D9
:108540004744BE0067463750C137FF37B8465746E5
:10855000DE684644B6003750DE68B5404E46855169
:10856000D8689D689051A220C00015501A696160BA
:108570002260002908D0197FC12311480B4A9B00B3
:10858000D0500220FFF75AFFA0230421074ADB0046
:10859000D15000230122E374A374A27563750020F7
:1085A00095E70022074B9AE70422002000200040B4
:1085B000240500006C0500000C05000014050000F7
:1085C00080000200C4940100F0B5264A0400937CA8
:1085D0001120002B00D0F0BD0125917422482349C1
:1085E000138294600B6005600B60138AE05C138A51
:1085F0001F4C01339BB213821E4BE0505068002881
:1086000001D00020E7E7002726001D000130FF30E1
:10861000947C138A9C4203D812E0138A834202D0CE
:108620000B68002BF9D0138A8342F2D00F60138AB3
:108630009468E45C138A01339BB213827451E7E7B8
:108640008023118A5B0099420AD008490B68002BED
:10865000FCD001210020084B196000239374BAE775
:108660000F20FAE704220020082000401C210040CF
:10867000002000401C0500000C200040F0B54746DB
:1086800080B4344B1122DC7C002C03D0100004BCDD
:108690009046F0BD5A7DD974D8601C75002A0AD066
:1086A0005A68002A0FD08121C1232B4A89009B00E0
:1086B000D1500022EAE729490A6029490A600121CC
:1086C000254A1160ECE7244A244E9446A322D200A6
:1086D0009046234C234D316820682A6800280BD12E
:1086E000002A28D10029F6D000221E490A601B4921
:1086F0000A60DA740332C9E70029F5D1002A1CD1D7
:10870000474660462260197DC059DF687854197D5C
:10871000D87C0131C9B21975197D8842DBD811495D
:108720000A600E490A60DA745B7D002B0DD00121CE
:10873000094B1960AAE70029D6D1002209490A602D
:1087400006490A60DA740F32A0E70121064B19606E
:108750009CE7C04604220020002000402421004065
:10876000082100404421004004200040064A537D77
:10877000002B07D105490B6005490B600549013302
:108780000B6053757047C04604220020242100402E
:108790000821004000200040C12210B5514B92003A
:1087A0009A5884B092054CD54F4A1168002948D098
:1087B000002111608121C2228900920099504B4B07
:1087C0005A7D002A02D10121494A116002226946DC
:1087D0000A7090214348C9004258425069460392AA
:1087E000DA7C68460A72DA68196801920022DA7443
:1087F0005B6898473F4A1368002B10D03B4B188AA0
:10880000997C814251D9002111601A8A9968895C4A
:108810001A8A013292B21A82374B324AD150374B00
:108820001A68002A0BD000221A60304B5A7D002AA9
:1088300002D001212B4A1160DA7C002A44D104B015
:1088400010BDC123274A9B00D3585B07D2D52C4BC0
:1088500019680029CED00021A3241960234BE4001D
:10886000187DD96812590A541A7DD87C0132D2B2C7
:108870001A751A7D9042BDD15A7D002A02D101207D
:108880001B4A10608124C2221648A4009200845022
:108890006C461A7D01202272002220700191DA7448
:1088A000196868465B689847A4E7002010600029B3
:1088B000B5D06A46107011729A689874196801925E
:1088C0005B6868469847AAE768461A7D01210272EC
:1088D000DA680170019200221968DA745B689847BF
:1088E000ADE7C046002000402421004004220020C3
:1088F000042000401C2100401C05000044210040D1
:1089000008210040BFF34F8F024A034BDA60BFF3E8
:108910004F8FFEE70400FA0500ED00E010B50029D6
:108920000DD00923002A01D1180010BD541E224089
:10893000FAD1826001608480C2600023F4E70E23D4
:10894000F2E7C046030010B59C888068DA68121A06
:108950000420944200D210BDDA68002014401A6846
:108960001155DA680132DA60F5E7C04610B584685F
:10897000C26803000520944200D110BD98689A880F
:1089800002401868825C00200A709A6801329A607E
:10899000F3E7C04630B5047885B0012C19D0022C1D
:1089A00034D0002C01D005B030BD254D254C290018
:1089B0002000FFF7DBFF002823D0A268E3689A427B
:1089C000F1D1032302AA13701F4B10001B689847B4
:1089D000E9E743681D4D19782800FFF7B3FF002829
:1089E0001ED1AA68EB689B1A012B21D0AA68EB68FC
:1089F0009B1AAA889342D6D801211548FFF73EFE5C
:108A0000D1E701212800FFF7DFFDD6E702AB1C709C
:108A1000C36802A8019303930B4B1B689847C2E7F6
:108A200002AB1C70084B03901B6802A89847DDE757
:108A300002AB1870044B02A81B689847D6E7C046E3
:108A40001C22002028220020202200203822002082
:108A500024220020F0B51E00214B050089B00C0037
:108A60001A600720002906D08A881E480968FFF787
:108A700055FF002801D009B0F0BDA289A1681A48AD
:108A8000FFF74CFF0028F6D16A46184B684692CB98
:108A900092C292CB92C212CB12C2AB6806932B79D0
:108AA00006775A1E934103756B790E22591E8B412E
:108AB0005B421A404275EB780293AB7803932B78B4
:108AC00001936B7800930A49FFF7F6FC0028D2D196
:108AD000FFF74CFE01210748FFF7D0FDCBE7C0466A
:108AE000202200203822002028220020E4940100C7
:108AF0009589010024220020F0B54E465746454690
:108B00002D4BE0B49946032644002318DB004B4468
:108B10001500DA6A0F001640022E06D09A6A596ACA
:108B2000521A013A45D4AA423FDB0026002D34D028
:108B300000239A46431C5A002418D318E400DB0093
:108B40004C44984601E0002D26D0A36A626A216A4F
:108B50009B1A013B27D4626A8A1A934201DB636A3B
:108B6000CB1A2E009D4200DD1E004A464244636A35
:108B700050683900C018320000F076FC636A226A3F
:108B8000F3186362636AB244BF19AD1B9342DAD132
:108B900000236362002DD8D1564630001CBC90469D
:108BA0009946A246F0BD5B18D5E7002EF5D015001A
:108BB000BBE71B6AD218B6E7602000200123F0B59E
:108BC0004F46994680B41C4E82B0B56D746DA54277
:108BD0001BDC6A4601230027D01D641B9C4200DD7C
:108BE0001C00002C06DDF36C2200591900F03CFC3F
:108BF0003F192D19002FE8D0B565012FE5D16B463F
:108C0000D87902B004BC9146F0BD336D5F1B002FD4
:108C100000DD0127F36C3A0059196B46D81D00F0AE
:108C200023FC6B460733D8194B46326DED19DB1B1D
:108C30009542D2D10025D0E760200020F0B544460F
:108C40005F464D465646F0B4884683B00400170090
:108C50001D00914200D2E5E008000126390000F035
:108C600077FB01368742F9D9AA46B54200D2B2460F
:108C700001230D9A1A40019203D10C9B002B00D0C6
:108C80008CE0A6686B1E012D00DCC1E09946002334
:108C900001259B4607E01343012252429446DBB272
:108CA000E144002B14D07D434046290000F050FBE6
:108CB0005A464946B842524101230129EBDC0023C0
:108CC0001343012252429446DBB2E144002BEAD125
:108CD000554B994600239B4608E0E368002B28DBB0
:108CE0002800390000F034FB051E22D04046290040
:108CF00000F02EFB030042466B43D31A984663688C
:108D0000B34209DD4B4622681B5C9355E36801368C
:108D10000133E3606368A6609E42DED132002168C1
:108D20002069FFF7E9FEA368984233D001235B4234
:108D3000E360019B002B26D00C9D002D23D0202624
:108D4000002705E0E368002B1DDB013D002D1AD054
:108D5000AA4518D2A16863680A00994207DA236815
:108D600001325E54E368A2600133E36063689A42B3
:108D7000E8D121682069FFF7BFFEA36898423ED082
:108D800001235B42E36003B03CBC90469946A24697
:108D9000AB46F0BD5B460026A3609EE720239946C4
:108DA0000D9B9B072DD40022A6680C9B934606E0E2
:108DB000E368002BE7DB0C9B002B00D162E70C9AE9
:108DC000013A0C929A4500D35CE76368B34208DD30
:108DD0004A4623689A55E36801360133E3606368C5
:108DE000A6609E42E4D1320021682069FFF784FE2C
:108DF000A3689842C4D15B460026A360D8E7A76069
:108E0000A0E730239946002DCDD0103B9946CAE704
:108E100000224146B9425241D2B20125002A00D077
:108E200034E755E701261FE710950100F0B55F46CE
:108E30004D4644465646F0B49FB00EAB09934023CE
:108E40000A9300230B930C9304339946033B04903D
:108E50000D90904600209B460B784D1C002B36D081
:108E6000252B1CD12A001378002702250821140085
:108E70002B2B0BD02B2B0DD92D2B65D0302B2FD19D
:108E80002F430132137814002B2BF3D14B460132C0
:108E90001F43F7E7232B23D10F430132F2E70B9A4D
:108EA0000A998A4257DA09998B540C9B0132581C53
:108EB0000A9B0B920C90029329009A4200D18BE0FE
:108EC000002800DA97E00B784D1C002BC8D1002851
:108ED00000DC90E00B9A002A00D0C1E180188AE003
:108EE0001A00303A0025092A0AD8AA005519013477
:108EF0006D00ED182378303D1A00303A092AF4D974
:108F000000262E2B55D01A0049468A43682A1FD0C6
:108F1000642B00D189E022D9732B00D1E6E000D880
:108F200070E0752B00D02FE1434641461B6809A82D
:108F30001A1D0A6019680A22019700953300FFF78D
:108F40007DFE0C98611CBBE75B4601321F4399E72D
:108F500023780134D7E78A423ED029007CE7582B9A
:108F600000D114E1632B00D1F3E0252BEAD10B9D56
:108F70000A992A008D4208DA099901324B550C9B57
:108F80000A99581C0B9202930C908A42DAD1099BE1
:108F900002930D9B029918000393FFF7ADFD0B9B05
:108FA0000293984200D0CFE000230C980B93611CF1
:108FB00086E76378611C1A00303A0C00092AA2D8AF
:108FC000B200961901347600F6182378303E1A0064
:108FD000303A092AF4D996E7099B02930D9B02992E
:108FE00018000393FFF788FD0B9B0293984200D172
:108FF00031E1012040421FB03CBC90469946A24658
:10900000AB46F0BD702B9DD1434641461B6809A875
:109010001A1D0A6019680023019308330093102277
:10902000FFF70CFE0C98611C4AE7434641461B685B
:109030001A1D0A601B68DA17981802930123504022
:109040009A4609280ADDA2461C000A2100F080F990
:1090500001340928F9D8230054469A460596564506
:1090600000D2A8E0002D06D0029B002B02DB4B466D
:109070003B4200D0013DBB0700D5A2E05B463B422E
:1090800000D0A1E0002D00D19EE0202207962B0009
:109090009246059E11E05146099B99540C9B013262
:1090A000581C0A9B0B920C9003939A420ED00028F6
:1090B00000DA47E72B1E00D10CE1013D9E4200D3B0
:1090C00008E10B9A0A9B9A42E5DBF3D1099B0393D3
:1090D0000D9B039918000693FFF70EFD0B9B03935E
:1090E000984231D100230C980B93E0E74346414668
:1090F0001B681A1D0A601D682B78002B00D121E720
:109100000B9A0A998A420FDA09998B540C9B013207
:10911000581C0A9B0B920C9002939A4208D001357E
:109120000028E9DA611CCBE68A4201D00135E3E789
:10913000099B02930D9B029918000393FFF7DCFC37
:109140000B9B0293984232D0012040420C90611C4C
:10915000B6E6434642461D680B992B1D13600A9BD9
:109160000A0099420BDA099B0132029302982B689C
:1091700043540C9B0B92581C02930A9B0C909A42EE
:1091800000D104E7611C9BE6782B00D0DAE6434669
:1091900041461B6809A81A1D0A6019681022019728
:1091A00000953300FFF74AFD0C98611C88E6002308
:1091B0000C980B93B3E753460593002D00D15AE763
:1091C00052E7002E00D059E7029B002B66DB4B468E
:1091D0003B424DD103233B40022B31D1002E2FD1F6
:1091E000002D75D0B2462B00059E10E03021099B62
:1091F00099540C9B0132581C0A9B0B920C900393C0
:109200009A420CD0002800DA9CE62B1E5FD05D1E2F
:109210009E4214D20B9A0A9B9A42E7DBF5D1099B36
:1092200003930D9B039918000593FFF765FC0B9BB7
:109230000393984288D100230C980B93E2E756469B
:10924000029909A80197009533000A22FFF7F6FC5E
:109250000C98611C34E600230C980B9329002FE630
:109260000EA90498FFF748FC0C980B9A8018C2E6E8
:109270000B9A0A9B9A4217DA099B03932B230399B3
:109280008B540C9B0132581C0A9B0B920C9003933D
:109290009A420BD000289DDA611C11E65B420293D2
:1092A0000B9A0A9B9A4217DB9A4293D1099B03932C
:1092B0000D9B039918000693FFF71EFC0B9B03936D
:1092C000984200D040E700230C980B93E2E7564603
:1092D0000025B5E7079E77E7099B03932D23CEE78B
:1092E0000EB400B582B003AB02CB01AA0193FFF725
:1092F0009DFD02B008BC03B01847C04603210A48D0
:1093000002680A430260094802680A430260084989
:10931000084A094B9B1A03DD043BC858D050FBDCBC
:109320000648804706480047240500405405004091
:109330002895010000200020E02000202582010067
:1093400021810100FEE7FEE7FEE7FEE7FEE7FEE71C
:10935000002243088B4274D303098B425FD3030A74
:109360008B4244D3030B8B4228D3030C8B420DD387
:10937000FF22090212BA030C8B4202D31212090215
:1093800065D0030B8B4219D300E0090AC30B8B4253
:1093900001D3CB03C01A5241830B8B4201D38B0301
:1093A000C01A5241430B8B4201D34B03C01A5241A6
:1093B000030B8B4201D30B03C01A5241C30A8B42E9
:1093C00001D3CB02C01A5241830A8B4201D38B02D4
:1093D000C01A5241430A8B4201D34B02C01A524178
:1093E000030A8B4201D30B02C01A5241CDD2C309EA
:1093F0008B4201D3CB01C01A524183098B4201D366
:109400008B01C01A524143098B4201D34B01C01A50
:10941000524103098B4201D30B01C01A5241C308C8
:109420008B4201D3CB00C01A524183088B4201D337
:109430008B00C01A524143088B4201D34B00C01A23
:109440005241411A00D20146524110467047FFE78F
:1094500001B5002000F006F802BDC0460029F7D093
:1094600076E770477047C046002310B59A4203D094
:10947000CC5CC4540133F9E710BD0000F8B5C04618
:10948000F8BC08BC9E467047F8B5C046F8BC08BC9E
:109490009E467047002000200B09080A01000000CA
:1094A00000E0D701121314000A0D52756E6E696E3A
:1094B00067210A0D000000000A0D436861723A2519
:1094C000630A0D0000000000000000000000000022
:1094D00000000000000000000000000000509D009F
:1094E0000300000000000000000000000000000079
:1094F00000000000000000000000000000509D007F
:10950000030000005465726D696E616C000000001C
:1095100030313233343536373839414243444546A9
:0895200000ECFF7F01000000D8
:109528000000000000000000000000000000000033
:109538000000000000000000000000000000000023
:109548000000000000000000000000000000000013
:109558000000000000000000000000000000000003
:1095680000000000000000000000000000000000F3
:1095780000000000000000000000000000000000E3
:1095880053454747455220525454000000000000FC
:10959800020000000200000004950100482200209B
:1095A80000040000000000000000000000000000AF
:1095B80000000000000000000000000000000000A3
:1095C800000000000000000004950100482600206B
:1095D8001000000000000000000000000000000073
:1095E8000000000000000000000000000000000073
:1095F8000000000000000000E9800100C1800100B7
:04000003100092FD5A
:00000001FF
