:020000021000EC
:108000000040002089AB0100D1AB0100D3AB0100DF
:108010000000000000000000000000000000000060
:10802000000000000000000000000000D5AB0100CF
:108030000000000000000000D7AB0100D9AB010038
:10804000DBAB0100DBAB0100DBAB0100DBAB010014
:10805000DBAB01000000000019860100DBAB010072
:10806000DBAB0100DBAB0100DBAB0100C189010030
:10807000DBAB0100DBAB0100DBAB0100DBAB0100E4
:10808000DBAB01009D8B0100DBAB0100DBAB010032
:108090007D8C0100DBAB01001D970100DBAB010013
:1080A000DBAB0100DBAB01000000000000000000C2
:1080B00000000000000000000000000000000000C0
:1080C00010B5064C2378002B07D1054B002B02D0AE
:1080D000044800E000BF0123237010BDE42000200D
:1080E000000000000CB10100084B10B5002B03D0BC
:1080F0000749084800E000BF07480368002B00D18B
:1081000010BD064B002BFBD09847F9E7000000009C
:10811000E82000200CB10100E42000200000000055
:10812000164B002B00D1144B9D46402292029A1A06
:10813000924600218B460F461348144A121A00F04B
:1081400067F80F4B002B00D098470E4B002B00D048
:1081500098470020002104000D000D48002802D09F
:108160000C4800E000BF00F02DF82000290000F0CE
:1081700083F800F011F8C04600000800004000201D
:108180000000000000000000E42000207C29002006
:108190000000000000000000084B10B50400002B98
:1081A00002D0002100E000BF054B1868836A002B55
:1081B00000D09847200000F033F8C04600000000CF
:1081C00034AF01000E4B70B500251E000D4CE41AB3
:1081D000A410A54204D0AB00F35898470135F8E746
:1081E00002F09CFE084B00251E00084CE41AA41067
:1081F000A54204D0AB00F35898470135F8E770BDAD
:10820000DC200020DC200020DC200020E0200020FA
:1082100003008218934202D019700133FAE77047C5
:10822000FEE7C04660DF704748DF70477047C046D2
:1082300010B5040001F066FE2388102B0DD0112B21
:1082400007D10122094B5242094900201A8002F04D
:108250008DFC200002F020F810BDA288034B0549D8
:1082600000201A8002F082FCF3E7C0466020002064
:1082700060AF010038AF0100F0B55F4656464D468D
:108280004446F0B4AF4987B0002002F06FFC02F022
:10829000DBF80023AC4A0521002000F055FF002840
:1082A00000D040E1002001F005F900234822A74951
:1082B000082001F0F9F9002800D02FE104AD0822D0
:1082C00000212800FFF7A4FF01232A782800134388
:1082D0002B70FFF7A7FF041E00D029E19C4801F096
:1082E00009FA002800D014E19A4801F00DFA00289C
:1082F00000D009E19849002002F038FC032001F089
:10830000ADFF002800D0FAE0944B00249946944B2E
:1083100020279846934B9A46934B9B46220049460A
:10832000002002F023FC4146002002F01FFC02F076
:108330008BF8B843C0B2472812D0532822D0FFF799
:1083400073FF061E01D10134E8E70022002100F08E
:10835000DDFB32005946002002F008FC0134DDE765
:10836000280001F00DF929886B792A790391E978C1
:1083700000200291A9780191A9790091514602F05B
:10838000F5FBDCE77949002002F0F0FB02F05CF835
:108390000300303BDBB2092BD5D8FF231840FA236A
:1083A00030389B005843288002F04EF80300303BE1
:1083B000DBB2092BC7D8FF23184064233038584359
:1083C0002B88C018288002F03FF80300303BDBB256
:1083D000092BB8D8FF23184030388300C0182B88E9
:1083E0004000C018288002F02FF8C0B20300303BD4
:1083F000092BA8D82B885E49303B1818288000200C
:1084000002F0B4FB02F020F80300303BDBB2092B92
:1084100099D8FF230340303B9A009B185B00AB7058
:1084200002F012F8C0B20300303B092B8BD8AB78B6
:108430005049303BC3180020AB7002F097FB02F0AC
:1084400003F80300303BDBB2092B00D97BE7FF23A5
:108450000340303B9A009B185B00EB7001F0F4FF87
:10846000C0B20300303B092B00D96CE7EB784249DE
:10847000303BC3180020EB7002F078FB01F0E4FF02
:108480000300303BDBB2092B00D95CE7FF2303403C
:10849000303B9A009B185B002B7101F0D5FFC0B2F6
:1084A0000300303B092B00D94DE72B793349303B92
:1084B000C31800202B7102F059FB01F0C5FF030027
:1084C000303BDBB2092B00D93DE7FF230340303BB3
:1084D0009A009B185B006B7101F0B6FFC0B20300FD
:1084E000303B092B00D92EE76B79303BC3186B71F9
:1084F0000023AB712868696801F00CF81FE70022BF
:10850000002100F003FBFFE60022002100F0FEFA4C
:10851000F0E60022002100F0F9FAE5E60022002151
:1085200000F0F4FACAE60022002100F0EFFAB9E602
:108530000022002100F0EAFA22001149002002F096
:1085400015FBCBE6B4AF010048210020002100203C
:10855000318201002D820100F4AF010004B001005E
:1085600014B0010048B0010098B0010068B00100EB
:1085700070B001007CB0010084B001008CB001003B
:10858000D8AF01001D4B1B78012B00D070471C4B4E
:108590001B681B07FAD1F0221A4B1B68134018D135
:1085A000194B1B6813421CD0154B1B681B07EDD1E0
:1085B000F022144B1B681340402BE7D1124B1B6871
:1085C0001342E3D1C12380220121DB00D205D15027
:1085D000DCE7102B01D0302BEAD10B4B1B68134288
:1085E000E6D10A4A0A4B1A6080220A4B12021A602C
:1085F000024B1B78012BD7D0C8E7C046E00F00F034
:10860000E40F00F0E80F00F0EC0F00F0DFFF07C010
:1086100004050040186C0040F0B557464E464546EC
:10862000E0B4D24A00241368012B00D1BDE0D04B46
:108630001A68012A00D1C6E0CE4B1A68012A00D17F
:10864000D1E0CD4B1A68012A00D1DCE0CB4B0025EC
:108650001A68012A00D1E7E023070BD0E30700D511
:10866000F8E0A30700D504E1630700D50FE1230775
:1086700000D5E3E0002C04DB1CBC90469946A246E2
:10868000F0BD4023BE4CE1564B1C1ED0C9B2C023E6
:1086900008009843231820331B785BB29B001E59B7
:1086A000002E12D0A0230127DB059C46E023874043
:1086B00082006244DB00D35889099B039B0F3D4233
:1086C00000D10CE1022B00D170E14123E1564B1C9B
:1086D0001ED0C9B2C02308009843231820331B784A
:1086E0005BB29B001E59002E12D0A0230127DB0590
:1086F0009C46E023874082006244DB00D35889090E
:108700009B039B0F3D4200D1D1E0022B00D141E100
:108710004223E1564B1C1ED0C9B2C0230800984327
:10872000231820331B785BB29B001E59002E12D0F9
:10873000A0230127DB059C46E0238740820062449A
:10874000DB00D35889099B039B0F3D4200D1F5E024
:10875000022B00D124E14323E1564B1C00D18BE7CF
:10876000C9B2C02308009843231820331B785BB29A
:108770009B001E59002E00D17EE7A0230124DB05BB
:108780009C46E023844082006244DB00D358890980
:108790009B039B0F254200D1BDE0022B00D06BE76D
:1087A000032900D108E1B04766E7C1217548890077
:1087B00041580B4200D13AE76D4B14601A680134FE
:1087C000012A00D038E7C1226E499200895802225E
:1087D0000A4200D130E700211960664B14431A6841
:1087E000012A00D02DE7C12266499200895804224F
:1087F0000A4200D125E7002119605F4B14431A6833
:10880000012A00D022E7C1225E499200895808223D
:108810000A4200D11AE700211960584B14431A6824
:108820000025012A00D017E71D6080231B061C438A
:10883000A022A223D205DB00D5580DE7514A524BA6
:10884000D058D1584E4B8903C004890FC00EDB6845
:1088500098470FE7A2234B4ADB00D058D158484B2A
:108860008903C0041B68890FC00E9847A30700D472
:10887000FAE6464B434AD058D158414B8903C004CD
:108880005B68890FC00E9847630700D4EFE6A32307
:108890003C4ADB00D058D158394B8903C0049B684F
:1088A000890FC00E9847230700D4E3E6C6E7032BE1
:1088B00000D02DE7032910D180239B029C46E023A2
:1088C000DB009946324FD3581F404B46D750D758FC
:1088D00063463B431F004B46D750B04718E7032B76
:1088E00000D0F2E6032914D180239B029A46E023AC
:1088F000DB00D7589946B846254FBC4647466346E5
:108900001F403B004F46D351D35957461F434B4658
:10891000D750B047D9E6032B00D0ADE6032900D0ED
:1089200041E78027BF02E023DB00D458184D2540E3
:10893000D550D4583C43D450B0479DE6032B00D0CB
:1089400009E7032910D180239B029C46E023DB002A
:1089500099460F4FD3581F404B46D750D7586346C0
:108960003B431F004B46D750B047F4E60061004040
:1089700004610040086100400C6100407C610040DF
:1089800010230020006000401C05000014050000BA
:10899000FFFFFCFF0329A0D1C0239B029C468EE76A
:1089A0000329E1D1C0239B029C46CFE70329B0D124
:1089B000C0239B029A469AE7C027BF02B3E7C0468E
:1089C000C12210B5414B92009958802252021142A7
:1089D00003D03F490868002848D1C1223B4B920090
:1089E000995880229202114203D03A49086800281F
:1089F00048D1C122354B920099588022D2021142AF
:108A000003D035490868002848D1C1222F4B920075
:108A1000995880221203114203D030490868002877
:108A200048D1C122294B92009A58D20704D58022FE
:108A300052009958002912D1C122244B92009A5811
:108A4000920704D5822252009958002900D110BD06
:108A500000219950224B05201B689847F7E7002119
:108A600099501F4B04201B689847E5E7D2208000EF
:108A70001A5040381A5000230B60194B00201B6815
:108A80009847AAE7D22080001A5040381A50002395
:108A90000B60134B01201B689847AAE7D220800087
:108AA0001A5040381A5000230B600D4B02201B68EF
:108AB0009847AAE7D22080001A5040381A50002365
:108AC0000B60074B03201B689847AAE700B00040E3
:108AD00040B1004044B1004048B100404CB10040BA
:108AE00058230020074B1A680823520701D41800A6
:108AF0007047002804D0044B5B7803600023F6E73E
:108B00000E23F4E7282400205C230020BFF34F8FBE
:108B1000024A034BDA60BFF34F8FFEE70400FA0509
:108B200000ED00E080218023184A8902D150802284
:108B3000D221174B520289005A5040395A50012213
:108B40002F205A600138C046C046C046C046C046C5
:108B5000C046C046C046C046C046C046C046F1D129
:108B60009A6000230B4A2F2013600138C046C0468C
:108B7000C046C046C046C046C046C046C046C046C5
:108B8000C046C046F1D1044A1370704700E100E0CE
:108B9000001001402C2400204C240020A021F0B51E
:108BA000002347462C4A490080B4535004315350A7
:108BB00004315350043153504C3953500431535005
:108BC000264B1B68002B37D02549002652582549D3
:108BD000254F0C68141B00222402240A904602E050
:108BE000002D1AD02B001A68A24216D8A41AB61863
:108BF0001A7CDD69002AF3D0424699691A745A69D1
:108C00003B68002B1BD0100098470028E8D00022BA
:108C10000021FFF77BFF002DE4D1144B14491A7893
:108C20000B789A420ED0134A9B009E5080218023DD
:108C3000114A49035B00D15004BC9046F0BD0800C6
:108C40009047CDE70132D3B2022B01D00B70EAE797
:108C500000230B70E7E7C0460010014030240020DD
:108C6000040500002C24002034240020402400208F
:108C7000412400204424002000E100E0F0B55F46DC
:108C800056464D464446F0B4C54BC64A1B68C649D5
:108C90008BB0059309781378994200D157E10133DD
:108CA000DBB2022B00D100231370C04A9B009B58FB
:108CB000BB4A9A46059B53441B021B0A13600123BF
:108CC0000193BB4B00241B689B46BA4B5A461B784A
:108CD000914619000393B84B88461B684746049396
:108CE000AF4B013F1B680793B44B1B7809930023DC
:108CF0009C4606930893FBB266469846FF2B32D0FB
:108D00004346D800049B9C46130060440178457894
:108D100000961A00A9421FD046684A00B44652186D
:108D200086780131D200C9B262448E4200D1EDE0B2
:108D30001678022E00D1C7E0032EEAD1002BE8D02E
:108D40001C74DB69002BFBD10133457800930023B1
:108D500099461A00A942DFD14746013FFBB2009E67
:108D60009846FF2BCCD1089BC8460292B446002BF4
:108D700000D0F0E0069B002B02D0894B079A1A60C6
:108D80006346002B02D04246894B1A60019B002BA0
:108D900000D02DE15B46029A00259B1A5A1E934192
:108DA000DBB205937E4B00271B6802999C46804BE3
:108DB0001B689B46814B1B78069300230193804BD5
:108DC000994601230093039B013BDBB20393FF2BE6
:108DD00000D1F9E0049ADB0092460E009A44002D7F
:108DE00028D06A68A9682C00ED696346D31A1B0273
:108DF0001B0A4B4552D86A4612785B18236067609D
:108E0000A7602274E761002E58D031683000994283
:108E100005D3B9E01168994200D3A3E01000C269FC
:108E20005B1A002AF6D1E26132002360C4611600A9
:108E3000002DD6D153461A785B7831009342C2D0C8
:108E4000514649685300884651469B180132D2B2B8
:108E50000A708978DB004344914200D19DE0197883
:108E600032000129E3D15C68227C90464146320001
:108E70000029DCD19A686260D968A1601869E06055
:108E80005B69A361069B002BAFD043460022636061
:108E90006346D31A1B021B0A4B45ACD963469A1A88
:108EA0001202120A8A4264D28B1A6A46127823602E
:108EB0006760A7602274E761002EA6D1220001231B
:108EC000A34601931600B3E75668002B30D09E42AC
:108ED0001ED0009A1F00944602E0964206D017006A
:108EE000FA69002AF9D16246009212E765460095B8
:108EF000BA420FD01568D269FA61002A16D01368F9
:108F00009C466544156045784B4602E700210FE713
:108F10001A001F00DE69002E0CD00125009515688F
:108F2000D269B1463300FA61002AE8D14578F0E60B
:108F30000023EEE60125234B9D6000950695002554
:108F4000002307950135994608950995D2E7002336
:108F50009A460193B5E66A4624215218174B1278B7
:108F60001A7007E7C91A1160E26123603200C46118
:108F70005DE76B461B7827606760A7602374E76135
:108F8000002E9BD000233168CB1A336022000123CE
:108F9000E661A346019316004AE7524615705EE764
:108FA0002C240020402400204124002044240020C0
:108FB00030240020382400203C24002042240020BB
:108FC000FEFF7F0000100140019B002B00D09DE0C0
:108FD000029B994236D1059B002B33D10023534A83
:108FE00013700BB03CBC90469946A246AB46F0BD10
:108FF0004F4B002418680025029B0021002657468D
:1090000015E01A68BA4200D984E0D868BF1A8918F6
:109010001E60DC69002807D0DD611D00059A98609C
:1090200052181202120A5A6023002000019C002BE1
:10903000E7D1002C01D03E4B18600023029301338E
:109040000593AFE6002900D15DE00B6839489846EA
:10905000394B3A4DC4583A4B2E781B68E11A090235
:10906000090A0331002E2DD042468A4200D20A005E
:10907000A820D21812022F49130AC0002E4D0B50FF
:109080004A591B1B121B1202120A1B0203321B0A33
:109090009A42A3D94B590B502F200138C046C046E5
:1090A000C046C046C046C046C046C046C046C04690
:1090B000C046C046F1D180218023224A89025B004C
:1090C000D1508BE78026D1277602BF00C651403FA2
:1090D000C651C02280271B4EBF025200B7503760D6
:1090E000012606602F200138C046C046C046C04653
:1090F000C046C046C046C046C046C046C046C04640
:10910000F1D12E70B0E7FFF70DFD67E75A46084B27
:109110001A605DE7BA46002C01D005490860514647
:10912000521A1A600293012305933BE64224002061
:109130003024002000100140040500004C240020D1
:109140002C24002000E100E0F8B54F464646C0B4AC
:109150000326350080460F0014009946154007206D
:10916000002D03D00CBC90469946F8BD002A44D08F
:10917000FFF7D8FC4A46224B80201A602200214B80
:1091800018321E70204B62601C607B00DB19DB0014
:10919000D218E260D318C022636125706570A77091
:1091A00025726572A77225746574A774C524FF21A2
:1091B000164B40031D60164B52001D70154BA4004A
:1091C0001D70154B98501A598A433F390A431A515A
:1091D000A122186040461149D2008850C420800066
:1091E0001C580F4A2240C024240222431A500D4B1F
:1091F0000020CA580C4B1A60B4E7034B1A60B1E761
:1092000034240020382400203C2400203024002076
:10921000402400204124002000E100E00010014033
:10922000FF00FFFF040500002C24002010B50B4BAD
:109230001B68002B0BD0002A07D0002805D003683C
:1092400008201C7C002C04D010BD0720FCE708205F
:10925000FAE759745A610020F6E7C0463C24002022
:10926000F0B5344B1C68002C06D0002804D007232E
:10927000042903D81800F0BD0823FBE74369002B3D
:10928000FAD0437C012B44D000262B4B10255B6881
:10929000DB05DB0D25D164196378A5785F1CFFB26F
:1092A000BD423AD02578BD4235D05D00ED186368E7
:1092B000ED009C4665440423002DDBD0033B2B705E
:1092C00068601E4B1E48C358E960AB608021802354
:1092D0006A611C4A5B0049032E616770D15000230C
:1092E000C8E7103B5DB2002D19DBAD08C035154F46
:1092F000AD00ED5903273B40DB00DD40AB093B40AF
:10930000DBB20025012BC6D00835032BC3D00835AE
:10931000C1E70E00B9E70423ACE70027C2E70F2539
:10932000094FDBB2BC461D40083DAD08AD006544A9
:109330006D68DFE73C24002000ED00E0040500003C
:109340000010014000E100E018ED00E010B52C4AEB
:1093500003001168082000292AD0002B28D05A6960
:10936000002A25D000221A74264A08305268D205F5
:10937000D20D1ED109184A788878541CE4B2A04254
:1093800031D00878A0422CD0500082184868D20012
:10939000844662440420002A0AD0023810705360C8
:1093A0004C70802380210020174A49035B00D15074
:1093B00010BD103A50B2002817DB8008C030124CA4
:1093C0008000005903242240D200D040820922406C
:1093D000D2B20020012ACDD00830032ACAD00830EA
:1093E000C8E70420E4E70024CBE70F20074CD2B203
:1093F000A446104008388008800060444068E1E7D7
:109400003C24002000ED00E000E100E018ED00E069
:1094100010B5264CA3793A2B02D80133A37110BDA5
:1094200000236279A3713A2A02D801326271F6E709
:1094300022796371162A07D9A27823710C2AEED8F3
:109440001B499300CB589F4601322271E7E7E3782E
:109450001E2B23D90123E370A370238801332380BB
:10946000DDE7E3781D2B19D901230132E370A270E7
:10947000D5E72088830706D1C821490001F034FCD4
:1094800089B200290DD1E3781B2B07D90123E370A2
:109490000233A370C3E7E3781E2BE5D80133E370F2
:1094A000BDE7E3781C2BF9D9F0E7C046742400200F
:1094B000B8B0010070B5134A040001211248FFF74B
:1094C000B5FE002819D1802000250021621C540817
:1094D000000200230019694101F00CFC0B4B010054
:1094E000186000220A48FFF7BBFE002803D00022C4
:1094F0000021FFF70BFB002070BD00220021FFF7C9
:1095000005FBE0E711940100ECB0010050240020BD
:109510005424002010B5174C82B000902000019117
:10952000FFF714FF002820D16A46134B1288200051
:109530001A806A4692789A706A46D278DA706A46D9
:1095400012791A716A4652795A716A4692799A71F9
:109550000A4B00221968FFF783FE002803D000227F
:109560000021FFF7D3FA02B010BD00220021FFF75F
:10957000CDFAD9E754240020742400205024002080
:10958000064B1A8802809A788270DA78C2701A794B
:1095900002715A7942719B7983717047742400205B
:1095A0002EDF704751DF704710DF704761DF704773
:1095B00010B50800110000E000BF10BDF0B557461F
:1095C0004E464546E0B4344B344E1D6899466B42D6
:1095D0005D41334BEDB21C68984663425C4182B0FA
:1095E000E4B2304FB246002D13D0002C40D13C687D
:1095F000338801A920000B80FFF7D8FF052837D05A
:1096000000282AD000220021FFF780FA0024002D34
:10961000EBD101A8FFF7C6FF05280DD0002822D006
:1096200000220021FFF772FA002C27D0012401A8A4
:10963000FFF7B8FF0528F1D1002C19D153466A462F
:109640001B8801A99380174B1C682000FFF7AEFF11
:1096500005280DD001250028D4D1434620001B68E1
:1096600098470024D3E74B4601981B689847DBE7EF
:1096700002B01CBC90469946A246F0BD6A46074B14
:1096800001A91B889380074B1C682000FFF78EFF01
:109690000528B5D10124CAE7842400207E240020B7
:1096A000882400208024002070B5040007200029B1
:1096B00001D08D0700D070BD094801600949200024
:1096C0000A80094A09491360FFF76EFF0028F2D1AA
:1096D0000122074B16301A70FFF762FFEBE7C04616
:1096E000802400207E2400208C240020B1950100DD
:1096F0007C240020002803D0024B18600020704713
:109700000E20FCE788240020002803D0024B1860BC
:10971000002070470E20FCE78424002010B50A4B7F
:109720001B68002B08D09847002800D110BD0022EC
:109730000021FFF7EBF9F9E7044B1B78002BF5D07C
:10974000FFF73CFFF2E7C0468C2400207C24002079
:1097500071DF704772DF704779DF70477DDF7047D8
:1097600065DF7047F0B55F4656464D464446F0B457
:1097700085B09A460EAB80CB06001B8800919B46B5
:109780003B8801930388002B63D00023994602ABEA
:10979000DD1C3B0000241700984603E033880134A9
:1097A000A3422CDD7368A1009C460422614403A8F7
:1097B00001F0AAFB0022290003A8FFF7D1FF00282F
:1097C00029D12B78BB42E9D14B46002B2AD0434606
:1097D0001A88D3195B453EDC5244290003A8FFF7E1
:1097E000BFFF002817D143462A781B880134D318BD
:1097F00042461380012399463388A342D2DC4B466C
:109800004746002B25D03B88019A013B9B1A9BB20F
:109810000C20FF2B1AD905B03CBC90469946A246B5
:10982000AB46F0BD43461B88DA1902325A4512DCBA
:109830004246013369469BB2138052460978D1549F
:1098400043461A88013292B21A80C5E71100524687
:1098500053540020DFE70C20DDE7C046F0B55F463B
:1098600056464D4644460023F0B417881380436B98
:1098700087B006000D001400002B00D19CE1022FE0
:1098800000D891E11A7802230B701121238801334B
:109890009BB22380E954238801339BB22380EA548E
:1098A000238801339BB22380326B002A00D170E001
:1098B00019001231B94200D976E11121E954238807
:1098C000013901339BB22380E954238801339BB2D1
:1098D0002380D17BE954238801339BB22380917B81
:1098E000E954238801339BB22380517BE9542388B8
:1098F00001339BB22380117BE954238801339BB24F
:109900002380D17AE954238801339BB22380917A52
:10991000E954238801339BB22380517AE954238888
:1099200001339BB22380117AE954238801339BB21F
:109930002380D179E954238801339BB22380917924
:10994000E954238801339BB223805179E954238859
:1099500001339BB223801179E954238801339BB2F0
:109960002380D178E954238801339BB223809178F6
:10997000E954238801339BB223805178E95423882A
:1099800001339BB223801278EA54238801339BB2BF
:1099900023802E22B25C002A00D00FE12D22B25C7F
:1099A000002A00D02CE1B278002A00D055E1F278EC
:1099B000002A14D0D91CB94200D9F5E00221E9549B
:1099C0002388013901339BB22380E9542388013372
:1099D0009BB22380EA54238801339BB223807268B0
:1099E000002A15D0D91CB94200D9DDE00221127835
:1099F000E9542388083101339BB22380E95423883A
:109A000052B201339BB22380EA542388013323806E
:109A10003389002B00D09BE1338A002B00D0B1E1C9
:109A2000338B002B00D0C7E1336A002B4BD0228848
:109A30000C20911D9346B94200D9B6E0198805382B
:109A40008A46052900D8B0E0BB496A468C46D44412
:109A50006146D181D1898C46B84988468C4500D869
:109A6000A3E059888C46052900D89EE0B24961449C
:109A7000D18189B2414500D897E0B1498A4504D0E7
:109A80008C4502D0E24500D98FE005215A46A95401
:109A900022880D31013292B22280A95422880132EB
:109AA00092B222801988AA181170090A517022886E
:109AB000023292B222805988AB181970090A597083
:109AC000238802332380736A9846002B30D09A880B
:109AD0002188131D5B180C20BB4266D8931CFE2BFB
:109AE00063D803326A54FF22238801339BB2238058
:109AF000EA544246238801339BB223801288EB1834
:109B00001A70120A5A704246238802339BB223808D
:109B10009288002A0CD0414689680538002944D033
:109B2000E81801F0F1F9434622889B88D318238076
:109B30002C23F35C002B00D0B0E033780020002B06
:109B400033D032880720012A2FD02288901CB842B7
:109B50002AD8012B04D1737802339B189F4223D358
:109B6000023FBA1A04AF93B22818390098463B80D6
:109B7000FFF7F4FD002818D13378022B00D141E122
:109B8000012B00D1DEE043460821FE2B0CD82288B1
:109B90005E1CAE542288013292B22280A9542288DF
:109BA00001329B18238000E00C2007B03CBC90469B
:109BB0009946A246AB46F0BD002375E6D91C0C20A1
:109BC000B942F2D80221E9542388103001339BB204
:109BD0002380E854238801339BB22380022A00D1DA
:109BE0000BE100D804E1032A00D109E1042A00D0E6
:109BF000FCE00322EA54238801339BB22380CDE6A4
:109C000009330C20BB42D0D804A8FFF7A1FD0028DF
:109C1000CBD1082223880921EA5423881332013347
:109C20009BB22380EA5402AB9C462088153A01304F
:109C300080B220806144281801F066F9238802AAC6
:109C40000633127A9BB22380002A00D00122EA5404
:109C5000238801339BB22380A5E604330C20BB424A
:109C6000A3D804A8FFF778FD00289ED103222388FB
:109C7000EA542388163201339BB22380EA542388A6
:109C800002AA01339BB212892380EB181A70120AC0
:109C90005A70238802339BB2238088E6B36A9846C1
:109CA000002B00D1A2E09B880233FE2B00D97BE77A
:109CB00000229146163292461632208893460CE0D6
:109CC0004B46B26A5B0090464B449B009844434627
:109CD0009B880233FE2B00D966E7524601332B5492
:109CE000238801339BB22380EA5442462388013300
:109CF0009BB223801288EB181A70120A5A704346DE
:109D00002088023080B220809A88002A0BD099687F
:109D100000296BD0281801F0F7F8434620889B886B
:109D2000C01880B220804B460133DBB299465B46B7
:109D3000F35C4B45C4D800E77FF3FFFF7DF30000E1
:109D4000FFFF00007378984500D31DE743461BE7EB
:109D500008239846B044019700942B000222022168
:109D60004046FFF7FFFC002800D01EE70197009453
:109D70002B00102206214046FFF7F4FC002800D0FB
:109D800013E749E610239846B044019700942B004E
:109D9000022203214046FFF7E5FC002800D004E73B
:109DA000019700942B00102207214046FFF7DAFCB0
:109DB000002800D0F9E633E618239846B04401970E
:109DC00000942B00022214214046FFF7CBFC002810
:109DD00000D0EAE6019700942B001022152140469E
:109DE000FFF7C0FC002800D0DFE61DE60720DCE618
:109DF000012AFBD10022EA54FDE60122EA54FAE6E8
:109E0000E954F8E63B880921984500D3BDE643466E
:109E1000BAE6C04630B593B01F236A460C00938063
:109E2000D380002822D0C3785B071CD501AA02A9E1
:109E3000FFF714FD02AD002816D1002C19D0E378ED
:109E4000002B10D16B460AA99A1D2000FFF706FDD2
:109E5000002809D16B469B790AAA6946280009792E
:109E6000FFF778FC00E0072013B030BD908000259C
:109E7000E3E76B460022DC800023EEE730B51B4BA6
:109E80001B4A5B88118883B099420FD852889A4246
:109E90000CD3184B5B69002B03D0012201A8027080
:109EA0009847154C0023237003B030BD124C237823
:109EB000002B08D00F4B5B69002BF3D0002201A8C8
:109EC00002709847EEE70D4B0A4D1B78002B0BD024
:109ED000A96800220A48FFF7C3F90028E2D0AB695D
:109EE000002BDFD09847DDE76968F2E79424002073
:109EF000E0240020A0240020902400209C240020A6
:109F0000BC24002010B50388112B35D021D9122B89
:109F100017D0502B1CD1214CC288E3899A4217D10B
:109F2000C38B022B14D11E33C35CDB070ED41C4839
:109F3000FFF70CFA00280BD0A369002B08D0984734
:109F400006E0811D0822174800F0DEFFFFF796FFAC
:109F500010BD102BFCD101008288134B16311A80E2
:109F60001048082200F0D0FF0022104B1A700B4B53
:109F7000DB89002BECD1E9E701220B4B52421A801E
:109F800000220A4B06481A70FFF7E0F90028DFD0DC
:109F9000024B9B69002BDBD09847D9E7A024002017
:109FA000BC24002094240020DC2400209C240020D9
:109FB00073DF704770B59F4E86B0072200213000D6
:109FC000FEF726F99C4C6378002B6ED09B4D2B78C6
:109FD000012B05D0A278002A00D1EFE0022B0FD18F
:109FE000974A1268002A00D1FDE00121954B082014
:109FF000197090472B78012B00D1F7E0022B5FD02E
:10A00000227B002A01D1032B7AD0227E002A02D1A2
:10A01000042B00D107E18A4A1268002A02D0033BD0
:10A02000012B77D90022884B1A701822002168462C
:10A03000FEF7EEF800236A46137013722A78019334
:10A040000393022A00D18BE072D9032A00D194E055
:10A05000042A22D16B46A28B1A82228C5A827B4B15
:10A060001A79002A00D1B6E02278002A00D1B6E0A1
:10A07000774A1278002A00D0B1E06946039304239E
:10A08000023274480A720021C370FFF7C3FE002831
:10A0900064D10622704B1A702A78002A51D1684B7D
:10A0A0001B68002B56D1002058E0A378634D002B8D
:10A0B000A0D02B78022B93D0012BA1D102232B709F
:10A0C000A378002B17D07378002B00D0B0E0B378C2
:10A0D000002B00D0ACE0F378002B00D0A8E033795F
:10A0E000002B00D0A4E07379002B00D0A0E0B3795E
:10A0F000002B00D09CE003232B70237B002B61D12D
:10A1000004232B70237E002B00D18CE04C4B1A686B
:10A11000002A87D02378002B84D04D4B1B78002B4E
:10A1200000D07FE70121484B0720197090477CE75A
:10A13000012AB2D169464B820B82474B01960A70C5
:10A140001A706846FFF734FF002807D13C4B1B68A4
:10A15000002BA8D0404A10789847002006B070BD68
:10A16000012369460B706B46218901965982694625
:10A1700063680B82384B1A70E3E76B46A28A5A82F7
:10A18000228A1A82314B1A79002A1DD02278002A9D
:10A190001DD02F4A1278002A19D16946039304234F
:10A1A00002322C480A720021C370FFF733FE0028E8
:10A1B000D4D10522284B1A702A786EE7022B00D0E2
:10A1C0001EE798E7032326E71A7B002ADED1032245
:10A1D000214B1A70B5E71A7B002A00D044E704220D
:10A1E0001D4B1A70ADE717490A7004E76278002A20
:10A1F00000D163E77278002A00D00CE7B278002A19
:10A2000000D008E7F278002A00D004E73279002A6B
:10A2100000D000E77279002A00D0FCE6B279002A6B
:10A2200000D14BE7F7E600230B4A2B701370F9E6D9
:10A230000223F0E62C25002034250020692500208B
:10A24000202500206A2500206825002058250020B0
:10A2500025250020E82400206B25002010B50024CF
:10A260000B4B82B0187001A80194FEF73BFC082844
:10A2700009D0002805D1019B002B05D00122054BF8
:10A280001A7002B010BD0194FFF794FEF9E7C046C2
:10A29000692500202425002030B5038883B0112BC8
:10A2A0001ED0192B07D0102B01D003B030BD8288EF
:10A2B0002D4B1A80F9E78479002CF6D12B4B1D78B1
:10A2C000022D4ED038D9032D23D0042DEDD1284BAB
:10A2D0001C70284B1B68002BE7D000209847E4E750
:10A2E0000024254B1C70204B82881B889A42DCD1AD
:10A2F00001251E4B01A81D700194FEF7F3FB0828F1
:10A3000024D0002827D1019B002B20D01B4B1D708F
:10A31000CBE7174A1570042201A81A700194FEF7C2
:10A32000E1FB082812D0002815D1019B002B0ED08C
:10A330000122124B1A70B8E7012DB6D1022201A8F2
:10A340001A700194FEF7CEFB0828DAD10194FFF7CA
:10A3500031FE0028A9D00A4B1B68002BA5D09847D6
:10A36000A3E70322D8E7C046622000206925002029
:10A370006B250020202500202525002024250020F5
:10A3800028250020F0B54E46574645462D4BE0B4F3
:10A390009946032644002318DB004B441500DA6A73
:10A3A0000F001640022E06D09A6A596A521A013AD4
:10A3B00045D4AA423FDB0026002D34D000239A4624
:10A3C000431C5A002418D318E400DB004C44984680
:10A3D00001E0002D26D0A36A626A216A9B1A013B24
:10A3E00027D4626A8A1A934201DB636ACB1A2E0071
:10A3F0009D4200DD1E004A464244636A50683900AF
:10A40000C018320000F080FD636A226AF3186362AC
:10A41000636AB244BF19AD1B9342DAD10023636271
:10A42000002DD8D1564630001CBC90469946A24615
:10A43000F0BD5B18D5E7002EF5D01500BBE71B6A11
:10A44000D218B6E7642000200123F0B54F469946A4
:10A4500080B41C4E82B0B56D746DA5421BDC6A469B
:10A4600001230027D01D641B9C4200DD1C00002C32
:10A4700006DDF36C2200591900F046FD3F192D1935
:10A48000002FE8D0B565012FE5D16B46D87902B031
:10A4900004BC9146F0BD336D5F1B002F00DD01272A
:10A4A000F36C3A0059196B46D81D00F02DFD6B4630
:10A4B0000733D8194B46326DED19DB1B9542D2D1CB
:10A4C0000025D0E764200020F0B544465F464D46A5
:10A4D0005646F0B4884683B0040017001D00914230
:10A4E00000D2E5E008000126390000F077FB0136D4
:10A4F0008742F9D9AA46B54200D2B24601230D9A45
:10A500001A40019203D10C9B002B00D08CE0A6686E
:10A510006B1E012D00DCC1E09946002301259B46FE
:10A5200007E01343012252429446DBB2E144002B80
:10A5300014D07D434046290000F050FB5A4649465E
:10A54000B842524101230129EBDC002313430122CD
:10A5500052429446DBB2E144002BEAD1554B994676
:10A5600000239B4608E0E368002B28DB2800390025
:10A5700000F034FB051E22D04046290000F02EFBDF
:10A58000030042466B43D31A98466368B34209DD21
:10A590004B4622681B5C9355E36801360133E36048
:10A5A0006368A6609E42DED1320021682069FFF711
:10A5B000E9FEA368984233D001235B42E360019B2C
:10A5C000002B26D00C9D002D23D02026002705E04F
:10A5D000E368002B1DDB013D002D1AD0AA4518D2DF
:10A5E000A16863680A00994207DA236801325E5461
:10A5F000E368A2600133E36063689A42E8D12168AE
:10A600002069FFF7BFFEA36898423ED001235B425A
:10A61000E36003B03CBC90469946A246AB46F0BD11
:10A620005B460026A3609EE7202399460D9B9B076F
:10A630002DD40022A6680C9B934606E0E368002B0D
:10A64000E7DB0C9B002B00D162E70C9A013A0C92DD
:10A650009A4500D35CE76368B34208DD4A46236845
:10A660009A55E36801360133E3606368A6609E4251
:10A67000E4D1320021682069FFF784FEA368984284
:10A68000C4D15B460026A360D8E7A760A0E73023CB
:10A690009946002DCDD0103B9946CAE7002241468D
:10A6A000B9425241D2B20125002A00D034E755E721
:10A6B00001261FE7FCB00100F0B55F464D46444659
:10A6C0005646F0B49FB00EAB099340230A93002383
:10A6D0000B930C9304339946033B04900D909046E2
:10A6E00000209B460B784D1C002B36D0252B1CD10F
:10A6F0002A00137800270225082114002B2B0BD0E9
:10A700002B2B0DD92D2B65D0302B2FD12F43013280
:10A71000137814002B2BF3D14B4601321F43F7E77C
:10A72000232B23D10F430132F2E70B9A0A998A4275
:10A7300057DA09998B540C9B0132581C0A9B0B92D7
:10A740000C90029329009A4200D18BE0002800DA95
:10A7500097E00B784D1C002BC8D1002800DC90E05E
:10A760000B9A002A00D0C1E180188AE01A00303A22
:10A770000025092A0AD8AA00551901346D00ED18E0
:10A780002378303D1A00303A092AF4D900262E2BBE
:10A7900055D01A0049468A43682A1FD0642B00D13D
:10A7A00089E022D9732B00D1E6E000D870E0752B48
:10A7B00000D02FE1434641461B6809A81A1D0A60D4
:10A7C00019680A22019700953300FFF77DFE0C9867
:10A7D000611CBBE75B4601321F4399E723780134D4
:10A7E000D7E78A423ED029007CE7582B00D114E1FC
:10A7F000632B00D1F3E0252BEAD10B9D0A992A00A7
:10A800008D4208DA099901324B550C9B0A99581C64
:10A810000B9202930C908A42DAD1099B02930D9B12
:10A82000029918000393FFF7ADFD0B9B029398422A
:10A8300000D0CFE000230C980B93611C86E763786F
:10A84000611C1A00303A0C00092AA2D8B2009619ED
:10A8500001347600F6182378303E1A00303A092A7F
:10A86000F4D996E7099B02930D9B02991800039374
:10A87000FFF788FD0B9B0293984200D131E1012044
:10A8800040421FB03CBC90469946A246AB46F0BD44
:10A89000702B9DD1434641461B6809A81A1D0A60CA
:10A8A000196800230193083300931022FFF70CFE70
:10A8B0000C98611C4AE7434641461B681A1D0A6012
:10A8C0001B68DA1798180293012350409A4609280A
:10A8D0000ADDA2461C000A2100F080F90134092893
:10A8E000F9D8230054469A460596564500D2A8E06A
:10A8F000002D06D0029B002B02DB4B463B4200D0D2
:10A90000013DBB0700D5A2E05B463B4200D0A1E081
:10A91000002D00D19EE0202207962B009246059E36
:10A9200011E05146099B99540C9B0132581C0A9B1B
:10A930000B920C9003939A420ED0002800DA47E75E
:10A940002B1E00D10CE1013D9E4200D308E10B9A81
:10A950000A9B9A42E5DBF3D1099B03930D9B039974
:10A9600018000693FFF70EFD0B9B0393984231D11D
:10A9700000230C980B93E0E7434641461B681A1DE1
:10A980000A601D682B78002B00D121E70B9A0A99E9
:10A990008A420FDA09998B540C9B0132581C0A9B8E
:10A9A0000B920C9002939A4208D001350028E9DA04
:10A9B000611CCBE68A4201D00135E3E7099B029393
:10A9C0000D9B029918000393FFF7DCFC0B9B02938D
:10A9D000984232D0012040420C90611CB6E64346BA
:10A9E00042461D680B992B1D13600A9B0A00994271
:10A9F0000BDA099B0132029302982B6843540C9B9B
:10AA00000B92581C02930A9B0C909A4200D104E7C7
:10AA1000611C9BE6782B00D0DAE6434641461B6872
:10AA200009A81A1D0A6019681022019700953300C1
:10AA3000FFF74AFD0C98611C88E600230C980B93E5
:10AA4000B3E753460593002D00D15AE752E7002E95
:10AA500000D059E7029B002B66DB4B463B424DD1B1
:10AA600003233B40022B31D1002E2FD1002D75D076
:10AA7000B2462B00059E10E03021099B99540C9B97
:10AA80000132581C0A9B0B920C9003939A420CD0F3
:10AA9000002800DA9CE62B1E5FD05D1E9E4214D279
:10AAA0000B9A0A9B9A42E7DBF5D1099B03930D9B16
:10AAB000039918000593FFF765FC0B9B03939842DD
:10AAC00088D100230C980B93E2E75646029909A817
:10AAD0000197009533000A22FFF7F6FC0C98611CE1
:10AAE00034E600230C980B9329002FE60EA9049856
:10AAF000FFF748FC0C980B9A8018C2E60B9A0A9B49
:10AB00009A4217DA099B03932B2303998B540C9BCE
:10AB10000132581C0A9B0B920C9003939A420BD063
:10AB200000289DDA611C11E65B4202930B9A0A9B96
:10AB30009A4217DB9A4293D1099B03930D9B039989
:10AB400018000693FFF71EFC0B9B0393984200D05E
:10AB500040E700230C980B93E2E756460025B5E743
:10AB6000079E77E7099B03932D23CEE70EB400B52C
:10AB700082B003AB02CB01AA0193FFF79DFD02B0A7
:10AB800008BC03B01847C04603210A4802680A43BC
:10AB90000260094802680A4302600849084A094BF2
:10ABA0009B1A03DD043BC858D050FBDC06488047A5
:10ABB00006480047240500405405004014B1010038
:10ABC00000200020E4200020858501002181010073
:10ABD000FEE7FEE7FEE7FEE7FEE7FEE700224308AA
:10ABE0008B4274D303098B425FD3030A8B4244D355
:10ABF000030B8B4228D3030C8B420DD3FF22090297
:10AC000012BA030C8B4202D31212090265D0030B55
:10AC10008B4219D300E0090AC30B8B4201D3CB034B
:10AC2000C01A5241830B8B4201D38B03C01A52418D
:10AC3000430B8B4201D34B03C01A5241030B8B428F
:10AC400001D30B03C01A5241C30A8B4201D3CB027A
:10AC5000C01A5241830A8B4201D38B02C01A52415F
:10AC6000430A8B4201D34B02C01A5241030A8B4262
:10AC700001D30B02C01A5241CDD2C3098B4201D37A
:10AC8000CB01C01A524183098B4201D38B01C01AF8
:10AC9000524143098B4201D34B01C01A524103096F
:10ACA0008B4201D30B01C01A5241C3088B4201D31E
:10ACB000CB00C01A524183088B4201D38B00C01ACB
:10ACC000524143088B4201D34B00C01A5241411AF2
:10ACD00000D20146524110467047FFE701B50020FF
:10ACE00000F006F802BDC0460029F7D076E77047AD
:10ACF0007047C046002B11D1002A0FD1002900D186
:10AD0000002802D00021C943081C07B4024802A150
:10AD10004018029003BDC046D9FFFFFF03B4684648
:10AD200001B5029800F006F8019B9E4602B00CBCEB
:10AD30007047C046F0B54D46564644465F46F0B4AF
:10AD4000924683B004000D0099468B422FD82CD038
:10AD50004946504600F0AEF829000600200000F0F9
:10AD6000A9F8331A9846203B9B4600D574E0534619
:10AD70005A4693401F005346424693401E00AF423E
:10AD800029D826D05B46A41BBD41002B00DA79E010
:10AD9000002200230092019301235A46934001931D
:10ADA000012342469340009319E08242D0D9002209
:10ADB0000023009201930C9B002B01D01C605D606E
:10ADC0000098019903B03CBC90469946A246AB4618
:10ADD000F0BDA342D6D9002200230092019343463E
:10ADE000002BE8D0FB0772081A4346467B080EE0AA
:10ADF000AB4201D1A2420CD8A41A9D4101202419D2
:10AE00006D410021013E24184D41002E06D0AB4279
:10AE1000EED9013E24196D41002EF8D15B46009811
:10AE2000019900196941002B22DB2B005A46D340BF
:10AE30002A004446E2401C005B461500002B2CDB38
:10AE400026009E40330026004746BE403200801A4E
:10AE5000994100900191AEE7424620239B1A524649
:10AE6000DA40414613004A468A4017001F4382E7F2
:10AE7000424620239B1A2A0046469A402300F3406C
:10AE80001343D5E74246202300219B1A002200915C
:10AE900001920122DA40019282E7424620232600F5
:10AEA0009B1ADE402F00B446974066463B00334372
:10AEB000C9E7C04610B5002903D100F007F82030DB
:10AEC00002E0081C00F002F810BDC0461C2101235E
:10AED0001B04984201D3000C10391B0A984201D37D
:10AEE000000A08391B09984201D30009043902A25B
:10AEF000105C40187047C0460403020201010101C2
:10AF00000000000000000000002310B59A4203D0AA
:10AF1000CC5CC4540133F9E710BD0000F8B5C0465D
:10AF2000F8BC08BC9E467047F8B5C046F8BC08BCE3
:10AF30009E467047002000200D0A5B6F6E5F626CBA
:10AF4000655F6576745D424C455F4741505F45568D
:10AF5000545F434F4E4E45435445440D0A00000094
:10AF60000D0A5B6F6E5F626C655F6576745D424C67
:10AF7000455F4741505F4556545F4449434F4E4EED
:10AF800045435445440D0A000D0A5B736C656570BA
:10AF90005F6D6F64655F656E7465725D746F207060
:10AFA0006F776572206F66662073797374656D0DB7
:10AFB0000A0000000D0A5B6D61696E5D7072657359
:10AFC0007320616E79206B657920746F20636F6EDA
:10AFD00074696E75650D0A000D0A5B73645F626CBF
:10AFE000655F656E61626C655D6572726F723A2550
:10AFF000780D0A000D0A5B696E69745D4F4B0D0A8E
:10B00000000000000D0A5B6C6F6F705D25640D0A17
:10B01000000000005072657373204720746F206732
:10B0200065742063616C656E6461722C7072657307
:10B0300073205320746F207365742063616C656E98
:10B040006461723A000000000D0A2532643A25322C
:10B05000642725326422202532642F2532642F256F
:10B0600034640D0A000000000D0A596561723A004F
:10B070000D0A4D6F6E74683A000000000D0A4461BD
:10B0800074653A000D0A486F75723A000D0A4D69F1
:10B090006E7574653A0000000D0A5B73645F617041
:10B0A000705F6576745F776169745D6572726F72E7
:10B0B0003A25780D0A0000001E94010096940100C4
:10B0C000729401009694010062940100969401002C
:10B0D000629401009694010096940100629401002C
:10B0E00096940100629401004E94010054240020C3
:10B0F0005465726D696E616C00000000303132334E
:0CB1000034353637383941424344454667
:08B10C0014D0FF7F01000000D8
:10B11400000000000000000000000000000000002B
:10B12400000000000000000000000000000000001B
:10B13400000000000000000000000000000000000B
:10B1440000000000000000000000000000000000FB
:10B1540000000000000000000000000000000000EB
:10B1640000000000000000000000000000000000DB
:10B17400FFFFFFFF534547474552205254540000F8
:10B18400000000000200000002000000F0B0010016
:10B194006C250020000400000000000000000000F6
:10B1A400000000000000000000000000000000009B
:10B1B400000000000000000000000000F0B00100EA
:10B1C4006C290020100000000000000000000000B6
:10B1D400000000000000000000000000000000006B
:10B1E400000000000000000000000000E9800100F1
:04B1F400C180010015
:040000031000AB89B5
:00000001FF
