:020000021000EC
:10800000004000203DE5010085E5010087E5010015
:108010000000000000000000000000000000000060
:1080200000000000000000000000000089E50100E1
:1080300000000000000000008BE501008DE501005C
:108040008FE501008FE50100B99201008FE5010085
:108050008FE5010000000000199701008FE5010085
:108060008FE501008FE501008FE501008FE501003C
:108070008FE501008FE501008FE501008FE501002C
:108080008FE50100E1B201008FE501008FE50100FD
:10809000C1B301008FE5010079DA01008FE501002D
:1080A0008FE501008FE501000000000000000000E6
:1080B00000000000000000000000000000000000C0
:1080C00010B5064C2378002B07D1054B002B02D0AE
:1080D000044800E000BF0123237010BDE820002009
:1080E000000000001CEE0100084B10B5002B03D06F
:1080F0000749084800E000BF07480368002B00D18B
:1081000010BD064B002BFBD09847F9E7000000009C
:10811000EC2000201CEE0100E82000200000000000
:10812000164B002B00D1144B9D46402292029A1A06
:10813000924600218B460F461348144A121A00F04B
:1081400067F80F4B002B00D098470E4B002B00D048
:1081500098470020002104000D000D48002802D09F
:108160000C4800E000BF00F02DF82000290000F0CE
:108170009DF900F011F8C046000008000040002002
:108180000000000000000000E8200020682C002013
:108190000000000000000000084B10B50400002B98
:1081A00002D0002100E000BF054B1868836A002B55
:1081B00000D09847200000F033F8C04600000000CF
:1081C000D4E801000E4B70B500251E000D4CE41ADA
:1081D000A410A54204D0AB00F35898470135F8E746
:1081E00006F06CFB084B00251E00084CE41AA41096
:1081F000A54204D0AB00F35898470135F8E770BDAD
:10820000E0200020E0200020E0200020E4200020EA
:1082100003008218934202D019700133FAE77047C5
:10822000FEE7C04676DF70477ADF70477CDF704735
:1082300060DF70473CDF704748DF7047002906D198
:108240008021A022064B4903D205D15070478021DE
:10825000A123A0224903DB00D205D150F6E7C04696
:108260000C05000010B50022002102F0D1FE10BD67
:1082700010B50438C0B282B00A2846D82D4B800011
:108280001B589F462C49002006F04AF96B46DC1D1E
:108290002100112002F0D2FF22782849002006F0A8
:1082A0003FF92378002B35D10021254805F028FD22
:1082B000082302009A4306D0224B984203D00022A2
:1082C000002102F0A5FE02B010BD1F4B132118883B
:1082D000FFF7A8FF082302009A43F4D0EFE705F068
:1082E000D1FAF7E7002000F07DFC002817D100F05C
:1082F000A3FE002818D1FFF79DFF0028E3D0DEE79A
:108300001249002006F00CF9DDE71149002006F0C3
:1083100007F9D8E701210A4805F0F2FCC8E7002276
:10832000002102F075FEE2E70022002102F070FE5B
:10833000E1E7C046D8E8010018E901002CE9010096
:10834000CC220020023000006420002004E901005B
:108350004CE9010010B5040002F0BCFA200005F061
:1083600067FA10BD10B5101E03D00022002102F0E4
:108370004FFE002010BDC04610B50378002B00D082
:1083800010BD064B3B211888FFF74CFF0028F7D0A3
:108390000022002102F03CFEF2E7C04664200020EB
:1083A00010B5040004F028FC1F49002006F0B8F8BE
:1083B000200004F029F81D49002006F0B1F8200043
:1083C00000F048FE1A49002006F0AAF82388102B76
:1083D0001BD0112B05D10122164B52421A8002F0FC
:1083E00013FF1549002006F09BF8200005F0AAF9BC
:1083F0001249002006F094F82100114805F05EFBB8
:108400001049002006F08CF810BD072000F0EAFBB0
:10841000002803D00022002102F0FAFDA288054BBB
:108420001A8002F0D9FEDCE764E901007CE9010072
:108430009CE9010064200020B8E90100C8E90100BE
:10844000CC220020E8E9010010B5002807D003285D
:1084500004D1013800F0C6FB00280DD110BD00206A
:1084600000F0C0FB00280CD100F0E6FD00280DD183
:10847000FFF7E0FE0028F1D00022002102F0C8FD45
:10848000ECE70022002102F0C3FDEDE7002200210D
:1084900002F0BEFDECE7C04610B50A00010002483C
:1084A00002F0B6FD10BDC046EFBEADDE70B5BA49F4
:1084B0009AB0002006F034F805F0A0FC0023B74A7B
:1084C0000521002003F0E2F9002800D05FE1B44A62
:1084D000B449032000F006FD002800D052E10CACA6
:1084E0002100002000F014FE002800D045E126788D
:1084F000AD49023E73425E41002006F011F80023B0
:108500004822AA490820F6B205F07CFA002800D0DB
:108510002EE1082200212000FFF77AFE01232278B5
:10852000200013432370FFF783FE002800D01AE1D8
:108530009F4805F08DFA002800D00FE19D4805F016
:1085400091FA002800D004E19B49002003AD05F01A
:10855000E7FF2E7002F0C8FA002800D0F4E02800EF
:1085600004F068FA002800D0E9E035200522002157
:108570006844FFF74DFE0123627921001A43E1238D
:108580001A400C231A43CD23134063710723A371B0
:108590000933E371894B8A480C930123237104F05A
:1085A000EDFA002800D0C5E08649002005F0B8FFAC
:1085B0000F2101222B78844E8B43134310220B4052
:1085C000134330002B7006F071F9310082B228009D
:1085D000FFF72CFE002800D0A7E008220021200091
:1085E000FFF716FE50232380503363800023A380BF
:1085F0009133FF332000E380FFF716FE002800D000
:108600008EE07249002005F08BFF38220021200007
:10861000FFF7FEFD022306222370013BA370238295
:108620006B4BE27000211E3228006361FFF7F0FD02
:1086300001232B7396235B002B61783B6B61002336
:108640002A0000930021634B200004F0BBFF0028A8
:1086500061D16149002005F063FF00210422200060
:10866000FFF7D6FD5D4B21005D480C9305F044FA01
:1086700000284BD15B49002005F052FF1C2200214D
:108680002000FFF7C5FDA02292026260F0220023C5
:108690001203A26003220C93E3812374524B200047
:1086A0006361524B2273A36103F072FE002828D14C
:1086B0004F49002005F034FF4E49002005F030FFFF
:1086C000032005F021F8002816D100244A49002093
:1086D00005F026FF494D22002900002005F020FF6B
:1086E000FFF7AAFD002801D10134F4E700220021A0
:1086F00002F08EFC0134EEE70022002102F088FC3B
:10870000E3E70022002102F083FCD1E700220021F0
:1087100002F07EFCAEE70022002102F079FC98E72F
:108720000022002102F074FC6BE70022002102F01D
:108730006FFC52E70022002102F06AFC34E70022BD
:10874000002102F065FC10E70022002102F060FC2D
:1087500005E70022002102F05BFCF5E60022002183
:1087600002F056FCEAE60022002102F051FCDFE6AE
:108770000022002102F04CFCCBE60022002102F096
:1087800047FCB4E60022002102F042FCA7E60022EA
:10879000002102F03DFC9AE600EA010004210020DD
:1087A00071820100CD0C000018EA0100EC220020CB
:1087B000A1830100558301002CEA010065830100BB
:1087C000E822002060EA01007CEA010090EA010052
:1087D0006020002049840100C0EA01003D820100C0
:1087E000CC220020F0EA01007983010065820100BB
:1087F0001CEB010050EB010060EB010090EB01006D
:10880000A02210B5064BD205D15880235B031C0073
:10881000A1208C430B400349C0001450535010BD9D
:10882000040500000C050000F8B54F46464604005C
:10883000C0B4102805D0112835D00CBC90469946FC
:10884000F8BD0026012911D000291FD00229F4D13A
:1088500073009E191D4B9E197578002DEDD01C4B91
:108860001B68002BE9D028009847E6E7174B7700F4
:1088700098464246BB19D55C43445B78002B14D123
:10888000BF194744BA78134B9A55E6E7124803F0EC
:10889000FFF80E4A73009B19D3180E4A9B78955D1A
:1088A0009D42CAD1D9E70126CCE70C4B0A4899462C
:1088B0000B4B4A461B689900C918490003F072F82F
:1088C0000028DDD14B461C70DAE7C046B0230020FB
:1088D00068230020642300206C2300205C230020F8
:1088E0006023002070B59C4B1B68DB0700D470BD73
:1088F0009A4B1C78172CFAD8994AA300D3589F4654
:10890000A022984BD205D15880231B031C00A12024
:108910008C430B409449C00014505350934B002299
:108920001B6893489900C91803F03CF8DFE7E02181
:10893000A123A0224903DB00D205D150D7E7A02212
:10894000884BD205D15880231B031C00A1208C43E7
:108950000B408549C00014505350844B00221968C5
:10896000834803F01FF8C2E7C022824B52031B6802
:108970007D499A43A023DB055A507A4A98588022B1
:10898000D202400300D5DCE05A500821774B002288
:108990001B687748594303F005F8A8E7C022754BD8
:1089A00052031B6870499A43A023DB055A506D4A55
:1089B00098588022D202400300D5C7E05A5028219F
:1089C000E4E7A023C021684ADB05490399508021D0
:1089D000043AC90299508AE7674D280003F058F815
:1089E00011231C1B00D197E0002800D094E08023C5
:1089F000604E5B033360012C10D0C83064216043AB
:108A000005F0C6FD594B00221B684343280019009E
:108A100002F0C8FFE02332685B031340A122A021CB
:108A2000D200C9058B5062E7524BA0211A68E0239F
:108A30005B0393434C4AC9058B5058E7C0224D4B0A
:108A400052031B6848499A43A023DB055A50454A04
:108A500098588022D20240036AD45A502821022C0E
:108A600094D1163992E7A02380213F4ADB054903C0
:108A70009950C021043A0903995038E7E021A02217
:108A8000394B4903D205D15031E73A4B36491A6880
:108A9000C0235B039343A022D20553508021A1231E
:108AA000C902DB00D15022E7C022324B52031B68BF
:108AB0002D499A43A023DB055A502A4A9858802210
:108AC000D202400301D5A121C9005A50274B0022F0
:108AD00019682748490002F065FF08E7C022254BC6
:108AE00052031B6820499A43A023DB055A501D4AB4
:108AF00098588022D202400301D5A121C9005A50C2
:108B00002BE7A023A021184ADB05490399508021B7
:108B1000043A09039950EAE6E023A020154A5B03D2
:108B20001168C0050B401049435000231360DEE676
:108B3000A121C9005A500421022C00D026E7023995
:108B400024E7A121C9005A5002211FE7A121C90031
:108B50005A5004211AE7C046542300208C230020D9
:108B6000A0EB0100040500000C05000060230020BC
:108B700034230020582300209023002010B50378D0
:108B8000102B02D0112B0ED010BD00235A00D31889
:108B9000064AD31858780028F6D0054B1B68002BDE
:108BA000F2D09847F0E7103BF0E7C046B023002032
:108BB000682300200023012802D900200B70704791
:108BC000A223A022DB00D205D258054B8000C0585A
:108BD0000123834093435A1E9341DBB2EDE7C04625
:108BE00064EC010070B5B64B04001B680020DB0785
:108BF00000D470BD172CFCD8B24AA300D3589F46AE
:108C0000A022B14BD205D15880231B031C00A12008
:108C10008C430B40AD49C00014505350AC4B002264
:108C20001B68AC489900C91802F0BCFEE1E7A0221D
:108C3000A54BD205D15880231B031C00A1208C43D7
:108C40000B40A249C00014505350A14B0022196898
:108C5000A04802F0A7FECCE79F4D280002F018FFC5
:108C600011231C1B00D109E1002800D006E180235C
:108C70009A4E5B033360012C10D0C83064216043EE
:108C800005F086FC924B00221B6843432800190024
:108C900002F088FEE02332685B031340A122A0218A
:108CA000D200C9058B50A4E7E021A022874BD20552
:108CB0004903D15012228A4B00201A7099E7A02351
:108CC000C021824ADB05490399508021043AC90238
:108CD00099501322824B00201A708AE7E021A123C9
:108CE000A022DB004903D205D1507D4B00201C702F
:108CF0007FE77A4BA0211A68E0235B039343734A12
:108D0000C9058B500022764B00201A7071E7C022F3
:108D1000724B52031B686D499A43A023DB055A50DE
:108D2000694A98588022D202400300D5BDE05A50CB
:108D30002821022C00D1C1E0694B1C70644B002239
:108D40001B686448594302F02DFE52E7E021A1233D
:108D5000A022DB00D2054903D1500C22604B002039
:108D60001A7046E7A023A021584ADB054903995011
:108D70008021043A090399501422594B00201A709B
:108D800037E7C022554B52031B6850499A43A02332
:108D9000DB055A504C4A98588022D20240037FD4B7
:108DA0005A50082103224E4B1A70C7E7C0224B4B82
:108DB00052031B6845499A43A023DB055A50424A97
:108DC00098588022D202400364D45A5028210422A9
:108DD000E9E7424B3D491A68C0235B039343A02255
:108DE000D20553508021A123C902DB00D1500722B4
:108DF0003B4B00201A70FCE6A0238021334ADB05A0
:108E000049039950C021043A090399501522344B63
:108E100000201A70EDE6C022304B52031B682B492C
:108E20009A43A023DB055A50274A98588022D20241
:108E3000400301D5A121C9005A500522284B2548DD
:108E40001A70234B00221968490002F0ABFDD0E6EE
:108E5000C022224B52031B681C499A43A023DB0506
:108E60005A50194A98588022D202400301D5A121B4
:108E7000C9005A5006221A4B1A70E6E6E023A024D5
:108E8000164A5B031168E4050B4010496350002348
:108E90001360AEE6A121C9005A500421042282E7E2
:108EA000A121C9005A5002217CE7A121C9005A50D2
:108EB0000421022C00D03FE702393DE716393BE799
:108EC0005423002000EC0100040500000C05000004
:108ED000602300203423002090230020582300200A
:108EE0008C2300201F4B10B519601F4B0400186025
:108EF0001E4B1A6083070ED50D221D4B1D481A709C
:108F00000132DA704A08022102F00CF900281CD064
:108F1000E30703D410BD0020E30709D5A023E02216
:108F20001549DB0552035A500C315A500028F1D133
:108F3000124A0021124802F01BFD0028EAD1114A12
:108F40000121114802F014FDE4E702F045F9002880
:108F5000DED10E4A00210E4802F00AFDE307DDD4FF
:108F6000E4E7C0466023002054230020682300204B
:108F7000B023002070EC01000C050000E588010022
:108F80006CEC01000188010080EC01007D8B010088
:108F900060EC010003000720012B00D97047012A73
:108FA0000ED0012912D0002916D0022906D158006E
:108FB000C3180D48C3185A700020EFE70720EDE7EB
:108FC00000220129EDD11A000D32D2B25800064913
:108FD000C3185A540020E1E75800C3180248C318C8
:108FE0009A700020DAE7C046B0230020E823A022D0
:108FF0000121DB00D205D358014001D0C0218902F4
:109000000B4A13400B43A022E821D205C90053505C
:10901000084BD2580223184001D0C0208002044BD4
:109020001340A0221843034BD205D05000207047B4
:10903000FFFFFCFF4407000010B50320FFF7D6FF39
:109040000023002802D00300062801D0180010BD1C
:109050000023FBE710B50388102B08D0112B05D196
:10906000294A1368013B1360002B07D010BD264C22
:109070002368002B11D001332360F7E7012202217E
:109080000020FFF787FF00282BD0072829D01F4B8F
:109090001B68002BEAD09847E8E701220021002056
:1090A000FFF778FF002808D0072806D0174B1B6869
:1090B000002B00D098472368DDE70722022101201A
:1090C000FFF768FF002801D00728EFD10422022112
:1090D0000020FFF75FFF0028EDD00728E6D12368C6
:1090E000C9E7072202210120FFF754FF002801D021
:1090F0000728CCD10A2200210020FFF74BFF0028CF
:10910000B4D00728C3D1B1E7BC230020B823002086
:1091100010B5234B82B00C1E186018D06B4600208F
:10912000991DFFF747FD002801D002B010BD6B4626
:109130000130D91DFFF73EFD0028F6D16B46DB79E3
:10914000002B26D16B469B79002B25D12370154B24
:109150001B68002B01D00020E7E70122022100203C
:10916000FFF718FF002801D00728DED107220221CF
:109170000120FFF70FFF002801D00728D5D10A22D0
:1091800000210020FFF706FF0028E4D00728CCD1FB
:10919000E1E702232370DAE70B232370D7E7C04609
:1091A000B8230020BC2300201D4B1B78012B00D0CE
:1091B00070471C4B1B681B07FAD1F0221A4B1B6827
:1091C000134018D1194B1B6813421CD0154B1B6858
:1091D0001B07EDD1F022144B1B681340402BE7D145
:1091E000124B1B681342E3D1C12380220121DB0013
:1091F000D205D150DCE7102B01D0302BEAD10B4B3C
:109200001B681342E6D10A4A0A4B1A6080220A4BB5
:1092100012021A60024B1B78012BD7D0C8E7C04658
:10922000E00F00F0E40F00F0E80F00F0EC0F00F0AA
:10923000DFFF07C004050040186C0040F0B50028AF
:109240001EDBFF261A4B37009C4603238208C025ED
:10925000C0B20340DB0089019F4031409940920039
:109260006244AD005459BC43214351511F23C021D6
:1092700018401E3B83400E4A490053501360F0BD16
:10928000FF250C4A2E00944603220F23C0B2024051
:10929000D20089019640294091400340083B9B0839
:1092A0009B006344DC69B4432143D961DEE7C046D7
:1092B00000E100E000ED00E0C12210B5514B92004A
:1092C0009A5884B092054CD54F4A1168002948D06D
:1092D000002111608121C2228900920099504B4BDC
:1092E0005A7D002A02D10121494A116002226946B1
:1092F0000A7090214348C90042584250694603927F
:10930000DA7C68460A72DA68196801920022DA7417
:109310005B6898473F4A1368002B10D03B4B188A74
:10932000997C814251D9002111601A8A9968895C1F
:109330001A8A013292B21A82374B324AD150374BD5
:109340001A68002A0BD000221A60304B5A7D002A7E
:1093500002D001212B4A1160DA7C002A44D104B0EA
:1093600010BDC123274A9B00D3585B07D2D52C4B95
:1093700019680029CED00021A3241960234BE400F2
:10938000187DD96812590A541A7DD87C0132D2B29C
:109390001A751A7D9042BDD15A7D002A02D1012052
:1093A0001B4A10608124C2221648A40092008450F7
:1093B0006C461A7D01202272002220700191DA741D
:1093C000196868465B689847A4E700201060002988
:1093D000B5D06A46107011729A6898741968019233
:1093E0005B6868469847AAE768461A7D01210272C1
:1093F000DA680170019200221968DA745B68984794
:10940000ADE7C0460020004024210040C0230020DA
:10941000042000401C2100401C05000044210040A5
:109420000821004070B54425164C0820635D002BD0
:1094300000D070BD4022FF21013BA3540132A15452
:109440000132A354236201326362A362E3622363A5
:109450006363A363E363FC390238A354236063604E
:10946000A360E36023616361A361E361FFF7E6FE4C
:109470008021C123044A9B000906D150012300200A
:109480006355D6E7D8230020006000404423034AF8
:10949000D05C431E9841C0B27047C046D82300201C
:1094A000F0B5474680B4524C0825231820331E7867
:1094B0007F2E03D8280004BC9046F0BDCD78AC4682
:1094C000002D36D02568013500D186E00423002622
:1094D0009846731C9D006759013733D0B31C9845DB
:1094E00025D99D00675901372CD0F31C98451ED90A
:1094F0009D006759013725D0331D984517D99D0028
:10950000675901371ED0731D984510D99D006759C2
:10951000013717D0B31D984509D99D006759013708
:1095200010D00736B04502D9E369013308D00425CD
:10953000C0E72569013555D0082304269846C8E7B9
:1095400007231C256251624627185EB220373E7001
:10955000002A02D1E3183C3318708B78002B14D109
:109560000300A0254A78C133FF3392009B00ED052C
:109570005A51CB78002B14D1A4193C340B782278A3
:109580009B0113432370002594E7A022D205944643
:10959000E025022783006344ED005A59BA435A512B
:1095A000E7E7144A0B789446A221B6006644C90046
:1095B0007458114A000222407250F82252011040A1
:1095C0000500C022180403002800920274581340BA
:1095D00018432043705000256CE7002522601D7061
:1095E0000026BAE7042522611D702E002B00B1E78A
:1095F000D823002000600040FFE0FCFF0023F0B50E
:10960000254C22182032D356032B18DDE3183C33A7
:109610001B789B09032B33D0012B3AD0C021890240
:10962000A023DB059C46E02380006044DB00C45897
:109630001A4A2240C250C2580A43C250F0BDD8B2A2
:109640000328FBD8164DA227AC460126980060449B
:10965000FF00C5593543C551180065460027403005
:10966000800080B247510029E8D0127852B29200AF
:109670001259002AE2D09E40C1239B00EE50DDE744
:10968000A223A022DB00D205D258012383401A4234
:10969000C4D180218902C3E7D8230020FFFFFCFF4B
:1096A0000060004010B5144B1B1820331B785BB2D0
:1096B000032B12DCDAB2032A0ED8104AA2249446F5
:1096C000012299006144E400085990439A40C22362
:1096D000085161469B00CA5010BDA023DB059C4683
:1096E000E02380006044DB00C158054A0A40C250B4
:1096F000C258C250F0E7C046D823002000600040A6
:10970000FFFFFCFFA222A0210300D200C905885858
:10971000D840012318407047F0B557464E4645469D
:10972000E0B4D24A00241368012B00D1BDE0D04B35
:109730001A68012A00D1C6E0CE4B1A68012A00D16E
:10974000D1E0CD4B1A68012A00D1DCE0CB4B0025DB
:109750001A68012A00D1E7E023070BD0E30700D500
:10976000F8E0A30700D504E1630700D50FE1230764
:1097700000D5E3E0002C04DB1CBC90469946A246D1
:10978000F0BD4023BE4CE1564B1C1ED0C9B2C023D5
:1097900008009843231820331B785BB29B001E59A6
:1097A000002E12D0A0230127DB059C46E023874032
:1097B00082006244DB00D35889099B039B0F3D4222
:1097C00000D10CE1022B00D170E14123E1564B1C8A
:1097D0001ED0C9B2C02308009843231820331B7839
:1097E0005BB29B001E59002E12D0A0230127DB057F
:1097F0009C46E023874082006244DB00D3588909FD
:109800009B039B0F3D4200D1D1E0022B00D141E1EF
:109810004223E1564B1C1ED0C9B2C0230800984316
:10982000231820331B785BB29B001E59002E12D0E8
:10983000A0230127DB059C46E02387408200624489
:10984000DB00D35889099B039B0F3D4200D1F5E013
:10985000022B00D124E14323E1564B1C00D18BE7BE
:10986000C9B2C02308009843231820331B785BB289
:109870009B001E59002E00D17EE7A0230124DB05AA
:109880009C46E023844082006244DB00D35889096F
:109890009B039B0F254200D1BDE0022B00D06BE75C
:1098A000032900D108E1B04766E7C1217548890066
:1098B00041580B4200D13AE76D4B14601A680134ED
:1098C000012A00D038E7C1226E499200895802224D
:1098D0000A4200D130E700211960664B14431A6830
:1098E000012A00D02DE7C12266499200895804223E
:1098F0000A4200D125E7002119605F4B14431A6822
:10990000012A00D022E7C1225E499200895808222C
:109910000A4200D11AE700211960584B14431A6813
:109920000025012A00D017E71D6080231B061C4379
:10993000A022A223D205DB00D5580DE7514A524B95
:10994000D058D1584E4B8903C004890FC00EDB6834
:1099500098470FE7A2234B4ADB00D058D158484B19
:109960008903C0041B68890FC00E9847A30700D461
:10997000FAE6464B434AD058D158414B8903C004BC
:109980005B68890FC00E9847630700D4EFE6A323F6
:109990003C4ADB00D058D158394B8903C0049B683E
:1099A000890FC00E9847230700D4E3E6C6E7032BD0
:1099B00000D02DE7032910D180239B029C46E02391
:1099C000DB009946324FD3581F404B46D750D758EB
:1099D00063463B431F004B46D750B04718E7032B65
:1099E00000D0F2E6032914D180239B029A46E0239B
:1099F000DB00D7589946B846254FBC4647466346D4
:109A00001F403B004F46D351D35957461F434B4647
:109A1000D750B047D9E6032B00D0ADE6032900D0DC
:109A200041E78027BF02E023DB00D458184D2540D2
:109A3000D550D4583C43D450B0479DE6032B00D0BA
:109A400009E7032910D180239B029C46E023DB0019
:109A500099460F4FD3581F404B46D750D7586346AF
:109A60003B431F004B46D750B047F4E6006100402F
:109A700004610040086100400C6100407C610040CE
:109A8000D8230020006000401C05000014050000E1
:109A9000FFFFFCFF0329A0D1C0239B029C468EE759
:109AA0000329E1D1C0239B029C46CFE70329B0D113
:109AB000C0239B029A469AE7C027BF02B3E7C0467D
:109AC00029DF704728DF7047F0B5564644465F46A9
:109AD0004D46F0B4534E85B03478012C66D0002C3E
:109AE0004CD0022C15D0032C0CD14F4B1868FFF72B
:109AF000E9FF002806D0112860D108234B4A1168DD
:109B00000B43136005B03CBC90469946A246AB4659
:109B1000F0BD464B9A461B680393454B99461B780C
:109B20009D00ED188023AD005B0519694D442F6938
:109B30000904090C38009B4604F02AFD3A4B804684
:109B400018605B461969E888013F0904C019090CCF
:109B500004F01EFD80452CD00323039C9C435346F8
:109B60001C60344B1B68002B02D10233234241D0CE
:109B70000022314B1A7000F0F3FAC3E72F4B1C6040
:109B80002F4B1C602A4B5A78002ABBD01A789100C0
:109B90008A1892009B18D9882A4A1B791160032BD6
:109BA00025D0042B23D0012BACD1337000F07AFCEC
:109BB000A8E70123039A9A431443D0E71C4D2B785E
:109BC0009C00E3189C002A19140053691179D2688B
:109BD0000C345500AA181B4D92002D6800951A4DA3
:109BE000555902002000A847042333708AE700F08B
:109BF0002DF887E7104A40461370FFF763FF0028EF
:109C000000D17FE7112804D108231C4353461C6070
:109C100078E74B461B789C00E4184B46A4001A19C1
:109C2000D2E7C046FA240020EC24002008250020BA
:109C300020240020FC240020FB2400200C250020F0
:109C4000F42400200425002010250020F0B55F46F4
:109C500056464D464446F0B45B4B5C481A78802625
:109C600091008A1892009B18DF681D697A00D2194A
:109C7000920082181489508952686043804690444B
:109C8000DA881B8914009946514B92469B46002363
:109C90005A467605316983B009044C441360090CB7
:109CA0002800641904F0FAFC00295CD133699BB2E6
:109CB0009A4542D0A04500D174E0032F3DD0280042
:109CC000316948440904090C04F0E8FC414B890857
:109CD000196031690904090C200004F0DFFC002937
:109CE00025D080256D0529692B696A46994643462A
:109CF000D380D08889B204F04BFC6A464B46A6B2AA
:109D0000D3800700D188300004F042FCBFB280B29B
:109D100087423DD02C692969300089B204F0BEFC2D
:109D20005B462404240C89B2641AA4081C60022235
:109D3000294B1A70FFF7C8FE0EE080235B051969F6
:109D400028000904090C04F023FC0322234B1860AB
:109D5000214B1A70FFF7B8FE03B03CBC9046994601
:109D6000A246AB46F0BD032FE7D028003169484436
:109D70000904090C04F092FC164B8908196031693A
:109D8000A045A7D10222144B1A70FFF79DFEE3E70E
:109D9000434624041B041B0C240C1C1B5B46A40818
:109DA0001C60C4E74B46002BC7D0032FC5D028004A
:109DB000316948440904090C04F070FC054B89081A
:109DC00019603369B3E7C046202400201025002025
:109DD000F0240020FC240020FA240020EC240020A1
:109DE000082170B50C00244A82B013681C4009D0C9
:109DF0008B431360214B224A1B789B009B5898474A
:109E000002B070BD1F4D2B789800C31898002A1817
:109E1000117904292AD010005369D2680C305600F9
:109E2000B218194E920036680096184E96590022C4
:109E3000B04702212A7893009B189B00EB181C71F5
:109E4000DC80D9601C615C611C816B780132013B54
:109E5000D2B26B700A2A06D02A7000220C4B1A70FC
:109E6000FFF732FECCE700232B70F6E70122084B08
:109E70001A70FFF729FEC3E708250020FB24002005
:109E800084EC01002024002004250020102500205F
:109E9000FA240020802230B55205234B14691B6838
:109EA0002404013B240C5C43204B83B05869431CC1
:109EB00037D011690904090C04F06AFB80235B05A3
:109EC00019691B4B09040138090C41431A68200029
:109ED000FFF7F6FD002806D0112806D10823154A01
:109EE00011680B43136003B030BD134D2B789C00F9
:109EF000E3189C002A19140053691179D2680C34B4
:109F00005500AA180D4D92002D6800950C4D55591D
:109F100002002000A84704220A4B1A70FFF7D4FD64
:109F2000E1E75069CAE7C046EC24002000100010A9
:109F3000FC240020082500202024002004250020E7
:109F400010250020FA24002030B5244B83B0586936
:109F5000431C3FD080235B0519690904090C04F0F8
:109F600017FB8022520513691D4C116912690904FF
:109F700024681B0492B2090C01381B0C920861433F
:109F80005843FFF79DFD002806D0112806D108236D
:109F9000144A11680B43136003B030BD124D2B7887
:109FA0009C00E3189C002A19140053691179D268A7
:109FB0000C345500AA180D4D92002D6800950C4DDB
:109FC000555902002000A84704220A4B1A70FFF7D7
:109FD0007BFDE1E780235B055869C2E700100010B4
:109FE000EC24002008250020202400200425002047
:109FF00010250020FA240020F0B58027284C7F058A
:10A00000237839699A00D3189B00E3181A89DD88F0
:10A010001B69AD18ED18090483B0090C280004F081
:10A020003DFB204B0E005869431C37D039690904A9
:10A03000090C04F0ADFA80235B051B69411E1B046B
:10A040001B0C5943184A891912682800FFF738FD7C
:10A05000002806D0112806D10823144A11680B43A2
:10A06000136003B0F0BD2578AB005D19AD00621937
:10A07000140053691179D2680C345500AA180C4D9C
:10A0800092002D6800950B4D555902002000A847FD
:10A090000422094B1A70FFF717FDE2E77869CAE757
:10A0A0002024002000100010F024002008250020AB
:10A0B0000425002010250020FA240020082330B5B4
:10A0C0001F4D83B02C68234214D1A30702D501236E
:10A0D0001C432C6002221B4B1A701B4B1868FFF7A5
:10A0E000F1FC002804D011280DD108231C432C605A
:10A0F00003B030BD9C43134B144A1B782C609B006B
:10A100009B589847F4E7124D2B789C00E3189C006D
:10A110002A19140053691179D2680C345500AA1811
:10A120000C4D92002D6800950B4D555902002000F2
:10A13000A8470422094B1A70FFF7C6FCD8E7C046AF
:10A1400008250020FB240020EC24002084EC0100E2
:10A15000202400200425002010250020FA240020BF
:10A1600030B5224B83B05869431C3BD080235B053C
:10A1700019690904090C04F00BFA802252051369CD
:10A1800011691B041B0C013809045843090C04F025
:10A19000FFF9FFF797FC002806D0112806D1082305
:10A1A000134A11680B43136003B030BD114D2B7877
:10A1B0009C00E3189C002A19140053691179D26895
:10A1C0000C345500AA180C4D92002D6800950B4DCB
:10A1D000555902002000A8470422094B1A70FFF7C6
:10A1E00073FCE1E780235B055869C6E700100010A7
:10A1F0000825002020240020042500201025002010
:10A20000FA240020082370B52B4D82B02C6823421D
:10A2100009D09C43294B2A4A1B782C609B009B58F1
:10A22000984702B070BD0122244B1A70254B586923
:10A23000431C3CD080235B0519690904090C04F018
:10A24000A7F98022520513691F4E1169126909048A
:10A2500036681B0492B2090C01381B0C920871433A
:10A260005843FFF72DFC0028DBD0112803D1082329
:10A270001C432C60D5E7154D2B789C00E3189C00FF
:10A280002A19140053691179D2680C345500AA18A0
:10A290000F4D92002D6800950E4D5559020020007B
:10A2A000A84704220C4B1A70FFF70EFCB9E7802375
:10A2B0005B055869C5E7C04608250020FB2400203F
:10A2C00084EC010000100010EC2400202024002069
:10A2D0000425002010250020FA240020F0B54D466A
:10A2E00044465F465646F0B4644B85B01D689846B8
:10A2F00008231A002A40914600D076E0604F3C784F
:10A30000A30003931B199B00FB181A69561EDA88D9
:10A310001B89B618F61880235B051969594B1B6811
:10A320009A46002B44D1584B1B689B4680235B0503
:10A33000196930000904090C04F02AF9834566D331
:10A3400053465CD0002B5CD1039B9C466444A40024
:10A350003A19117904296CD010005369D2680C3075
:10A360005400A218494C920024680094484C145997
:10A370000022A04751463A7893009B189B00FB1897
:10A3800019715146D9800221D9605146196159612C
:10A39000514619817B780132013BD2B27B700A2A87
:10A3A0004DD03A7000223B4B1A70FFF78DFB15E041
:10A3B000354B09041B68090C30009B4604F0E8F893
:10A3C0005845B3D14A46344B1A6001231D434346D6
:10A3D0004A461D60314B1A70FFF7C2FE05B03CBC07
:10A3E00090469946A246AB46F0BD9D4343461D604C
:10A3F0002A4B2B4A1B789B009B589847EEE7002B73
:10A4000005D00322254B1A70FFF7F6FDE6E7002280
:10A41000214B58461A60214B02321A70FFF752FB4B
:10A420000028DBD011280DD108231D4343461D60B1
:10A43000D4E70122174B1A70FFF746FBCEE7002343
:10A440003B70AFE73B789A00D2189200BC18270007
:10A45000E268636921795400A2180C4C0C37246817
:10A46000920000940A4C145902003800A0470422BC
:10A47000084B1A70FFF728FBB0E7C04608250020FC
:10A4800020240020F0240020EC24002004250020BB
:10A4900010250020FA240020FC240020FB240020AA
:10A4A00084EC0100F0B54F464646C0B48027444EC8
:10A4B0007F0534783969A5002B199B00F318DA88D9
:10A4C00089B283B08A421AD8188959691B699208DF
:10A4D000C018FFF7F5FA002806D011282FD108235D
:10A4E000384A11680B4313602C19A4003419E28810
:10A4F000354B1A6003B00CBC90469946F0BD3D69DF
:10A5000059692D042D0C551B18893A691B6992B2A3
:10A51000C018920849194019FFF7D2FA002806D04E
:10A5200011282BD10823274A11680B43136080237D
:10A530005B051B69244A1B041B0C1360DAE73778A0
:10A54000BB00DF19BF00F219536911791700D268F7
:10A55000994653009C461D4B62441B689200009331
:10A560001B4B0C37D3580200984638004B46C04767
:10A570000422184B1A70FFF7A7FAB5E73478A30046
:10A580001C19A4003219140053691179D2680C34D3
:10A590005500AA180D4D92002D6800950C4D555987
:10A5A00002002000A84704220A4B1A70FFF78CFA19
:10A5B00080235B051B69044A1B041B0C136099E78D
:10A5C0002024002008250020F42400200425002059
:10A5D00010250020FA240020F0B546464F460823F7
:10A5E000C0B4704E83B0346823426DD16E4B1A688C
:10A5F000571C1F606D4B1D68002D28D16C4B1D78BA
:10A6000099468023A80045195B051969AB00984657
:10A610004D4645442B690904581EEB88090CC018A7
:10A620002B89C01803F0B4FF874265D3614B60D01B
:10A630001F68002F00D17BE001231A00224050D177
:10A640001C435D4B34601A70FFF78AFD44E004211F
:10A65000594B197080235B051F693F043F0C57431A
:10A66000564A5069421C42D019690904090C03F08A
:10A670008FFF80235B05196901380904090C4143E8
:10A680002A003800FFF71CFA002825D011284BD0EB
:10A69000474D2B789C00E3189C002A19140053693D
:10A6A0001179D2680C345500AA18454D92002D68D6
:10A6B0000095444D555902002000A8470422424B02
:10A6C0001A70FFF701FA07E09C433B4B3F4A1B78A7
:10A6D00034609B009B58984703B00CBC9046994649
:10A6E000F0BD0322344B1A70FFF786FCF4E758697B
:10A6F000BFE71B68002B9FD102222F4B38001A7036
:10A70000FFF7E0F90028E7D011280DD04B461B7861
:10A710009A00D2184B4692009D182A000C32140061
:10A720006B692979EA68BEE708231C433460D3E7E4
:10A73000297904292CD042464A440C321000EA6898
:10A740006B695400A2181E4C9200246800941D4CA2
:10A7500014590022A0474B4602211A7893009B18F7
:10A760009B004B44D9601F71DF801F615F611F81B7
:10A770004B4649465B780132013BD2B24B700A2A04
:10A780000CD00A700022104B1A70FFF79DF9A3E756
:10A7900001220D4B1A70FFF797F99DE700230B700C
:10A7A000F0E7C04608250020EC240020FC2400200F
:10A7B00020240020F0240020FB24002000100010A2
:10A7C0000425002010250020FA24002084EC01003C
:10A7D00030B5154B83B01868FFF774F9002806D020
:10A7E000112806D10823114A11680B43136003B0E6
:10A7F00030BD0F4D2B789C00E3189C002A191400E3
:10A8000053691179D2680C345500AA18094D920089
:10A810002D680095084D555902002000A8470422D4
:10A82000064B1A70E3E7C046EC2400200825002000
:10A83000202400200425002010250020FA240020D8
:10A84000F0B557464E464546E0B4984608AB1B88DF
:10A8500094469A461C4B04245F781E000A2F2DD084
:10A860001B78FC18092C00DD0A3C142254433419CF
:10A8700020716046606120000C30914624C924C0DC
:10A8800041465246E18022810024104A0137117866
:10A890007770A14212D14D465D437319D8880C4997
:10A8A0001B790860032B07D0042B05D0012B05D1A1
:10A8B0001370FFF7F7FD01E0FFF7C8F920001CBC9B
:10A8C00090469946A246F0BD20240020FA2400209C
:10A8D00004250020F0B546464F46C0B4764C04250A
:10A8E000237883B01A000600AA4312D0022815D09C
:10A8F00003280ED1082071490A6810425DD0022B4E
:10A9000054D0032B01D0012B03D182430A60FFF7FF
:10A91000DBF803B00CBC90469946F0BD022B45D045
:10A92000032B59D0012BF4D10821644A1368194232
:10A9300000D095E0624D2B789800C3189800614BC9
:10A940002A181F68D388DF1BBFB2D780002F00D022
:10A950008BE0536911791000D268994653009C46E8
:10A96000594B62441B6892000093584B0C30D358EB
:10A97000002298464B46C0472A7893009B189B00BC
:10A98000EB181F71DF80DE601F615F611F816B78D4
:10A990000132013BD2B26B702A700A2A01D1002326
:10A9A0002B7000232370FFF78FF8B2E7484B494A1A
:10A9B0001B789B009B589847ABE747490A680132D0
:10A9C0000A60032A54D0022BA1D1414B434A1B7881
:10A9D0009B009B5898479CE70821384A1368194206
:10A9E0003ED13F4B364D1A682E78571C1F6080238E
:10A9F0005B051969B30098469B199B00EB181A690F
:10AA00000904501EDA881B898018C018090C03F04D
:10AA1000BFFD874200D27AE749D04644B600AA1962
:10AA2000117904293ED0AE1930005369D2680C3038
:10AA30005600B218244E920036680096234E96595E
:10AA40000022B047002102202A7893009B189B0027
:10AA5000EB181971D980D86019615961198196E78D
:10AA60008B431360FFF730F853E7FFF71BFD50E708
:10AA7000134803789A00D3189A00861832000C32D3
:10AA80001000F268736931795600B2180E4E9200C8
:10AA9000366800960D4E96590D22B0472570FFF787
:10AAA00013F836E701232370FFF70EF831E70D4B5B
:10AAB0001B68002BB1D12AE7FA24002008250020CA
:10AAC00020240020F424002004250020102500204C
:10AAD000FB24002098EC01000C25002084EC0100F0
:10AAE000EC240020F024002010B500202C240022AB
:10AAF0000221484B18551434185502341A530234A5
:10AB00001A531034185502341A530234D960187687
:10AB1000196259639964D9651A705A701A71DA808A
:10AB20001A615A611A815A835A629A629A83DA8543
:10AB30009A63DA631A86DA641A651A665A661A53D1
:10AB40001034185502341A5302341A53103418555D
:10AB500002341A530634195104341A5104341A5168
:10AB60000C3C1A531034185502341A530634195138
:10AB700004341A5104341A510C3C1A531034185529
:10AB800002341A530634195104341A5104341A5138
:10AB90000C3C1A5310341855BA201A52063019506A
:10ABA0001967C2315A5004315A500C395A679A67A2
:10ABB0005A52194B1A80194B5869431C25D08023CF
:10ABC0005B0519690904090C03F0E2FC80235B05AD
:10ABD0001B6903381B041B0C5843114B00211860E0
:10ABE0000023104A002013600F4A13601381538121
:10ABF000D3609382D3820D4A11700D4A13600D4ABF
:10AC0000136004220C4B1A6010BD80235B05586949
:10AC1000DCE7C04620240020F824002000100010AB
:10AC200000250020EC24002010250020FA2400201C
:10AC30000C250020F424002008250020F8B54F46FC
:10AC40004646C0B4314B04001B680D0008205B076A
:10AC500003D40CBC90469946F8BD002C52D0002974
:10AC600050D02368002B4DD0802252051369A6884E
:10AC70009BB201389E42ECD80F2EEAD9E388002B14
:10AC8000E7D0734399462249224B0F68586988469A
:10AC9000B944431C38D011690904090C03F078FC4D
:10ACA00080225205136901381B041B0C4343072003
:10ACB0009945CED8B307CCD1174B03381E88994697
:10ACC000022EC6D00C23C0C5734314482568C11892
:10ACD0004F601D50A58801360D81E088488168438A
:10ACE000136911699BB2C018013889B2146903F065
:10ACF000D9FC4346A4B26043C7191F604B460020ED
:10AD00001E80A6E70E20A4E75069C9E708250020A9
:10AD10000025002000100010F8240020102500203D
:10AD2000F0B5134B1C680823640701D41800F0BD6C
:10AD300000281BD0002A19D00468013B012CF5D84B
:10AD400065000C4E2D19AD00AF59002FEED07519CE
:10AD50002E89406871430918688946436868361827
:10AD6000B142E3D2146051600023DFE70E23DDE738
:10AD70000825002010250020F0B5474680B41F4C60
:10AD80000500246882B00820640703D402B004BC24
:10AD90009046F0BD00292FD0002D2DD02C68013811
:10ADA000012CF3D867003C19154EA400A759002FB9
:10ADB000ECD06F683419BC4626896789B046774362
:10ADC0006668BC19A445E1D2002ADFD09045DDD3E6
:10ADD000D418A045DADB09308C07D7D103242342ED
:10ADE000D4D166462642D1D100930F3813000A0011
:10ADF0002900FFF725FDC9E70E20C7E70825002039
:10AE000010250020F0B5474680B41F4C050024688B
:10AE100082B00820640703D402B004BC9046F0BDA1
:10AE200000292FD0002D2DD02C680138012CF3D80B
:10AE300067003C19154EA400A759002FECD06F688D
:10AE40003419BC4626896789B04677436668BC19C1
:10AE5000A445E1D2002ADFD09045DDD3D418A04527
:10AE6000DADB09308C07D7D103242342D4D16646DC
:10AE70002642D1D100930C3813000A002900FFF7B5
:10AE8000DFFCC9E70E20C7E70825002010250020B9
:10AE9000F0B546464F46C0B41600284A0500126871
:10AEA00083B00C000820520704D403B00CBC9046B9
:10AEB0009946F0BD00293ED0002D3CD00A680138EB
:10AEC000012AF2D81E49894651008A184946920043
:10AED00089580029E9D061684A448C46118988461E
:10AEE00047465189526879438A189445DDD2002E2D
:10AEF000DBD0B045D9D3F2189045D6DB0930AA078C
:10AF0000D3D103221342D0D1614611408846CCD11F
:10AF1000634419003200280003F0BFFC0C232268B0
:10AF2000009653434A462000D65802212B00424641
:10AF3000B0474046B9E70E20B7E7C04608250020D5
:10AF400010250020F0B546464F46C0B4244B83B0D0
:10AF50001B6805000E0008245B0705D4200003B021
:10AF60000CBC90469946F0BD002836D00368013CE1
:10AF7000012BF3D85900CB181A4A9B009958002985
:10AF8000ECD0D3181A895F894168574358688846BE
:10AF90003F189146B942E1D20B0009349B07DDD13D
:10AFA000081A110003F07AFB093C0029D6D1494662
:10AFB000300003F073FB89B20029CFD1002ECDD031
:10AFC0004346F3189F42C9D3002233000092290060
:10AFD0000320FFF735FC0400C0E70E24BEE7C0469F
:10AFE0000825002010250020074B1A680823520767
:10AFF00001D418007047002804D0044B5B7803602C
:10B000000023F6E70E23F4E7082500202024002083
:10B01000BFF34F8F024A034BDA60BFF34F8FFEE757
:10B020000400FA0500ED00E0F0B54E4657464546EF
:10B03000E0B4214B1978994600292AD01F4B0025EE
:10B0400098461F4B1F4F01269A4603E00135EDB28B
:10B050008D421ED243461B6832009C46EC0064447D
:10B0600020783B6882401342F0D093433B60FEF768
:10B0700049FB330022785146934009680B40010098
:10B0800091408B420AD04B4601351978EDB28D4282
:10B09000E0D31CBC90469946A246F0BD6368002BE5
:10B0A000F1D0617801394C424C41211A4C424C415B
:10B0B0001000E1B29847E6E7302500202C2500205B
:10B0C0005425002058250020F8B5124D070028000F
:10B0D00000F0DEFC002807D10124BC400E4E33688E
:10B0E000234202D0A3433360F8BD3800FEF70AFBC9
:10B0F0000A4A136800280BD02343136033680022E8
:10B100001C43074B28001968346000F04BFCEBE748
:10B11000A343F2E7342500205825002054250020C1
:10B1200028250020F0B54F464646C0B4140007005D
:10B1300083B00E000720042A04D803B00CBC90464C
:10B140009946F0BDFEF7A2F900282FD01A4B1B4AF2
:10B150001F601B4B751E1E701A4BEDB21C60002346
:10B160001360194A1360002E1AD0184B01AC99468F
:10B1700003230026984600E01D004246EB00FB1822
:10B180002270A670E6709A781878627021004A469C
:10B19000FEF786F90028D0D16B1EDBB2002DEBD173
:10B1A0000B4A00210B4800F0E3FBC6E7FEF73AF933
:10B1B0000028CBD0C1E7C0462C2500205425002014
:10B1C000302500202825002058250020C9B0010086
:10B1D00029B00100ACEC010070B5094D2B78002BB3
:10B1E0000BD00024074E3268E300985C0121FEF783
:10B1F00005FA2B780134A342F5D8002070BDC04673
:10B20000302500202C25002070B5094D2B78002B0F
:10B210000AD00024074E3268E300985CFEF742FA39
:10B220002B780134A342F6D8034800F031FC70BDFE
:10B23000302500202C2500203425002070B5094B36
:10B24000C0001C680D0024182078FEF75BFA6278B5
:10B25000013A53425A41131A5842434100202B707D
:10B2600070BDC0462C25002080218023184A890209
:10B27000D1508022D221174B520289005A504039B6
:10B280005A5001222F205A600138C046C046C0469D
:10B29000C046C046C046C046C046C046C046C0467E
:10B2A000C046F1D19A6000230B4A2F201360013869
:10B2B000C046C046C046C046C046C046C046C0465E
:10B2C000C046C046C046C046F1D1044A137070471C
:10B2D00000E100E0001001405C2500207C250020FA
:10B2E000A021F0B5002347462C4A490080B45350B2
:10B2F0000431535004315350043153504C3953509E
:10B3000004315350264B1B68002B37D025490026AB
:10B3100052582549254F0C68141B00222402240A88
:10B32000904602E0002D1AD02B001A68A24216D8CF
:10B33000A41AB6181A7CDD69002AF3D0424699692E
:10B340001A745A693B68002B1BD0100098470028DC
:10B35000E8D000220021FFF75BFE002DE4D1144B62
:10B3600014491A780B789A420ED0134A9B009E50CB
:10B3700080218023114A49035B00D15004BC9046D0
:10B38000F0BD08009047CDE70132D3B2022B01D0C7
:10B390000B70EAE700230B70E7E7C046001001409E
:10B3A00060250020040500005C25002064250020A5
:10B3B00070250020712500207425002000E100E0A8
:10B3C000F0B55F4656464D464446F0B4C54BC64AB6
:10B3D0001B68C6498BB0059309781378994200D150
:10B3E00057E10133DBB2022B00D100231370C04AB6
:10B3F0009B009B58BB4A9A46059B53441B021B0A61
:10B40000136001230193BB4B00241B689B46BA4B7E
:10B410005A461B78914619000393B84B88461B681F
:10B4200047460493AF4B013F1B680793B44B1B780F
:10B43000099300239C4606930893FBB26646984600
:10B44000FF2B32D04346D800049B9C461300604437
:10B450000178457800961A00A9421FD046684A0034
:10B46000B446521886780131D200C9B262448E4285
:10B4700000D1EDE01678022E00D1C7E0032EEAD10C
:10B48000002BE8D01C74DB69002BFBD1013345781D
:10B490000093002399461A00A942DFD14746013F95
:10B4A000FBB2009E9846FF2BCCD1089BC846029267
:10B4B000B446002B00D0F0E0069B002B02D0894B55
:10B4C000079A1A606346002B02D04246894B1A60E5
:10B4D000019B002B00D02DE15B46029A00259B1AB0
:10B4E0005A1E9341DBB205937E4B00271B680299DD
:10B4F0009C46804B1B689B46814B1B780693002320
:10B500000193804B994601230093039B013BDBB2DF
:10B510000393FF2B00D1F9E0049ADB0092460E0062
:10B520009A44002D28D06A68A9682C00ED6963460A
:10B53000D31A1B021B0A4B4552D86A4612785B1875
:10B5400023606760A7602274E761002E58D03168DD
:10B550003000994205D3B9E01168994200D3A3E0C5
:10B560001000C2695B1A002AF6D1E2613200236042
:10B57000C4611600002DD6D153461A785B7831008D
:10B580009342C2D0514649685300884651469B18A1
:10B590000132D2B20A708978DB004344914200D173
:10B5A0009DE0197832000129E3D15C68227C904645
:10B5B000414632000029DCD19A686260D968A160F6
:10B5C0001869E0605B69A361069B002BAFD043461E
:10B5D000002263606346D31A1B021B0A4B45ACD999
:10B5E00063469A1A1202120A8A4264D28B1A6A4677
:10B5F000127823606760A7602274E761002EA6D1ED
:10B6000022000123A34601931600B3E75668002BDE
:10B6100030D09E421ED0009A1F00944602E096420F
:10B6200006D01700FA69002AF9D16246009212E7A3
:10B6300065460095BA420FD01568D269FA61002AB2
:10B6400016D013689C466544156045784B4602E762
:10B6500000210FE71A001F00DE69002E0CD0012523
:10B6600000951568D269B1463300FA61002AE8D125
:10B670004578F0E60023EEE60125234B9D6000951A
:10B6800006950025002307950135994608950995EB
:10B69000D2E700239A460193B5E66A462421521860
:10B6A000174B12781A7007E7C91A1160E26123601C
:10B6B0003200C4615DE76B461B7827606760A76056
:10B6C0002374E761002E9BD000233168CB1A3360CE
:10B6D00022000123E661A346019316004AE7524681
:10B6E00015705EE75C250020702500207125002084
:10B6F0007425002060250020682500206C2500208E
:10B7000072250020FEFF7F0000100140019B002BEE
:10B7100000D09DE0029B994236D1059B002B33D18E
:10B720000023534A13700BB03CBC90469946A24686
:10B73000AB46F0BD4F4B002418680025029B00214A
:10B740000026574615E01A68BA4200D984E0D86846
:10B75000BF1A89181E60DC69002807D0DD611D0052
:10B76000059A986052181202120A5A6023002000AB
:10B77000019C002BE7D1002C01D03E4B1860002328
:10B78000029301330593AFE6002900D15DE00B6819
:10B7900039489846394B3A4DC4583A4B2E781B6875
:10B7A000E11A0902090A0331002E2DD042468A42CD
:10B7B00000D20A00A820D21812022F49130AC00092
:10B7C0002E4D0B504A591B1B121B1202120A1B0250
:10B7D00003321B0A9A42A3D94B590B502F20013830
:10B7E000C046C046C046C046C046C046C046C04629
:10B7F000C046C046C046C046F1D180218023224ABF
:10B8000089025B00D1508BE78026D1277602BF00EA
:10B81000C651403FC651C02280271B4EBF02520076
:10B82000B7503760012606602F200138C046C04659
:10B83000C046C046C046C046C046C046C046C046D8
:10B84000C046C046F1D12E70B0E7FFF70DFD67E7A7
:10B850005A46084B1A605DE7BA46002C01D00549EC
:10B8600008605146521A1A600293012305933BE681
:10B870007225002060250020001001400405000012
:10B880007C2500205C25002000E100E0F8B54F4653
:10B890004646C0B40326350080460F001400994682
:10B8A00015400720002D03D00CBC90469946F8BDEA
:10B8B000002A44D0FFF7D8FC4A46224B80201A6069
:10B8C0002200214B18321E70204B62601C607B00EE
:10B8D000DB19DB00D218E260D318C0226361257047
:10B8E0006570A77025726572A77225746574A77458
:10B8F000C524FF21164B40031D60164B52001D70DE
:10B90000154BA4001D70154B98501A598A433F39A6
:10B910000A431A51A122186040461149D2008850AA
:10B92000C42080001C580F4A2240C0242402224315
:10B930001A500D4B0020CA580C4B1A60B4E7034B49
:10B940001A60B1E764250020682500206C250020DE
:10B9500060250020702500207125002000E100E016
:10B9600000100140FF00FFFF040500005C250020DF
:10B9700010B50B4B1B68002B0BD0002A07D00028FA
:10B9800005D0036808201C7C002C04D010BD0720C3
:10B99000FCE70820FAE759745A610020F6E7C04630
:10B9A0006C250020F0B5344B1C68002C06D0002814
:10B9B00004D00723042903D81800F0BD0823FBE7AF
:10B9C0004369002BFAD0437C012B44D000262B4B3B
:10B9D00010255B68DB05DB0D25D164196378A5783C
:10B9E0005F1CFFB2BD423AD02578BD4235D05D0024
:10B9F000ED186368ED009C4665440423002DDBD000
:10BA0000033B2B7068601E4B1E48C358E960AB6057
:10BA1000802180236A611C4A5B0049032E616770A4
:10BA2000D1500023C8E7103B5DB2002D19DBAD08F3
:10BA3000C035154FAD00ED5903273B40DB00DD401D
:10BA4000AB093B40DBB20025012BC6D00835032BE8
:10BA5000C3D00835C1E70E00B9E70423ACE70027DF
:10BA6000C2E70F25094FDBB2BC461D40083DAD08BB
:10BA7000AD0065446D68DFE76C25002000ED00E057
:10BA8000040500000010014000E100E018ED00E0B6
:10BA900010B52C4A03001168082000292AD0002B79
:10BAA00028D05A69002A25D000221A74264A083064
:10BAB0005268D205D20D1ED109184A788878541CD4
:10BAC000E4B2A04231D00878A0422CD050008218B5
:10BAD0004868D200844662440420002A0AD0023812
:10BAE000107053604C70802380210020174A490356
:10BAF0005B00D15010BD103A50B2002817DB80080F
:10BB0000C030124C8000005903242240D200D040A3
:10BB100082092240D2B20020012ACDD00830032A67
:10BB2000CAD00830C8E70420E4E70024CBE70F20A0
:10BB3000074CD2B2A4461040083880088000604408
:10BB40004068E1E76C25002000ED00E000E100E046
:10BB500018ED00E071DF704772DF704779DF7047E2
:10BB60007DDF704765DF7047F0B55F4656464D464E
:10BB70004446F0B485B09A460EAB80CB06001B88D5
:10BB800000919B463B8801930388002B63D00023E0
:10BB9000994602ABDD1C3B0000241700984603E0E9
:10BBA00033880134A3422CDD7368A1009C46042233
:10BBB000614403A802F071FE0022290003A8FFF7E8
:10BBC000D1FF002829D12B78BB42E9D14B46002B6D
:10BBD0002AD043461A88D3195B453EDC52442900DB
:10BBE00003A8FFF7BFFF002817D143462A781B8818
:10BBF0000134D31842461380012399463388A34267
:10BC0000D2DC4B464746002B25D03B88019A013BAE
:10BC10009B1A9BB20C20FF2B1AD905B03CBC904656
:10BC20009946A246AB46F0BD43461B88DA1902325C
:10BC30005A4512DC4246013369469BB21380524694
:10BC40000978D15443461A88013292B21A80C5E766
:10BC50001100524653540020DFE70C20DDE7C046B8
:10BC6000F0B55F4656464D4644460023F0B417886B
:10BC70001380436B87B006000D001400002B00D129
:10BC80009CE1022F00D891E11A7802230B70112158
:10BC9000238801339BB22380E954238801339BB26C
:10BCA0002380EA54238801339BB22380326B002A1D
:10BCB00000D170E019001231B94200D976E11121AA
:10BCC000E9542388013901339BB22380E954238846
:10BCD00001339BB22380D17BE954238801339BB28B
:10BCE0002380917BE954238801339BB22380517BCD
:10BCF000E954238801339BB22380117BE9542388C4
:10BD000001339BB22380D17AE954238801339BB25B
:10BD10002380917AE954238801339BB22380517A9E
:10BD2000E954238801339BB22380117AE954238894
:10BD300001339BB22380D179E954238801339BB22C
:10BD400023809179E954238801339BB22380517970
:10BD5000E954238801339BB223801179E954238865
:10BD600001339BB22380D178E954238801339BB2FD
:10BD700023809178E954238801339BB22380517842
:10BD8000E954238801339BB223801278EA54238834
:10BD900001339BB223802E22B25C002A00D00FE137
:10BDA0002D22B25C002A00D02CE1B278002A00D00B
:10BDB00055E1F278002A14D0D91CB94200D9F5E037
:10BDC0000221E9542388013901339BB22380E954CD
:10BDD000238801339BB22380EA54238801339BB22A
:10BDE00023807268002A15D0D91CB94200D9DDE041
:10BDF00002211278E9542388083101339BB2238051
:10BE0000E954238852B201339BB22380EA54238839
:10BE1000013323803389002B00D09BE1338A002B30
:10BE200000D0B1E1338B002B00D0C7E1336A002B87
:10BE30004BD022880C20911D9346B94200D9B6E020
:10BE4000198805388A46052900D8B0E0BB496A46FA
:10BE50008C46D4446146D181D1898C46B849884604
:10BE60008C4500D8A3E059888C46052900D89EE06F
:10BE7000B2496144D18189B2414500D897E0B149C6
:10BE80008A4504D08C4502D0E24500D98FE00521D7
:10BE90005A46A95422880D31013292B22280A95407
:10BEA0002288013292B222801988AA181170090AD8
:10BEB00051702288023292B222805988AB181970D0
:10BEC000090A5970238802332380736A9846002B2D
:10BED00030D09A882188131D5B180C20BB4266D88D
:10BEE000931CFE2B63D803326A54FF22238801334C
:10BEF0009BB22380EA544246238801339BB22380BD
:10BF00001288EB181A70120A5A70424623880233BC
:10BF10009BB223809288002A0CD04146896805385C
:10BF2000002944D0E81802F0B8FC434622889B88D8
:10BF3000D31823802C23F35C002B00D0B0E033789F
:10BF40000020002B33D032880720012A2FD02288EE
:10BF5000901CB8422AD8012B04D1737802339B1865
:10BF60009F4223D3023FBA1A04AF93B22818390074
:10BF700098463B80FFF7F4FD002818D13378022B58
:10BF800000D141E1012B00D1DEE043460821FE2B28
:10BF90000CD822885E1CAE542288013292B22280D4
:10BFA000A954228801329B18238000E00C2007B09E
:10BFB0003CBC90469946A246AB46F0BD002375E6D0
:10BFC000D91C0C20B942F2D80221E9542388103040
:10BFD00001339BB22380E854238801339BB2238032
:10BFE000022A00D10BE100D804E1032A00D109E1C3
:10BFF000042A00D0FCE00322EA54238801339BB2D8
:10C000002380CDE609330C20BB42D0D804A8FFF72B
:10C01000A1FD0028CBD1082223880921EA542388D6
:10C02000133201339BB22380EA5402AB9C46208832
:10C03000153A013080B220806144281802F02DFCAE
:10C04000238802AA0633127A9BB22380002A00D0EA
:10C050000122EA54238801339BB22380A5E60433EE
:10C060000C20BB42A3D804A8FFF778FD00289ED17E
:10C0700003222388EA542388163201339BB223809B
:10C08000EA54238802AA01339BB212892380EB1859
:10C090001A70120A5A70238802339BB2238088E6F2
:10C0A000B36A9846002B00D1A2E09B880233FE2B96
:10C0B00000D97BE70022914616329246163220883C
:10C0C00093460CE04B46B26A5B0090464B449B00A3
:10C0D000984443469B880233FE2B00D966E75246BC
:10C0E00001332B54238801339BB22380EA54424608
:10C0F000238801339BB223801288EB181A70120A2E
:10C100005A7043462088023080B220809A88002AE4
:10C110000BD0996800296BD0281802F0BEFB43466B
:10C1200020889B88C01880B220804B460133DBB248
:10C1300099465B46F35C4B45C4D800E77FF3FFFFAD
:10C140007DF30000FFFF00007378984500D31DE7E2
:10C1500043461BE708239846B044019700942B0000
:10C16000022202214046FFF7FFFC002800D01EE714
:10C17000019700942B00102206214046FFF7F4FCA3
:10C18000002800D013E749E610239846B0440197F1
:10C1900000942B00022203214046FFF7E5FC002813
:10C1A00000D004E7019700942B001022072140469D
:10C1B000FFF7DAFC002800D0F9E633E618239846AA
:10C1C000B044019700942B00022214214046FFF74F
:10C1D000CBFC002800D0EAE6019700942B00102247
:10C1E00015214046FFF7C0FC002800D0DFE61DE621
:10C1F0000720DCE6012AFBD10022EA54FDE60122F9
:10C20000EA54FAE6E954F8E63B880921984500D358
:10C21000BDE64346BAE6C04630B593B01F236A4632
:10C220000C009380D380002822D0C3785B071CD5F4
:10C2300001AA02A9FFF714FD02AD002816D1002CB7
:10C2400019D0E378002B10D16B460AA99A1D200063
:10C25000FFF706FD002809D16B469B790AAA6946BB
:10C2600028000979FFF778FC00E0072013B030BD03
:10C2700090800025E3E76B460022DC800023EEE798
:10C2800075DF704776DF70477ADF70477BDF704776
:10C2900010B5184B82B01888174B984214D0174A23
:10C2A000174C13780133DBB21370217B99420DD206
:10C2B00000231370237C002B12D16369002B03D061
:10C2C000002201A80270984702B010BD0D49FFF787
:10C2D000D7FF0028F8D0A369002BF5D09847F3E7E3
:10C2E0003B21FFF7CFFF0028E7D0A369002BE4D064
:10C2F0009847E2E7C8250020FFFF000088250020BE
:10C300008C250020CC25002030B51B4B1B4A5B88B8
:10C31000118883B099420FD852889A420CD3184B97
:10C320005B69002B03D0012201A802709847154CCD
:10C330000023237003B030BD124C2378002B08D0AB
:10C340000F4B5B69002BF3D0002201A802709847C5
:10C35000EEE70D4B0A4D1B78002B0BD0A96800228D
:10C360000A48FFF71FFB0028E2D0AB69002BDFD0A3
:10C370009847DDE76968F2E780250020CC2500209A
:10C380008C2500207D25002088250020A825002060
:10C39000164902000B0070B532CA32C332CA32C32A
:10C3A00012681A600022124B01681A70002916D018
:10C3B000104C0832200002F070FA2000FFF764FFF2
:10C3C00000280BD101220C4B52421A8000220B4B49
:10C3D00000211A700A480B4AFFF7CAFA70BD0548D7
:10C3E000FFF754FF0028EDD0F8E7C0468C25002069
:10C3F0007D250020CC250020C82500208825002090
:10C40000B0EC010091C2010010B50388112B35D0AA
:10C4100021D9122B17D0502B1CD1214CC288E38973
:10C420009A4217D1C38B022B14D11E33C35CDB0796
:10C430000ED41C48FFF72CFB00280BD0A369002B5F
:10C4400008D0984706E0811D0822174802F025FA17
:10C45000FFF75AFF10BD102BFCD101008288134B4F
:10C4600016311A801048082202F017FA0022104BE9
:10C470001A700B4BDB89002BECD1E9E701220B4B47
:10C4800052421A8000220A4B06481A70FFF700FB3E
:10C490000028DFD0024B9B69002BDBD09847D9E7FF
:10C4A0008C250020A825002080250020C8250020FC
:10C4B000882500207FDF704782DF7047A7DF704745
:10C4C000A9DF7047AADF704700207047002070473F
:10C4D00000207047334AF8B54F46914646464946D4
:10C4E000C0B443780700DA00D218920089184C686B
:10C4F000002C0DD058002C4EC11889007118897A73
:10C500004DB2002D1FDB002200250024904605E0DF
:10C510000022002500249046234E5800C3189B009B
:10C52000F318188922002B004146FFF7C9FF0B289A
:10C5300013D0002805D1012D1AD00CBC9046994685
:10C54000F8BD1A48F7E74906DDD4110008318846DE
:10C550004946C844A4B28D58E0E77B7841465A006A
:10C56000D3189B00F318188922000123FFF7A8FFB6
:10C570007B780C215A00D3189B00F61830890C4A9E
:10C58000FFF79CFF0028D8D002220A4BC318934320
:10C5900005D0082803D0112801D00020CDE703489A
:10C5A000CBE7C046EC260020F825002041800000A3
:10C5B000FFFF0000FECFFFFFF0B589B01A236A46E7
:10C5C00053804B782D4D5A00D3186A469B00EB18C8
:10C5D00006000C0018890232032301A9FFF772FF3D
:10C5E000002802D0002009B0F0BD6B465A8863785D
:10C5F000234FD800C3189B000833F81801A902F094
:10C600003DF9002827D06378D900CA189200BA18DB
:10C610005268002A30D11B4D0322CB189B00FA50E0
:10C620006B465A886378D900CB189B00FB185A6078
:10C63000637801A9D800C01880000830381802F0CB
:10C640002CF963782422D900C91889007918382375
:10C650003000A847C6E7627853009B189B00ED188E
:10C66000AB7A9B07BED4D0008018800038182422F3
:10C670000021FBF7CDFDB5E7034DCDE7F825002000
:10C68000EC26002079AD010005AE010070B5060072
:10C690004B780C4CD800C3189B000D00E0182422E6
:10C6A00038233100FEF7F4FB002807D16B78DA005D
:10C6B000D3189B00E3185A68013200D070BD58604F
:10C6C000FCE7C046EC260020F0B557464E464546EE
:10C6D000E0B44D4E1F00336890B0804689469246C4
:10C6E000002B46D0189B742B43D8484B6A460193C5
:10C6F00000231374189B099708930024444D02E00B
:10C700000134072C11D0A1B202AA2800FEF708FBC1
:10C710000028F5D1082202A9404602F0AFF800280F
:10C72000EED1E4B201ADAC7003E001ADAC78FF2C0A
:10C730001FD04B46032B2DD0364BFB1AC32B1ED9D3
:10C74000354BFB1A1B2B30D800236B700AAB0993B7
:10C750001823089308334A46022A4FD00222134373
:10C760006A46137407AB05935246336804A9280040
:10C77000984710B01CBC90469946A246F0BD53465F
:10C780002649002B0BD00B680122A24093430B607B
:10C790002023E0E7189B742B2ED04323E0E70122EF
:10C7A000A2400B681342E4D0EEE71D483B1A232B4E
:10C7B0000FD91C4B9F42F0D01B4BA200D3589F4275
:10C7C000D7D11A4BDA7A4023A242C4D100226A7030
:10C7D000C1E730236A46137400236B700133EB709A
:10C7E000124B9A7A30239207B5D424220021FBF70A
:10C7F0000FFD6B461B7CAEE72323B1E701221343F9
:10C800006A461374AEE7C0461427002000FFFFFFFE
:10C81000C826002004260020D02600201027002053
:10C82000EC260020ECED0100D4250020F8250020A6
:10C83000002070470020704700207047002070479C
:10C8400070B506004B780C4CD800C3189B000D0047
:10C85000E018242238233100FEF71AFB002807D104
:10C860006B78DA00D3189B00E3185A68013200D0C5
:10C8700070BD5860FCE7C046EC260020334AF8B58E
:10C880004F46914646464946C0B443780700DA0011
:10C89000D218920089184C68002C0DD058002C4EEC
:10C8A000C11889007118897A4DB2002D22DB00224F
:10C8B00000250024904605E0002200250024904633
:10C8C000234E5800C3189B00F318188922002B0030
:10C8D0004146FFF7F5FD0B2816D0002803D0012DA7
:10C8E0001DD01C4802E0012D19D000200CBC904640
:10C8F0009946F8BD4906DAD4110008318846494600
:10C90000C844A4B28D58DDE77B7841465A00D3185D
:10C910009B00F318188922000123FFF7D1FD7B78D3
:10C920000C215A00D3189B00F61830890A4AFFF7E9
:10C93000C5FD0028D9D00222084BC3189343D0D09C
:10C940000828CED01128D0D10248CFE7EC2600200D
:10C95000F825002041800000FFFF0000FECFFFFF10
:10C96000F0B589B01A236A4653804B782D4D5A0092
:10C97000D3186A469B00EB1806000C001889023297
:10C98000032301A9FFF79EFD002802D0002009B073
:10C99000F0BD6B465A886378234FD800C3189B00BC
:10C9A0000833F81801A901F069FF002827D063783F
:10C9B000D900CA189200BA185268002A30D11B4D0B
:10C9C0000322CB189B00FA506B465A886378D90033
:10C9D000CB189B00FB185A60637801A9D800C018D7
:10C9E00080000830381801F058FF63782422D900FD
:10C9F000C9188900791838233000A847C6E762783B
:10CA000053009B189B00ED18AB7A9B07BED4D00057
:10CA100080188000381824220021FBF7F9FBB5E7C5
:10CA2000034DCDE7F8250020EC26002079AD01006C
:10CA300005AE0100F0B55F4656464D464446F0B49B
:10CA400087B00190002800D170E00022404B012601
:10CA50001A605A729A7201233E48764283720732F4
:10CA600000210681C672FBF7D3FB242200213A483D
:10CA7000FBF7CEFB394B002599461C00384BFF27AE
:10CA80009846384B9B46384B9A4620000622002198
:10CA90001130FBF7BDFB102200212000FBF7B8FB93
:10CAA00001234246AB40126859469A43130042465E
:10CAB00013600022AB00CA5053465E5501352774FF
:10CAC000A77626831C34072DDFD1742302AA274EB4
:10CAD0009380274B31001000D5800293FEF7AEF80B
:10CAE00000281CD10123234F3B70019B1B78002B96
:10CAF0001ED100254C46A9B204AA3000FEF710F959
:10CB00008046031E1ED11C2204A92000FEF7C0F996
:10CB100000281AD101351C34072DECD1002007B0B4
:10CB20003CBC90469946A246AB46F0BD1248F6E79B
:10CB300002AB02AA9B88D1883000594389B2FEF724
:10CB400001FAECE700233B70E9E744463C70E6E776
:10CB500014270020F8250020EC26002004260020C1
:10CB600010270020D4250020F0250020C826002012
:10CB7000C9C60100F72500200E800000F8B5194B4A
:10CB800005001B780C00002B01D11748F8BD0028C8
:10CB90000AD0002908D00B68002B05D0134E376847
:10CBA000002F03D01248F1E71248EFE730000531BB
:10CBB00008C0052201F071FE012223790421B3721D
:10CBC000337AF079934302221343DBB28B433372FF
:10CBD00001230343DBB21A43D2B28A43F27100202D
:10CBE0002F70D3E7F72500200880000014270020CD
:10CBF000048000000E800000F0B54D465F465646AA
:10CC00004446FF22F0B4B44B8FB01B78050003926A
:10CC1000002B41D0B14B98461B68002B3CD004AC94
:10CC200005AE6270A270E270021D72602A220021BD
:10CC3000328102882170102A00D165E18188FF20AD
:10CC4000A74F8B46B97A8246880705D5A548834504
:10CC500029D03889584526D0113A92B2412A1BD89A
:10CC6000A1489200825897461322327000229346C0
:10CC70005A463100200098473378122B0CD1BB7AEA
:10CC8000012B09D00123BB72023B3B81FB720722BF
:10CC900000213800FBF7BCFA0FB03CBC9046994627
:10CCA000A246AB46F0BDF87A8246A07000206070C4
:10CCB000D2E742460120527A814682434046427280
:10CCC000042014228143B9723270AA79002A00D05C
:10CCD0009BE1EA7994460022934662461042C7D00F
:10CCE0005246FF2AC4D008221143EA7AB972920749
:10CCF0000AD5524651464846D200521A7B49920004
:10CD00008A18917E81439176FA7AFF2AAED03B78D9
:10CD1000022B00D19FE2754B524699465346DB00E9
:10CD20009B1A39689B004B441961B9889A7E998295
:10CD3000B979997502218A439A766A46534608ADB5
:10CD4000138011886A482A00FDF7EAFF002833D1D2
:10CD500063785A00D3189B00FB189B7A5B0600D4BB
:10CD600076E2644B9A46A1781C22CB00591A8900BE
:10CD7000494400232800D047002811D16178403071
:10CD80004B005B189B00FB189A7A82439A72CB0087
:10CD9000591A8B0058491C22C91828001C23D04757
:10CDA000237821005A00D3189B0043449B7A534AAE
:10CDB0009B009B5828009847434600221B689346D7
:10CDC00056E7AB79112B02D10B0700D598E18023F0
:10CDD0005B421943953333704346B9729B7A484A94
:10CDE0009B009B5820009847434600221B689346AF
:10CDF0003EE743469B7A424A9B009B582000984757
:10CE00004AE70222080008259043B8720D4000D17D
:10CE1000CDE042B2002A00DADCE11022BA7202321E
:10CE200032700022934623E71323337004231943FF
:10CE3000B972F97AFF2900D0A7E02C4B99469B7E66
:10CE4000FF2B00D149E236234A46D35CFF2B00D1A9
:10CE500045E25223D35CFF2B00D142E26E23D35C28
:10CE6000FF2B00D141E28A23D35CFF2B00D13AE2B1
:10CE7000A623D35CFF2B00D155E1C223D35C06224D
:10CE8000FF2B00D150E11F4B9B46CB00591A1A4B88
:10CE9000002208934346890049440B920C910D925D
:10CEA00009920A92A8881A1D002108ABFFF702FB1D
:10CEB000002800D0F0E643461B68D9E6FB7AFF2B3A
:10CEC00000D1B3E0094B0C4E994600234A4631008D
:10CED0005846FFF7F1FADFE6F72500201427002077
:10CEE000F8250020FFFF0000B4EC0100042600201C
:10CEF000C826002005AE0100D0260020BCED0100B0
:10CF0000DCED0100438000000122DE4F9246BB7A37
:10CF10001A4200D1C0E60223BB720F336170337036
:10CF2000838807223B81831D19003800994601F050
:10CF3000B4FC52462B7D1A4200D1C8E0D24A5B08AD
:10CF4000D35CFF2B00D142E10A22039399B2BA725B
:10CF5000FB7208AACD48A370FDF7E2FE002800D0BE
:10CF60002AE7607808A9C300181A8300C8481C2261
:10CF7000C0181C23FDF78CFF43469B7AC54A9B00D3
:10CF80009B58210008A8984716E71623C2481A2282
:10CF9000002108303370FBF73BF94023BA7AF97A65
:10CFA0001343BB7200239B46BC4B99466DE7524628
:10CFB000FF2A00D131E7B94B00219B46D3009B1AD1
:10CFC0009B009946584648440622D9441130FBF745
:10CFD0001FF9102200214846FBF71AF9FF234A46A1
:10CFE0001374937601224B46524250461A83012312
:10CFF0008340AB49A2700868984353460860990083
:10D00000A84BCD5043461B6807E76A46FB7A9F480A
:10D010001380118808AA9A46FDF782FE002800D1E5
:10D02000A2E0AB799B4643461B6821E69B4AEB890D
:10D030009146128B9A4200D15BE14A46928E9A4207
:10D0400000D154E150224846825A9A4200D158E118
:10D050006C22825A9A4200D151E18822825A9A4225
:10D0600000D14AE1A422825A9A4200D143E1C0226F
:10D07000825A00269A4200D027E706230822D8B217
:10D080001143F872B972A07099B208AA7F4803934D
:10D09000FDF746FE002812D160781C22C300181A42
:10D0A00083007B4808A9C0181C23FDF7F1FE434606
:10D0B0009B7A784A9B009B58210008A89847FB7AE6
:10D0C000FF2B00D01FE1AB8800269B46FDE6002326
:10D0D0009A463B0057469A46704D103507224946FE
:10D0E000280001F0CBFB002800D1E5E001371C351A
:10D0F000072FF3D14346002257461B689346B7E5F6
:10D1000065481A2200210830FBF782F81623337095
:10D110006023BA7A1343BB7243465A7A02231343FD
:10D120004246537248E605223B78022B00D1A2E02A
:10D13000D300991A890049440800103084463868A1
:10D1400008616046B9888180B9798171FD219B1A97
:10D150009B004B44997603AB1A70039BD9B2002312
:10D16000A170F9729B4690E6742108A8FDF7EAFECB
:10D170000090002800D054E7484B52469B46534647
:10D18000DB009B1A9B001800584406220021113036
:10D190000193FBF73DF8019B10229C46E3440021DC
:10D1A0005846FBF735F85A46FF2313749376013B34
:10D1B000FF3B138351464B468B40394A11689943D4
:10D1C00053461160374A00999B00995029E7FF2187
:10D1D0000A22BCE66A46534608AD138011882B48E4
:10D1E0002A00FDF79DFD002800D00BE763785A0068
:10D1F000D3189B00FB189B7A5B063FD52A4B9946B8
:10D20000A1781C22CB00591A8B0024492800C91888
:10D210000023C84700280ED10C22637840305A43BF
:10D22000BA18917A814391721C22534318492800FD
:10D23000C9181300C847237821005A00D3189B004F
:10D2400043449B7A194A9B009B5828009847D9E68B
:10D25000174B9A4687E5114B524699465346012192
:10D26000DB009B1A0A4A9B00528A4B441A839A7E1F
:10D270008A439A7661E5FE21D30068E70D4B994613
:10D28000BEE7C046F8250020F0250020C826002073
:10D29000D0260020CCED0100EC2600200426002042
:10D2A00010270020D425002005AE0100BCED0100B0
:10D2B00079AD0100C9C401005346BA461F00534668
:10D2C0006A4603935346137013780822B97A684666
:10D2D0000A4351460180018839E6002224E70122F1
:10D2E00022E7022220E704221EE703221CE7012393
:10D2F000C4E60023C2E60523C0E60423BEE60323FA
:10D30000BCE60223BAE6AB88014E9B46DDE5C0468B
:10D31000D026002073DF704774DF704770B59F4ED2
:10D3200086B0072200213000FAF772FF9C4C637828
:10D33000002B6ED09B4D2B78012B05D0A278002AB4
:10D3400000D1EFE0022B0FD1974A1268002A00D1DA
:10D35000FDE00121954B0820197090472B78012B97
:10D3600000D1F7E0022B5FD0227B002A01D1032BF2
:10D370007AD0227E002A02D1042B00D107E18A4A0A
:10D380001268002A02D0033B012B77D90022884B78
:10D390001A70182200216846FAF73AFF00236A46FD
:10D3A000137013722A7801930393022A00D18BE041
:10D3B00072D9032A00D194E0042A22D16B46A28BB1
:10D3C0001A82228C5A827B4B1A79002A00D1B6E04D
:10D3D0002278002A00D1B6E0774A1278002A00D0DD
:10D3E000B1E0694603930423023274480A720021B3
:10D3F000C370FEF711FF002864D10622704B1A702B
:10D400002A78002A51D1684B1B68002B56D1002086
:10D4100058E0A378634D002BA0D02B78022B93D03B
:10D42000012BA1D102232B70A378002B17D0737886
:10D43000002B00D0B0E0B378002B00D0ACE0F37844
:10D44000002B00D0A8E03379002B00D0A4E0737942
:10D45000002B00D0A0E0B379002B00D09CE0032388
:10D460002B70237B002B61D104232B70237E002B98
:10D4700000D18CE04C4B1A68002A87D02378002B0F
:10D4800084D04D4B1B78002B00D07FE70121484B07
:10D490000720197090477CE7012AB2D169464B8278
:10D4A0000B82474B01960A701A706846FFF732FFED
:10D4B000002807D13C4B1B68002BA8D0404A1078AD
:10D4C0009847002006B070BD012369460B706B467B
:10D4D000218901965982694663680B82384B1A701C
:10D4E000E3E76B46A28A5A82228A1A82314B1A7962
:10D4F000002A1DD02278002A1DD02F4A1278002A37
:10D5000019D169460393042302322C480A72002180
:10D51000C370FEF781FE0028D4D10522284B1A7073
:10D520002A786EE7022B00D01EE798E7032326E750
:10D530001A7B002ADED10322214B1A70B5E71A7B31
:10D54000002A00D044E704221D4B1A70ADE71749AA
:10D550000A7004E76278002A00D163E77278002A33
:10D5600000D00CE7B278002A00D008E7F278002A51
:10D5700000D004E73279002A00D000E77279002A4F
:10D5800000D0FCE6B279002A00D14BE7F7E6002391
:10D590000B4A2B701370F9E60223F0E69027002067
:10D5A0009827002030280020642700203128002000
:10D5B0000F280020E02700208B27002020270020B4
:10D5C00044280020F8B504000E000E20002C00D1E5
:10D5D0007BE0002A79D000203C4908703C490B6070
:10D5E00006993C4B19603C490B0023CA23C323CA4C
:10D5F00023C323CA23C3072200213848FAF708FEB1
:10D60000374B384A384D1A60384A00219A60280052
:10D610003822FAF7FDFD237822002B70A378103210
:10D62000AB70E378EB7063786B702B00103303CA38
:10D6300003C32B00103A083303CA03C32B0008327C
:10D64000183303CA03C3636A002B11D0284B294F38
:10D650006B62616A9F600A881A80888898800028B7
:10D6600006D000238A68D25CFA5401338342F9D190
:10D67000A36A002B14D0204B204FAB62A06A9F609E
:10D680008188998002881A800023002905D0826849
:10D69000D25CFA5401338B42F9D12C23E25CEA5478
:10D6A000236A002B06D0164B2B62226A51885980C0
:10D6B00012881A806368002B03D0124B6B6063687A
:10D6C0006B6031002800FEF7A7FDF8BD3028002070
:10D6D000642700208C270020982700209027002016
:10D6E000E0270020BC270020202700201028002051
:10D6F000582700206C27002038280020F027002021
:10D7000034280020DC27002010B500240B4B82B009
:10D71000187001A80194FDF767FC082809D00028BB
:10D7200005D1019B002B05D00122054B1A7002B0D8
:10D7300010BD0194FFF7F2FDF9E7C0463028002044
:10D740006827002030B5038883B0112B1ED0192B19
:10D7500007D0102B01D003B030BD82882D4B1A802A
:10D76000F9E78479002CF6D12B4B1D78022D4ED091
:10D7700038D9032D23D0042DEDD1284B1C70284B14
:10D780001B68002BE7D000209847E4E70024254BD6
:10D790001C70204B82881B889A42DCD101251E4BCD
:10D7A00001A81D700194FDF71FFC082824D0002853
:10D7B00027D1019B002B20D01B4B1D70CBE7174AB4
:10D7C0001570042201A81A700194FDF70DFC0828B9
:10D7D00012D0002815D1019B002B0ED00122124B34
:10D7E0001A70B8E7012DB6D1022201A81A7001946F
:10D7F000FDF7FAFB0828DAD10194FFF78FFD002826
:10D80000A9D00A4B1B68002BA5D09847A3E7032299
:10D81000D8E7C04666200020302800204428002099
:10D82000642700208B270020682700208C270020F9
:10D8300030B5023883B0012803D8104C2378002B70
:10D8400001D103B030BD002501A825700195FDF779
:10D85000CBFB082807D000280AD1019B002B03D05E
:10D8600001232370EDE70195FFF758FD0028E8D06C
:10D87000034B1B68002BE4D09847E2E768270020A1
:10D880008C27002030B5184B83B01B78002B22D09A
:10D89000164C2378002B1ED1154B1B78002B1DD165
:10D8A00001252570002401A80194FDF79DFB08289F
:10D8B00007D000280AD1019B002B03D00D4B1D700F
:10D8C0000AE00194FFF72AFD002804D00A4B1B68E8
:10D8D000002B00D09847002003B030BDFFF71CFD9F
:10D8E0000028DDD0F8E7C046982700208B270020CD
:10D8F00030280020682700208C2700202EDF70476A
:10D9000051DF704710DF704761DF704710B50800C6
:10D910001100FAF7C1FD10BDF0B557464E46454619
:10D92000E0B4344B344E1D6899466B425D41334B35
:10D93000EDB21C68984663425C4182B0E4B2304F5D
:10D94000B246002D13D0002C40D13C68338801A989
:10D9500020000B80FFF7D8FF052837D000282AD0F9
:10D9600000220021FDF754FB0024002DEBD101A87B
:10D97000FFF7C6FF05280DD0002822D00022002185
:10D98000FDF746FB002C27D0012401A8FFF7B8FFC4
:10D990000528F1D1002C19D153466A461B8801A9EC
:10D9A0009380174B1C682000FFF7AEFF05280DD0B1
:10D9B00001250028D4D1434620001B689847002445
:10D9C000D3E74B4601981B689847DBE702B01CBCC5
:10D9D00090469946A246F0BD6A46074B01A91B88AE
:10D9E0009380074B1C682000FFF78EFF0528B5D1F8
:10D9F0000124CAE74C280020462800205028002097
:10DA00004828002070B504000720002901D08D07A8
:10DA100000D070BD09480160094920000A80094A08
:10DA200009491360FFF76EFF0028F2D10122074B6E
:10DA300016301A70FFF762FFEBE7C0464828002057
:10DA400046280020542800200DD901004528002038
:10DA5000002803D0024B1860002070470E20FCE71E
:10DA600050280020002803D0024B18600020704787
:10DA70000E20FCE74C28002010B50A4B1B68002B39
:10DA800008D09847002800D110BD00220021FDF7E2
:10DA9000BFFAF9E7044B1B78002BF5D0FFF73CFFEA
:10DAA000F2E7C0465428002045280020A0DF704738
:10DAB000A2DF7047A6DF704763DF704710B50B88A1
:10DAC000112B15D0502B05D0102B00D010BD8B88FA
:10DAD0008382FBE74288CB889A42F7D1CB8B063111
