:020000021000EC
:108000000040002001C1010049C101004BC1010035
:108010000000000000000000000000000000000060
:108020000000000000000000000000004DC1010041
:1080300000000000000000004FC1010051C101001C
:1080400053C1010053C1010053C1010053C10100DC
:1080500053C10100000000004596010053C101001A
:1080600053C1010053C1010053C1010053C10100BC
:1080700053C1010053C1010053C1010053C10100AC
:1080800053C10100A59A010053C1010053C1010071
:10809000859B010053C10100A9A6010053C1010045
:1080A00053C1010053C101000000000000000000A6
:1080B00000000000000000000000000000000000C0
:1080C00010B5064C2378002B07D1054B002B02D0AE
:1080D000044800E000BF0123237010BDE820002009
:1080E0000000000030C60100084B10B5002B03D083
:1080F0000749084800E000BF07480368002B00D18B
:1081000010BD064B002BFBD09847F9E7000000009C
:10811000EC20002030C60100E82000200000000014
:10812000164B002B00D1144B9D46402292029A1A06
:10813000924600218B460F461348144A121A00F04B
:1081400067F80F4B002B00D098470E4B002B00D048
:1081500098470020002104000D000D48002802D09F
:108160000C4800E000BF00F02DF82000290000F0CE
:1081700087F900F011F8C046000008000040002018
:108180000000000000000000E8200020D02A0020AD
:108190000000000000000000084B10B50400002B98
:1081A00002D0002100E000BF054B1868836A002B55
:1081B00000D09847200000F033F8C04600000000CF
:1081C000A4C201000E4B70B500251E000D4CE41A30
:1081D000A410A54204D0AB00F35898470135F8E746
:1081E00004F054F8084B00251E00084CE41AA410B3
:1081F000A54204D0AB00F35898470135F8E770BDAD
:10820000E0200020E0200020E0200020E4200020EA
:1082100003008218934202D019700133FAE77047C5
:10822000FEE7C04676DF70477ADF70477CDF704735
:1082300060DF70473CDF704748DF7047002906D198
:108240008021A022064B4903D205D15070478021DE
:10825000A123A0224903DB00D205D150F6E7C04696
:108260000C0500007047C04610B504000200054927
:10827000002003F037FF00220021200001F0CAFB9C
:1082800010BDC046A8C2010010B50378002B00D075
:1082900010BD0849002003F025FF074B3B2118883B
:1082A000FFF7C0FF0028F3D00022002101F0B2FB4D
:1082B000EEE7C046D0C201006420002010B582B0B5
:1082C000072840D02FD90A281AD00E2829D16B466A
:1082D0000120D91D00F0ACFC041E37D16B46DB79C0
:1082E000002B47D00121264803F00CFB0400082393
:1082F00022009A4315D0234B9C4212D0224926E0FB
:10830000002000F0ADFC00282FD100F019FF00285C
:1083100026D11E49002003F0E5FEFFF78BFF002861
:108320000CD102B010BD0428FBD1194B13211888C1
:10833000FFF778FF082302009A43F2D000220021C1
:1083400001F068FBEDE703F007F9F3E711490020BE
:1083500003F0C8FE00220021200001F05BFBE0E7F3
:108360000022002101F056FBD3E70022002101F09A
:1083700051FBCAE70021024803F0C4FA0400B6E743
:10838000CC2200200230000054C3010004C30100CD
:108390006420002030C3010010B5040002F0F8FD95
:1083A000200000F0DBFE2388102B19D0112B0FD1F9
:1083B000002000F055FC002826D10122154B524226
:1083C0001A8002F099F814490200002003F08AFE96
:1083D000200003F04BF82100104803F003F910BD12
:1083E000072000F03DFC002803D00022002101F00E
:1083F00011FBA288074B1A8002F066F808490200B8
:10840000002003F06FFEE3E70022002101F002FBF1
:10841000D3E7C04664200020C0C30100CC22002066
:108420007CC3010010B5002807D0032804D101380F
:1084300000F016FC002811D110BD002000F010FC47
:10844000002810D100F07CFE002811D10B4900203B
:1084500003F048FEFFF7EEFE0028EDD000220021D9
:1084600001F0D8FAE8E70022002101F0D3FAE9E7A9
:108470000022002101F0CEFAE8E7C04604C3010063
:10848000F0B5474680B40023A8B09B4A05210020E0
:1084900001F0DEFD002800D029E1984A9849032028
:1084A00000F0A0FD002800D01CE11AAC2100002043
:1084B00000F0C4FE002800D00FE1002348229149BB
:1084C000082002F0B7F8002800D001E108220021BE
:1084D0002000FFF79DFE0123227820001343237024
:1084E000FFF7A6FE051E00D0E8E0874802F0C8F8B6
:1084F000002800D0DDE0854802F0CCF8002800D04C
:10850000D2E00F2101220CAD2B78814E8B43134317
:1085100010220B40134330002B7003F0B0FE3100EB
:1085200082B22800FFF782FE002800D0B7E00822C0
:1085300000212000FFF76CFE50232380503363801E
:108540000023A3809133FF332000E380FFF76CFE0C
:10855000002800D09EE0002108222000FFF758FEEE
:108560006C4B6D4E1A93002321003000237103F0F1
:1085700059F8002800D088E0684B02AF3B80B37EFA
:108580003822BB7000212800FFF742FE02232B7027
:10859000013B9846AB700523EB70434603AE2B823C
:1085A0005F4B2422002130006B61FFF731FE012375
:1085B000337396235B0033613822783B002120001F
:1085C0007361FFF725FE434623820023676128007D
:1085D00000933200534B210002F088FE051E4AD161
:1085E0001C2200212000FFF713FEA02292026260ED
:1085F000F02200231203A2600322E38123741A9362
:10860000494B20006361494B2273A36102F084FC53
:10861000041E26D14649002003F064FD032002F029
:1086200007FF002818D10024424E434F220031009A
:10863000002003F057FDFFF7FFFD051E01D10134B7
:10864000F4E70022002101F0E5F92A0039000020BA
:1086500003F048FD0134E9E70022002101F0DAF9D6
:10866000E1E70022002101F0D5F922003349002082
:1086700003F038FDCEE70022002101F0CBF92A00FB
:108680002F49002003F02EFDAAE70022002101F06F
:10869000C1F971E70022002101F0BCF95BE700227B
:1086A000002101F0B7F942E70022002101F0B2F900
:1086B00027E70022002101F0ADF91CE7002200218C
:1086C00001F0A8F92A001F49002003F00BFD0CE778
:1086D0000022002101F09EF9F8E60022002101F0BD
:1086E00099F9EAE60022002101F094F9DDE6002282
:1086F000002101F08FF9D0E604210020BD820100A5
:10870000CD0C0000E8220020998301006582010061
:1087100024C401003D820100CC220020241000006E
:108720006020002025840100898201006982010007
:108730007CC401008CC401009CC401005CC4010025
:1087400038C4010008C401001D4B1B78012B00D068
:1087500070471C4B1B681B07FAD1F0221A4B1B6891
:10876000134018D1194B1B6813421CD0154B1B68C2
:108770001B07EDD1F022144B1B681340402BE7D1AF
:10878000124B1B681342E3D1C12380220121DB007D
:10879000D205D150DCE7102B01D0302BEAD10B4BA6
:1087A0001B681342E6D10A4A0A4B1A6080220A4B20
:1087B00012021A60024B1B78012BD7D0C8E7C046C3
:1087C000E00F00F0E40F00F0E80F00F0EC0F00F015
:1087D000DFFF07C004050040186C0040A02210B560
:1087E000064BD205D15880235B031C00A1208C438B
:1087F0000B400349C0001450535010BD0405000045
:108800000C050000F8B54F4646460400C0B41028D9
:1088100005D0112835D00CBC90469946F8BD0026ED
:10882000012911D000291FD00229F4D173009E190B
:108830001D4B9E197578002DEDD01C4B1B68002B2D
:10884000E9D028009847E6E7174B7700984642465C
:10885000BB19D55C43445B78002B14D1BF19474446
:10886000BA78134B9A55E6E7124801F0F3FC0E4A2A
:1088700073009B19D3180E4A9B78955D9D42CAD10F
:10888000D9E70126CCE70C4B0A4899460B4B4A46E0
:108890001B689900C918490001F066FC0028DDD169
:1088A0004B461C70DAE7C046AC230020642300204E
:1088B0006023002068230020582300205C23002030
:1088C000F8B5C34B1B68DB0700D4F8BDC14A147868
:1088D000172CFAD8C049A300CB589F46A022BF4B03
:1088E000D205D15880231B031C00A1208C430B40D0
:1088F000BB49C00014505350BA4B00221B68BA4801
:108900009900C91801F030FCDFE7A0230021B44A28
:10891000DB059950E021043A49039950D5E7A0229C
:10892000AE4BD205D15880231B031C00A1208C43E1
:108930000B40AB49C00014505350AA4B0022196899
:10894000A94801F011FCC0E7A021A1200026C9051B
:10895000A64BC0000E501C68C023A14D5B03A3436F
:108960004B519E4BA24CCB5863408024E4022340E1
:1089700000D124E10E5003234C5108211370994B70
:1089800000221B689848594301F0EEFB9DE7A021A7
:10899000A1200026C905954BC0000E501C68C023BD
:1089A0008F4D5B03A3434B518C4B914CCB58634091
:1089B0008024E402234000D1FCE00E5004234C51FB
:1089C0002821DBE7A023A122C02400208449DB0565
:1089D000D200640398505C5058508021C9029950CD
:1089E00073E7844D280001F035FC11231C1B00D1D6
:1089F000C5E0002800D0C2E080237C4E5B033360DA
:108A0000012C10D0C8306421604303F0A3FB754BE8
:108A100000221B6843432800190001F0A5FBE02356
:108A200032685B031340A02200206D49D2055050EC
:108A30000439535049E7A022A1230021D205DB00CD
:108A4000D1506A4B1968E0235B038B436449535050
:108A50003BE7A021A1200027C905644BC0000F50AF
:108A60001D68C0235E4E5B03AB438B515B4B604D77
:108A7000CB586B408025ED022B4000D18EE00F508B
:108A80008D512821022C77D0147078E7A023A122E1
:108A9000802400205249DB05D200640398505C50CA
:108AA0005850C021090399500FE7A023A122A02408
:108AB00000204B49DB05D200640398505C505850AD
:108AC00080210903995000E7A023A1220021DB05A2
:108AD000D2009950E021424A49039950F5E6A0237B
:108AE000A1210024DB05C900404A5C501068C02267
:108AF000520382433A481A508022D2021C505A50E4
:108B0000E3E6A021A1200026C905384BC0000E5085
:108B10001C68C023324D5B03A3434B512F4B344C95
:108B2000CB5863408024E402234040D00E504C5187
:108B3000052313702B4B002219682B48490001F0C4
:108B400013FBC2E6A021A1200026C905274BC000C7
:108B50000E501C68C023224D5B03A3434B511F4B97
:108B6000234CCB5863408024E40223402CD00E5089
:108B70004C5106231370E0E616391470FFE6A0206E
:108B8000A1230021C005DB00C150E023174A5B038D
:108B900014682340124C0351116096E68B510D501E
:108BA0000421022C00D06FE702391470E7E64B5124
:108BB0000C50BDE74B510C5004230421DEE64B5111
:108BC0000C5003230221D9E64B510C50D1E7C0468B
:108BD0005023002088230020BCC4010004050000AD
:108BE0000C0500005C2300203023002054230020CB
:108BF000FFFFE3FF8C23002010B50378102B02D079
:108C0000112B0ED010BD00235A00D318064AD318DA
:108C100058780028F6D0054B1B68002BF2D09847F7
:108C2000F0E7103BF0E7C046AC23002064230020AF
:108C30000023012802D900200B707047A223A02234
:108C4000DB00D205D258054B8000C0580123834079
:108C500093435A1E9341DBB2EDE7C04680C5010045
:108C600070B5D64B04001B680020DB0700D470BD34
:108C7000172CFCD8D24AA300D3589F46A022D14B30
:108C8000D205D15880231B031C00A1208C430B402C
:108C9000CD49C00014505350CC4B00221B68CC4827
:108CA0009900C91801F060FAE1E7A022C54BD2058E
:108CB000D15880231B031C00A1208C430B40C249C8
:108CC000C00014505350C14B00221968C04801F035
:108CD0004BFACCE7BF4D280001F0BCFA11231C1B56
:108CE00000D143E1002800D040E18023BA4E5B036D
:108CF0003360012C10D0C8306421604303F02AFA9D
:108D0000B24B00221B6843432800190001F02CFAE3
:108D1000E02332685B031340A0220024AA49D20555
:108D2000545004395350A2E7A023A1220021DB05AF
:108D3000D2009950E021A44A490399501222A74B2E
:108D400000201A7093E7A023A122C02400209E498E
:108D5000DB05D200640398505C5058508021C90252
:108D6000995013229D4B1A7081E7A0230021964A47
:108D7000DB059950E021043A49039950974B0020B4
:108D80001C7074E7A021A1230022C905DB00CA5092
:108D9000914B1868E0235B0383438B480B508F4B48
:108DA00000201A7063E7A022A1210026D2058A4B79
:108DB000C90056501868C023834D5B038343535149
:108DC000804B8748D35843408020C002034000D1E5
:108DD000E3E0565050512821022C00D1ECE07F4BAB
:108DE0001C707A4B00221B687948594301F0BCF98A
:108DF0003DE7A0230021744ADB059950E021043AA5
:108E0000490399500C22754B00201A702FE7A023BC
:108E1000A122A02400206C49DB05D20064039850F5
:108E20005C50585080210903995014226B4B1A70E2
:108E30001DE7A022A1210025D205674BC90055508E
:108E40001868C023604C5B03834313515D4B644837
:108E5000D35843408020C002034000D195E05550D4
:108E600010510821032219E0A022A1210025D205DA
:108E7000594BC90055501868C023534C5B038343BA
:108E80001351504B5648D35843408020C0020340F2
:108E900000D18AE055502821105104224F4B1A70FE
:108EA0009FE7A023A1210024DB05C9004A4A5C50AA
:108EB0001068C0225203824343481A508022D202D3
:108EC0001C505A500722454B00201A70CFE6A023B1
:108ED000A122802400203C49DB05D2006403985085
:108EE0005C505850C0210903995015223B4B1A7011
:108EF000BDE6A022A1210025D205374BC90055505F
:108F00001868C023304C5B03834313512D4B344806
:108F1000D35843408020C00203403BD055501051ED
:108F200005222E4B2A481A70284B00221968490046
:108F300001F01AF99BE6A022A1210025D205264BBB
:108F4000C90055501868C0231F4C5B03834313515D
:108F50001C4B2348D35843408020C002034028D0F4
:108F60005550105106221D4B1A70ACE6A024A123C7
:108F70000021E405DB00E150E023174A5B0315689C
:108F80002B40114D6351116071E613515050022175
:108F9000032283E713515050C2E75351505004212C
:108FA000022C00D01BE7023919E71351505004215D
:108FB00073E713515050D5E7163910E750230020BE
:108FC0001CC50100040500000C0500005C23002006
:108FD000302300208C2300205423002088230020ED
:108FE000FFFFE3FF214B10B51960214B040018600F
:108FF000204B1A6083070ED50D221F4B1F481A7095
:109000000132DA704A08022101F004FA002820D067
:10901000E30703D410BD0020E3070DD5A023A12250
:109020000021DB05D2009950E022154952035A5025
:109030000C315A500028EDD1124A0021124801F09B
:1090400079F80028E6D1114A0121114801F072F89F
:10905000E0E701F039FA0028DAD10E4A00210E4883
:1090600001F068F8E307D9D4E4E7C0465C230020A8
:109070005023002064230020AC2300208CC5010075
:109080000C050000C188010088C50100DD870100D2
:109090009CC50100F98B01007CC50100030007207D
:1090A000012B00D97047012A0ED0012912D00029C6
:1090B00016D0022906D15800C3180D48C3185A709B
:1090C0000020EFE70720EDE700220129EDD11A008B
:1090D0000D32D2B258000649C3185A540020E1E7B5
:1090E0005800C3180248C3189A700020DAE7C04637
:1090F000AC230020E823A0220121DB00D205D358B5
:10910000014001D0C02189020B4A13400B43A02229
:10911000E821D205C9005350084BD2580223184009
:1091200001D0C0208002044B1340A0221843034BFF
:10913000D205D05000207047FFFFFCFF440700001D
:1091400010B50320FFF7D6FF0023002802D003004C
:10915000062801D0180010BD0023FBE710B50388D6
:10916000102B08D0112B05D1324A1368013B136034
:10917000002B07D010BD2F4C2368002B11D00133DA
:109180002360F7E7012202210020FFF787FF002874
:109190003DD007283BD0284B1B68002BEAD09847CE
:1091A000E8E7012200210020FFF778FF002808D01F
:1091B000072806D0204B1B68002B00D09847236857
:1091C000DDE7072202210120FFF768FF002801D018
:1091D0000728EFD1042202210020FFF75FFF0028BB
:1091E00001D00728E6D10E2201210120FFF756FF0A
:1091F000002801D00728DDD10E2200210120FFF731
:109200004DFF0028DBD00728D4D12368B7E7072219
:1092100002210120FFF742FF002801D00728BAD120
:109220000A2200210020FFF739FF0028A2D00728DA
:10923000B1D19FE7B8230020B423002010B5234B01
:1092400082B00C1E186018D06B460020991DFFF7E5
:10925000EFFC002801D002B010BD6B460130D91DD3
:10926000FFF7E6FC0028F6D16B46DB79002B26D110
:109270006B469B79002B25D12370154B1B68002B67
:1092800001D00020E7E7012202210020FFF706FFBE
:10929000002801D00728DED1072202210120FFF794
:1092A000FDFE002801D00728D5D10A220021002088
:1092B000FFF7F4FE0028E4D00728CCD1E1E7022331
:1092C0002370DAE70B232370D7E7C046B4230020CE
:1092D000B8230020F0B500281EDBFF261A4B37000C
:1092E0009C4603238208C025C0B20340DB008901ED
:1092F0009F403140994092006244AD005459BC43B4
:10930000214351511F23C02118401E3B83400E4A68
:10931000490053501360F0BDFF250C4A2E009446BF
:1093200003220F23C0B20240D20089019640294097
:1093300091400340083B9B089B006344DC69B443B5
:109340002143D961DEE7C04600E100E000ED00E026
:1093500070B54425164C0820635D002B00D070BD0D
:109360004022FF21013BA3540132A1540132A354F6
:10937000236201326362A362E36223636363A363D4
:10938000E363FC390238A35423606360A360E360A5
:1093900023616361A361E361FFF79CFF8021C12327
:1093A000044A9B000906D150012300206355D6E7EB
:1093B000BC230020006000404423034AD05C431ECD
:1093C0009841C0B27047C046BC230020F0B5474664
:1093D00080B4524C0825231820331E787F2E03D8E2
:1093E000280004BC9046F0BDCD78AC46002D36D0A8
:1093F0002568013500D186E0042300269846731CB9
:109400009D006759013733D0B31C984525D99D007D
:10941000675901372CD0F31C98451ED99D00675918
:10942000013725D0331D984517D99D00675901375D
:109430001ED0731D984510D99D006759013717D06C
:10944000B31D984509D99D006759013710D00736DB
:10945000B04502D9E369013308D00425C0E7256986
:10946000013555D0082304269846C8E707231C2554
:109470006251624627185EB220373E70002A02D140
:10948000E3183C3318708B78002B14D10300A0250F
:109490004A78C133FF3392009B00ED055A51CB78D7
:1094A000002B14D1A4193C340B7822789B01134370
:1094B0002370002594E7A022D2059446E0250227D8
:1094C00083006344ED005A59BA435A51E7E7144AFE
:1094D0000B789446A221B6006644C9007458114A1C
:1094E000000222407250F822520110400500C022B2
:1094F00018040300280092027458134018432043B4
:10950000705000256CE7002522601D700026BAE728
:10951000042522611D702E002B00B1E7BC23002022
:1095200000600040FFE0FCFF0023F0B5254C22184E
:109530002032D356032B18DDE3183C331B789B09EC
:10954000032B33D0012B3AD0C0218902A023DB05A5
:109550009C46E02380006044DB00C4581A4A224045
:10956000C250C2580A43C250F0BDD8B20328FBD83B
:10957000164DA227AC46012698006044FF00C5594D
:109580003543C5511800654600274030800080B241
:1095900047510029E8D0127852B292001259002A9D
:1095A000E2D09E40C1239B00EE50DDE7A223A02223
:1095B000DB00D205D258012383401A42C4D1802156
:1095C0008902C3E7BC230020FFFFFCFF00600040CE
:1095D00010B5144B1B1820331B785BB2032B12DC25
:1095E000DAB2032A0ED8104AA22494460122990026
:1095F0006144E400085990439A40C22308516146EF
:109600009B00CA5010BDA023DB059C46E0238000D0
:109610006044DB00C158054A0A40C250C258C250DB
:10962000F0E7C046BC23002000600040FFFFFCFFC5
:10963000A222A0210300D200C9058858D8400123E6
:1096400018407047F0B557464E464546E0B4D24AFA
:1096500000241368012B00D1BDE0D04B1A68012A09
:1096600000D1C6E0CE4B1A68012A00D1D1E0CD4B23
:109670001A68012A00D1DCE0CB4B00251A68012AC8
:1096800000D1E7E023070BD0E30700D5F8E0A307FC
:1096900000D504E1630700D50FE1230700D5E3E01F
:1096A000002C04DB1CBC90469946A246F0BD40232A
:1096B000BE4CE1564B1C1ED0C9B2C02308009843D3
:1096C000231820331B785BB29B001E59002E12D04A
:1096D000A0230127DB059C46E023874082006244EB
:1096E000DB00D35889099B039B0F3D4200D10CE15D
:1096F000022B00D170E14123E1564B1C1ED0C9B2B0
:10970000C02308009843231820331B785BB29B00CA
:109710001E59002E12D0A0230127DB059C46E02312
:10972000874082006244DB00D35889099B039B0F6A
:109730003D4200D1D1E0022B00D141E14223E1566C
:109740004B1C1ED0C9B2C0230800984323182033F5
:109750001B785BB29B001E59002E12D0A02301275C
:10976000DB059C46E023874082006244DB00D3583F
:1097700089099B039B0F3D4200D1F5E0022B00D1EC
:1097800024E14323E1564B1C00D18BE7C9B2C0232F
:1097900008009843231820331B785BB29B001E59A6
:1097A000002E00D17EE7A0230124DB059C46E023A8
:1097B000844082006244DB00D35889099B039B0FDD
:1097C000254200D1BDE0022B00D06BE7032900D178
:1097D00008E1B04766E7C1217548890041580B424E
:1097E00000D13AE76D4B14601A680134012A00D0A9
:1097F00038E7C1226E499200895802220A4200D1FC
:1098000030E700211960664B14431A68012A00D022
:109810002DE7C12266499200895804220A4200D1EC
:1098200025E7002119605F4B14431A68012A00D014
:1098300022E7C1225E499200895808220A4200D1DB
:109840001AE700211960584B14431A680025012AB1
:1098500000D017E71D6080231B061C43A022A22313
:10986000D205DB00D5580DE7514A524BD058D1589C
:109870004E4B8903C004890FC00EDB6898470FE781
:10988000A2234B4ADB00D058D158484B8903C0046F
:109890001B68890FC00E9847A30700D4FAE6464B11
:1098A000434AD058D158414B8903C0045B68890FA3
:1098B000C00E9847630700D4EFE6A3233C4ADB00C1
:1098C000D058D158394B8903C0049B68890FC00E0A
:1098D0009847230700D4E3E6C6E7032B00D02DE723
:1098E000032910D180239B029C46E023DB0099468C
:1098F000324FD3581F404B46D750D75863463B434F
:109900001F004B46D750B04718E7032B00D0F2E6B4
:10991000032914D180239B029A46E023DB00D75809
:109920009946B846254FBC46474663461F403B0014
:109930004F46D351D35957461F434B46D750B04794
:10994000D9E6032B00D0ADE6032900D041E78027FC
:10995000BF02E023DB00D458184D2540D550D45821
:109960003C43D450B0479DE6032B00D009E70329C0
:1099700010D180239B029C46E023DB0099460F4FC9
:10998000D3581F404B46D750D75863463B431F0020
:109990004B46D750B047F4E60061004004610040F8
:1099A000086100400C6100407C610040BC23002045
:1099B000006000401C05000014050000FFFFFCFFD4
:1099C0000329A0D1C0239B029C468EE70329E1D145
:1099D000C0239B029C46CFE70329B0D1C0239B0242
:1099E0009A469AE7C027BF02B3E7C046074B1A68FA
:1099F0000823520701D418007047002804D0044BF4
:109A00005B7803600023F6E70E23F4E7D024002000
:109A100004240020BFF34F8F024A034BDA60BFF3E8
:109A20004F8FFEE70400FA0500ED00E0802180235F
:109A3000184A8902D1508022D221174B5202890044
:109A40005A5040395A5001222F205A600138C046DE
:109A5000C046C046C046C046C046C046C046C046D6
:109A6000C046C046C046F1D19A6000230B4A2F2061
:109A700013600138C046C046C046C046C046C04616
:109A8000C046C046C046C046C046C046F1D1044AA2
:109A90001370704700E100E000100140D424002062
:109AA000F4240020A021F0B5002347462C4A4900A9
:109AB00080B4535004315350043153500431535047
:109AC0004C39535004315350264B1B68002B37D070
:109AD0002549002652582549254F0C68141B0022A1
:109AE0002402240A904602E0002D1AD02B001A68A6
:109AF000A24216D8A41AB6181A7CDD69002AF3D03F
:109B0000424699691A745A693B68002B1BD01000B1
:109B100098470028E8D000220021FFF77BFF002DA6
:109B2000E4D1144B14491A780B789A420ED0134A98
:109B30009B009E5080218023114A49035B00D15035
:109B400004BC9046F0BD08009047CDE70132D3B287
:109B5000022B01D00B70EAE700230B70E7E7C04649
:109B600000100140D824002004050000D424002067
:109B7000DC240020E8240020E9240020EC2400203C
:109B800000E100E0F0B55F4656464D464446F0B46D
:109B9000C54BC64A1B68C6498BB005930978137834
:109BA000994200D157E10133DBB2022B00D10023EF
:109BB0001370C04A9B009B58BB4A9A46059B53446E
:109BC0001B021B0A136001230193BB4B00241B687B
:109BD0009B46BA4B5A461B78914619000393B84BE3
:109BE00088461B6847460493AF4B013F1B680793A9
:109BF000B44B1B78099300239C4606930893FBB251
:109C000066469846FF2B32D04346D800049B9C46BC
:109C1000130060440178457800961A00A9421FD0CD
:109C200046684A00B446521886780131D200C9B25B
:109C300062448E4200D1EDE01678022E00D1C7E0DA
:109C4000032EEAD1002BE8D01C74DB69002BFBD17A
:109C5000013345780093002399461A00A942DFD1C9
:109C60004746013FFBB2009E9846FF2BCCD1089B94
:109C7000C8460292B446002B00D0F0E0069B002BB1
:109C800002D0894B079A1A606346002B02D04246E5
:109C9000894B1A60019B002B00D02DE15B46029A94
:109CA00000259B1A5A1E9341DBB205937E4B002779
:109CB0001B6802999C46804B1B689B46814B1B7816
:109CC000069300230193804B994601230093039B45
:109CD000013BDBB20393FF2B00D1F9E0049ADB00D8
:109CE00092460E009A44002D28D06A68A9682C007C
:109CF000ED696346D31A1B021B0A4B4552D86A46CC
:109D000012785B1823606760A7602274E761002EF9
:109D100058D031683000994205D3B9E011689942B2
:109D200000D3A3E01000C2695B1A002AF6D1E261F9
:109D300032002360C4611600002DD6D153461A7834
:109D40005B7831009342C2D051464968530088463F
:109D500051469B180132D2B20A708978DB00434425
:109D6000914200D19DE0197832000129E3D15C686D
:109D7000227C9046414632000029DCD19A6862601C
:109D8000D968A1601869E0605B69A361069B002B3C
:109D9000AFD04346002263606346D31A1B021B0AFE
:109DA0004B45ACD963469A1A1202120A8A4264D20F
:109DB0008B1A6A46127823606760A7602274E76195
:109DC000002EA6D122000123A34601931600B3E77B
:109DD0005668002B30D09E421ED0009A1F00944639
:109DE00002E0964206D01700FA69002AF9D16246CD
:109DF000009212E765460095BA420FD01568D26905
:109E0000FA61002A16D013689C46654415604578AF
:109E10004B4602E700210FE71A001F00DE69002E03
:109E20000CD0012500951568D269B1463300FA615E
:109E3000002AE8D14578F0E60023EEE60125234B21
:109E40009D600095069500250023079501359946EC
:109E500008950995D2E700239A460193B5E66A462C
:109E600024215218174B12781A7007E7C91A11608B
:109E7000E26123603200C4615DE76B461B782760B6
:109E80006760A7602374E761002E9BD000233168D0
:109E9000CB1A336022000123E661A346019316002A
:109EA0004AE7524615705EE7D4240020E8240020DB
:109EB000E9240020EC240020D8240020E024002005
:109EC000E4240020EA240020FEFF7F00001001406F
:109ED000019B002B00D09DE0029B994236D1059B4F
:109EE000002B33D10023534A13700BB03CBC904677
:109EF0009946A246AB46F0BD4F4B0024186800259A
:109F0000029B00210026574615E01A68BA4200D984
:109F100084E0D868BF1A89181E60DC69002807D061
:109F2000DD611D00059A986052181202120A5A60EB
:109F300023002000019C002BE7D1002C01D03E4BD8
:109F400018600023029301330593AFE6002900D186
:109F50005DE00B6839489846394B3A4DC4583A4B46
:109F60002E781B68E11A0902090A0331002E2DD050
:109F700042468A4200D20A00A820D21812022F4973
:109F8000130AC0002E4D0B504A591B1B121B120204
:109F9000120A1B0203321B0A9A42A3D94B590B50D7
:109FA0002F200138C046C046C046C046C046C04605
:109FB000C046C046C046C046C046C046F1D180211A
:109FC0008023224A89025B00D1508BE78026D1276B
:109FD0007602BF00C651403FC651C02280271B4EAB
:109FE000BF025200B7503760012606602F200138AB
:109FF000C046C046C046C046C046C046C046C04631
:10A00000C046C046C046C046F1D12E70B0E7FFF74B
:10A010000DFD67E75A46084B1A605DE7BA46002C0B
:10A0200001D0054908605146521A1A600293012373
:10A0300005933BE6EA240020D824002000100140CC
:10A0400004050000F4240020D424002000E100E0F6
:10A05000F8B54F464646C0B40326350080460F008B
:10A060001400994615400720002D03D00CBC9046E3
:10A070009946F8BD002A44D0FFF7D8FC4A46224B47
:10A0800080201A602200214B18321E70204B626023
:10A090001C607B00DB19DB00D218E260D318C02201
:10A0A000636125706570A77025726572A77225744B
:10A0B0006574A774C524FF21164B40031D60164B21
:10A0C00052001D70154BA4001D70154B98501A5965
:10A0D0008A433F390A431A51A12218604046114968
:10A0E000D2008850C42080001C580F4A2240C0244F
:10A0F000240222431A500D4B0020CA580C4B1A6000
:10A10000B4E7034B1A60B1E7DC240020E024002010
:10A11000E4240020D8240020E8240020E9240020A2
:10A1200000E100E000100140FF00FFFF0405000017
:10A13000D424002010B50B4B1B68002B0BD0002A39
:10A1400007D0002805D0036808201C7C002C04D010
:10A1500010BD0720FCE70820FAE759745A61002077
:10A16000F6E7C046E4240020F0B5344B1C68002C10
:10A1700006D0002804D00723042903D81800F0BD16
:10A180000823FBE74369002BFAD0437C012B44D022
:10A1900000262B4B10255B68DB05DB0D25D16419F0
:10A1A0006378A5785F1CFFB2BD423AD02578BD42E6
:10A1B00035D05D00ED186368ED009C4665440423CE
:10A1C000002DDBD0033B2B7068601E4B1E48C3582C
:10A1D000E960AB60802180236A611C4A5B0049030F
:10A1E0002E616770D1500023C8E7103B5DB2002D8F
:10A1F00019DBAD08C035154FAD00ED5903273B40C5
:10A20000DB00DD40AB093B40DBB20025012BC6D0B3
:10A210000835032BC3D00835C1E70E00B9E7042386
:10A22000ACE70027C2E70F25094FDBB2BC461D4053
:10A23000083DAD08AD0065446D68DFE7E42400200B
:10A2400000ED00E0040500000010014000E100E026
:10A2500018ED00E010B52C4A030011680820002911
:10A260002AD0002B28D05A69002A25D000221A743F
:10A27000264A08305268D205D20D1ED109184A78F4
:10A280008878541CE4B2A04231D00878A0422CD087
:10A29000500082184868D200844662440420002A94
:10A2A0000AD00238107053604C7080238021002047
:10A2B000174A49035B00D15010BD103A50B2002834
:10A2C00017DB8008C030124C800000590324224064
:10A2D000D200D04082092240D2B20020012ACDD043
:10A2E0000830032ACAD00830C8E70420E4E7002475
:10A2F000CBE70F20074CD2B2A446104008388008A4
:10A30000800060444068E1E7E424002000ED00E0C4
:10A3100000E100E018ED00E0F0B54E465746454636
:10A32000E0B4214B1978994600292AD01F4B00250B
:10A3300098461F4B1F4F01269A4603E00135EDB2A8
:10A340008D421ED243461B6832009C46EC0064449A
:10A3500020783B6882401342F0D093433B60FFF784
:10A3600067F9330022785146934009680B40010099
:10A3700091408B420AD04B4601351978EDB28D429F
:10A38000E0D31CBC90469946A246F0BD6368002B02
:10A39000F1D0617801394C424C41211A4C424C4178
:10A3A0001000E1B29847E6E700250020FC240020D9
:10A3B0002425002028250020F8B5124D070028008C
:10A3C000FFF748FF002807D10124BC400E4E336838
:10A3D000234202D0A3433360F8BD3800FFF728F9C9
:10A3E0000A4A136800280BD0234313603368002205
:10A3F0001C43074B280019683460FFF7B5FEEBE7F4
:10A40000A343F2E70425002028250020242500206E
:10A41000F8240020F0B54F464646C0B414000700AB
:10A4200083B00E000720042A04D803B00CBC904669
:10A430009946F0BDFEF7C0FF00282FD01A4B1B4AEB
:10A440001F601B4B751E1E701A4BEDB21C60002363
:10A450001360194A1360002E1AD0184B01AC9946AC
:10A4600003230026984600E01D004246EB00FB183F
:10A470002270A670E6709A781878627021004A46B9
:10A48000FEF7A4FF0028D0D16B1EDBB2002DEBD16C
:10A490000B4A00210B48FFF74DFEC6E7FEF758FFB9
:10A4A0000028CBD0C1E7C046FC2400202425002092
:10A4B00000250020F824002028250020B9A3010051
:10A4C00019A30100A0C5010070B5094D2B78002B20
:10A4D0000BD00024074E3268E300985C0121FFF79F
:10A4E00023F82B780134A342F5D8002070BDC04674
:10A4F00000250020FC24002070B5094D2B78002B8E
:10A500000AD00024074E3268E300985CFFF760F839
:10A510002B780134A342F6D80348FFF79BFE70BDA9
:10A5200000250020FC240020042500202EDF704799
:10A5300051DF704710DF704761DF704710B50800CA
:10A54000110000E000BF10BDF0B557464E4645462D
:10A55000E0B4344B344E1D6899466B425D41334B39
:10A56000EDB21C68984663425C4182B0E4B2304F61
:10A57000B246002D13D0002C40D13C68338801A98D
:10A5800020000B80FFF7D8FF052837D000282AD0FD
:10A5900000220021FFF73EFA0024002DEBD101A894
:10A5A000FFF7C6FF05280DD0002822D00022002189
:10A5B000FFF730FA002C27D0012401A8FFF7B8FFDD
:10A5C0000528F1D1002C19D153466A461B8801A9F0
:10A5D0009380174B1C682000FFF7AEFF05280DD0B5
:10A5E00001250028D4D1434620001B689847002449
:10A5F000D3E74B4601981B689847DBE702B01CBCC9
:10A6000090469946A246F0BD6A46074B01A91B88B1
:10A610009380074B1C682000FFF78EFF0528B5D1FB
:10A620000124CAE7342500202E25002038250020EB
:10A630003025002070B504000720002901D08D07C7
:10A6400000D070BD09480160094920000A80094A0C
:10A6500009491360FFF76EFF0028F2D10122074B72
:10A6600016301A70FFF762FFEBE7C0463025002076
:10A670002E2500203C2500203DA501002C25002092
:10A68000002803D0024B1860002070470E20FCE722
:10A6900038250020002803D0024B186000207047A6
:10A6A0000E20FCE73425002010B50A4B1B68002B58
:10A6B00008D09847002800D110BD00220021FFF7E4
:10A6C000A9F9F9E7044B1B78002BF5D0FFF73CFF05
:10A6D000F2E7C0463C2500202C25002071DF7047A2
:10A6E00072DF704779DF70477DDF704765DF704745
:10A6F000F0B55F4656464D464446F0B485B09A469E
:10A700000EAB80CB06001B8800919B463B880193D3
:10A710000388002B63D00023994602ABDD1C3B006D
:10A7200000241700984603E033880134A3422CDD4F
:10A730007368A1009C460422614403A801F096FDC1
:10A740000022290003A8FFF7D1FF002829D12B7888
:10A75000BB42E9D14B46002B2AD043461A88D31975
:10A760005B453EDC5244290003A8FFF7BFFF0028E9
:10A7700017D143462A781B880134D31842461380E8
:10A78000012399463388A342D2DC4B464746002B2F
:10A7900025D03B88019A013B9B1A9BB20C20FF2BD2
:10A7A0001AD905B03CBC90469946A246AB46F0BDCE
:10A7B00043461B88DA1902325A4512DC42460133FD
:10A7C00069469BB2138052460978D15443461A8891
:10A7D000013292B21A80C5E711005246535400204C
:10A7E000DFE70C20DDE7C046F0B55F4656464D4634
:10A7F00044460023F0B417881380436B87B00600EB
:10A800000D001400002B00D19CE1022F00D891E133
:10A810001A7802230B701121238801339BB2238005
:10A82000E954238801339BB22380EA5423880133FF
:10A830009BB22380326B002A00D170E019001231E4
:10A84000B94200D976E11121E95423880139013355
:10A850009BB22380E954238801339BB22380D17BB0
:10A86000E954238801339BB22380917BE9542388E8
:10A8700001339BB22380517BE954238801339BB27F
:10A880002380117BE954238801339BB22380D17A42
:10A89000E954238801339BB22380917AE9542388B9
:10A8A00001339BB22380517AE954238801339BB250
:10A8B0002380117AE954238801339BB22380D17914
:10A8C000E954238801339BB223809179E95423888A
:10A8D00001339BB223805179E954238801339BB221
:10A8E00023801179E954238801339BB22380D178E6
:10A8F000E954238801339BB223809178E95423885B
:10A9000001339BB223805178E954238801339BB2F1
:10A9100023801278EA54238801339BB223802E22AD
:10A92000B25C002A00D00FE12D22B25C002A00D0D8
:10A930002CE1B278002A00D055E1F278002A14D038
:10A94000D91CB94200D9F5E00221E9542388013924
:10A9500001339BB22380E954238801339BB22380C7
:10A96000EA54238801339BB223807268002A15D0F1
:10A97000D91CB94200D9DDE002211278E9542388BC
:10A98000083101339BB22380E954238852B201334A
:10A990009BB22380EA542388013323803389002B20
:10A9A00000D09BE1338A002B00D0B1E1338B002B28
:10A9B00000D0C7E1336A002B4BD022880C20911DB8
:10A9C0009346B94200D9B6E0198805388A46052968
:10A9D00000D8B0E0BB496A468C46D4446146D18178
:10A9E000D1898C46B84988468C4500D8A3E059885F
:10A9F0008C46052900D89EE0B2496144D18189B2D4
:10AA0000414500D897E0B1498A4504D08C4502D031
:10AA1000E24500D98FE005215A46A95422880D311C
:10AA2000013292B22280A9542288013292B222804D
:10AA30001988AA181170090A51702288023292B23C
:10AA400022805988AB181970090A5970238802337B
:10AA50002380736A9846002B30D09A882188131D72
:10AA60005B180C20BB4266D8931CFE2B63D80332C4
:10AA70006A54FF22238801339BB22380EA54424662
:10AA8000238801339BB223801288EB181A70120AB4
:10AA90005A704246238802339BB223809288002A50
:10AAA0000CD0414689680538002944D0E81801F0E7
:10AAB000DDFB434622889B88D31823802C23F35C3C
:10AAC000002B00D0B0E033780020002B33D0328848
:10AAD0000720012A2FD02288901CB8422AD8012BA7
:10AAE00004D1737802339B189F4223D3023FBA1AD2
:10AAF00004AF93B22818390098463B80FFF7F4FD65
:10AB0000002818D13378022B00D141E1012B00D16C
:10AB1000DEE043460821FE2B0CD822885E1CAE5492
:10AB20002288013292B22280A954228801329B18D5
:10AB3000238000E00C2007B03CBC90469946A2461A
:10AB4000AB46F0BD002375E6D91C0C20B942F2D803
:10AB50000221E9542388103001339BB22380E8544A
:10AB6000238801339BB22380022A00D10BE100D855
:10AB700004E1032A00D109E1042A00D0FCE0032209
:10AB8000EA54238801339BB22380CDE609330C209D
:10AB9000BB42D0D804A8FFF7A1FD0028CBD10822E2
:10ABA00023880921EA542388133201339BB223807E
:10ABB000EA5402AB9C462088153A013080B22080CE
:10ABC0006144281801F052FB238802AA0633127A46
:10ABD0009BB22380002A00D00122EA54238801334B
:10ABE0009BB22380A5E604330C20BB42A3D804A863
:10ABF000FFF778FD00289ED103222388EA5423889A
:10AC0000163201339BB22380EA54238802AA01330F
:10AC10009BB212892380EB181A70120A5A7023888B
:10AC200002339BB2238088E6B36A9846002B00D19A
:10AC3000A2E09B880233FE2B00D97BE700229146DD
:10AC4000163292461632208893460CE04B46B26A82
:10AC50005B0090464B449B00984443469B880233DC
:10AC6000FE2B00D966E7524601332B54238801336B
:10AC70009BB22380EA544246238801339BB223804F
:10AC80001288EB181A70120A5A7043462088023054
:10AC900080B220809A88002A0BD0996800296BD056
:10ACA000281801F0E3FA434620889B88C01880B238
:10ACB00020804B460133DBB299465B46F35C4B4543
:10ACC000C4D800E77FF3FFFF7DF30000FFFF000023
:10ACD0007378984500D31DE743461BE70823984641
:10ACE000B044019700942B00022202214046FFF756
:10ACF000FFFC002800D01EE7019700942B001022D3
:10AD000006214046FFF7F4FC002800D013E749E68F
:10AD100010239846B044019700942B00022203218F
:10AD20004046FFF7E5FC002800D004E701970094B7
:10AD30002B00102207214046FFF7DAFC002800D044
:10AD4000F9E633E618239846B044019700942B00A7
:10AD5000022214214046FFF7CBFC002800D0EAE68F
:10AD6000019700942B00102215214046FFF7C0FCEC
:10AD7000002800D0DFE61DE60720DCE6012AFBD133
:10AD80000022EA54FDE60122EA54FAE6E954F8E624
:10AD90003B880921984500D3BDE64346BAE6C04644
:10ADA00030B593B01F236A460C009380D3800028EF
:10ADB00022D0C3785B071CD501AA02A9FFF714FDB6
:10ADC00002AD002816D1002C19D0E378002B10D149
:10ADD0006B460AA99A1D2000FFF706FD002809D13D
:10ADE0006B469B790AAA694628000979FFF778FC27
:10ADF00000E0072013B030BD90800025E3E76B46EC
:10AE00000022DC800023EEE775DF704776DF7047B5
:10AE10007ADF70477BDF704710B5184B82B0188817
:10AE2000174B984214D0174A174C13780133DBB2F2
:10AE30001370217B99420DD200231370237C002BC9
:10AE400012D16369002B03D0002201A80270984739
:10AE500002B010BD0D49FFF7D7FF0028F8D0A36955
:10AE6000002BF5D09847F3E73B21FFF7CFFF0028F1
:10AE7000E7D0A369002BE4D09847E2E78C250020B7
:10AE8000FFFF00004C2500205025002090250020C9
:10AE900030B51B4B1B4A5B88118883B099420FD891
:10AEA00052889A420CD3184B5B69002B03D00122C5
:10AEB00001A802709847154C0023237003B030BDE1
:10AEC000124C2378002B08D00F4B5B69002BF3D07A
:10AED000002201A802709847EEE70D4B0A4D1B783F
:10AEE000002B0BD0A96800220A48FFF73DF9002883
:10AEF000E2D0AB69002BDFD09847DDE76968F2E765
:10AF000044250020902500205025002040250020C9
:10AF10004C2500206C250020164902000B0070B55E
:10AF200032CA32C332CA32C312681A600022124BCC
:10AF300001681A70002916D0104C0832200001F068
:10AF400095F92000FFF764FF00280BD101220C4B7C
:10AF500052421A8000220B4B00211A700A480B4AF9
:10AF6000FFF7E8F870BD0548FFF754FF0028EDD063
:10AF7000F8E7C046502500204025002090250020FD
:10AF80008C2500204C250020A4C5010019AE01002D
:10AF900010B50388112B35D021D9122B17D0502B87
:10AFA0001CD1214CC288E3899A4217D1C38B022B52
:10AFB00014D11E33C35CDB070ED41C48FFF74AF9DB
:10AFC00000280BD0A369002B08D0984706E0811D0C
:10AFD0000822174801F04AF9FFF75AFF10BD102B5D
:10AFE000FCD101008288134B16311A8010480822C8
:10AFF00001F03CF90022104B1A700B4BDB89002B3F
:10B00000ECD1E9E701220B4B52421A8000220A4B95
:10B0100006481A70FFF71EF90028DFD0024B9B6923
:10B02000002BDBD09847D9E7502500206C25002065
:10B03000442500208C2500204C25002073DF70471C
:10B0400074DF704770B59F4E86B007220021300034
:10B05000FDF7DEF89C4C6378002B6ED09B4D2B786F
:10B06000012B05D0A278002A00D1EFE0022B0FD1EE
:10B07000974A1268002A00D1FDE00121954B082073
:10B08000197090472B78012B00D1F7E0022B5FD08D
:10B09000227B002A01D1032B7AD0227E002A02D102
:10B0A000042B00D107E18A4A1268002A02D0033B30
:10B0B000012B77D90022884B1A701822002168468C
:10B0C000FDF7A6F800236A46137013722A780193DD
:10B0D0000393022A00D18BE072D9032A00D194E0B5
:10B0E000042A22D16B46A28B1A82228C5A827B4B75
:10B0F0001A79002A00D1B6E02278002A00D1B6E001
:10B10000774A1278002A00D0B1E0694603930423FD
:10B11000023274480A720021C370FFF741FE002812
:10B1200064D10622704B1A702A78002A51D1684BDC
:10B130001B68002B56D1002058E0A378634D002BEC
:10B14000A0D02B78022B93D0012BA1D102232B70FE
:10B15000A378002B17D07378002B00D0B0E0B37821
:10B16000002B00D0ACE0F378002B00D0A8E03379BE
:10B17000002B00D0A4E07379002B00D0A0E0B379BD
:10B18000002B00D09CE003232B70237B002B61D18C
:10B1900004232B70237E002B00D18CE04C4B1A68CB
:10B1A000002A87D02378002B84D04D4B1B78002BAE
:10B1B00000D07FE70121484B0720197090477CE7BA
:10B1C000012AB2D169464B820B82474B01960A7025
:10B1D0001A706846FFF732FF002807D13C4B1B6806
:10B1E000002BA8D0404A10789847002006B070BDC8
:10B1F000012369460B706B46218901965982694685
:10B2000063680B82384B1A70E3E76B46A28A5A8256
:10B21000228A1A82314B1A79002A1DD02278002AFC
:10B220001DD02F4A1278002A19D1694603930423AE
:10B2300002322C480A720021C370FFF7B1FD0028CA
:10B24000D4D10522284B1A702A786EE7022B00D041
:10B250001EE798E7032326E71A7B002ADED10322A4
:10B26000214B1A70B5E71A7B002A00D044E704226C
:10B270001D4B1A70ADE717490A7004E76278002A7F
:10B2800000D163E77278002A00D00CE7B278002A78
:10B2900000D008E7F278002A00D004E73279002ACB
:10B2A00000D000E77279002A00D0FCE6B279002ACB
:10B2B00000D14BE7F7E600230B4A2B701370F9E639
:10B2C0000223F0E60826002010260020A8260020F1
:10B2D000DC250020A92600208726002058260020F3
:10B2E0000326002098250020BC260020F8B5040085
:10B2F0000E000E20002C00D17BE0002A79D0002027
:10B300003C4908703C490B6006993C4B19603C492C
:10B310000B0023CA23C323CA23C323CA23C3072280
:10B3200000213848FCF774FF374B384A384D1A6013
:10B33000384A00219A6028003822FCF769FF2378F8
:10B3400022002B70A3781032AB70E378EB70637837
:10B350006B702B00103303CA03C32B00103A083361
:10B3600003CA03C32B000832183303CA03C3636A3A
:10B37000002B11D0284B294F6B62616A9F600A88AD
:10B380001A8088889880002806D000238A68D25CBA
:10B39000FA5401338342F9D1A36A002B14D0204B15
:10B3A000204FAB62A06A9F608188998002881A80D2
:10B3B0000023002905D08268D25CFA5401338B4205
:10B3C000F9D12C23E25CEA54236A002B06D0164BF9
:10B3D0002B62226A5188598012881A806368002B78
:10B3E00003D0124B6B6063686B6031002800FFF77D
:10B3F000D7FCF8BDA8260020DC250020042600206C
:10B400001026002008260020582600203426002080
:10B410009825002088260020D0250020E425002043
:10B42000B026002068260020AC26002054260020EC
:10B4300010B500240B4B82B0187001A80194FEF7E0
:10B44000D5FA082809D0002805D1019B002B05D08A
:10B450000122054B1A7002B010BD0194FFF7F2FDF6
:10B46000F9E7C046A8260020E025002030B5038873
:10B4700083B0112B1ED0192B07D0102B01D003B095
:10B4800030BD82882D4B1A80F9E78479002CF6D1E3
:10B490002B4B1D78022D4ED038D9032D23D0042DEF
:10B4A000EDD1284B1C70284B1B68002BE7D00020E7
:10B4B0009847E4E70024254B1C70204B82881B88AA
:10B4C0009A42DCD101251E4B01A81D700194FEF7A4
:10B4D0008DFA082824D0002827D1019B002B20D0EA
:10B4E0001B4B1D70CBE7174A1570042201A81A7078
:10B4F0000194FEF77BFA082812D0002815D1019B91
:10B50000002B0ED00122124B1A70B8E7012DB6D1D4
:10B51000022201A81A700194FEF768FA0828DAD10D
:10B520000194FFF78FFD0028A9D00A4B1B68002B60
:10B53000A5D09847A3E70322D8E7C046662000209D
:10B54000A8260020BC260020DC25002003260020A1
:10B55000E02500200426002030B5184B83B01B786E
:10B56000002B22D0164C2378002B1ED1154B1B78B4
:10B57000002B1DD101252570002401A80194FEF7A0
:10B5800035FA082807D000280AD1019B002B03D0E8
:10B590000D4B1D700AE00194FFF754FD002804D004
:10B5A0000A4B1B68002B00D09847002003B030BD29
:10B5B000FFF746FD0028DDD0F8E7C0461026002042
:10B5C00003260020A8260020E025002004260020D5
:10B5D000A0DF7047A2DF7047A3DF7047A6DF704788
:10B5E00063DF704710B50B88112B17D0502B05D097
:10B5F000102B00D010BD8B880383FBE70028F9D007
:10B60000CA88C3899A42F5D1CB8B0631012BF1D17F
:10B610000368002BEED0897E9847EBE701235B425D
:10B620000383E7E7F0B55F46564644464D46F0B41F
:10B63000070099B00E000E2400280FD000290DD06D
:10B6400010231022A94903A89B4600F00FFE3900E1
:10B6500003A81A31FFF7C4FF041E07D0200019B059
:10B660003CBC90469946A246AB46F0BD336801A962
:10B670003B6001235B423B83BB7E3A1D8B709C4B3E
:10B6800001200B80FFF7A4FF041EE7D10322002155
:10B690006846FCF7BDFD0F226B4692461B7811AD44
:10B6A00093430E3A134352461340102290464246AB
:10B6B00013436A4613705378524693430E3A13432A
:10B6C00052461340424613436A465370937806220B
:10B6D0009343043A13436A460021937028001C22C6
:10B6E000FCF796FD02222B786C601343424613430D
:10B6F0002B706B466B6107AB99464A46EC602C6138
:10B70000AC61BB7E002193707A4B02A813800322A8
:10B71000FCF77EFD6B4652461B7A002193430E3A9E
:10B72000134352461340424613436A461372537AF8
:10B73000524693430E3A1343524613404246134334
:10B740006A465372937A06229343043A1343DBB258
:10B75000063293435A4693430F3A93436A460CA8E2
:10B7600093721422FCF754FD4B460C9302AB0D93DD
:10B7700001226B461A8701225C879A871094BB1DB1
:10B78000B8880CAA2900FFF725FF041E00D065E742
:10B79000317938003B6898474A46574B43CB43C200
:10B7A000196828001160998891809B790021937114
:10B7B0001C22FCF72DFD02222B786C60134308221B
:10B7C00013436A46EC602C616C61AC612B70BB7EEC
:10B7D00000219372494B684613810322FCF718FD40
:10B7E0006B4652461B78002193430E3A1343524650
:10B7F0001340424613436A461370537852469343AC
:10B800000E3A134352461340424613436A4653705E
:10B81000937806229343043A1343DBB206329343F0
:10B820005A4693430F3A93436A460CA893701422E6
:10B83000FCF7EEFC02AB0C9301226B461A87012247
:10B840005C879A870D933B001094B8880E330CAA3E
:10B850002900FFF7BFFE041E00D0FFE66A46BB7E4C
:10B8600000219372264B684613810322FCF7D0FC1B
:10B870006B4652461B78002193430E3A13435246BF
:10B880001340424613436A4613705378524693431B
:10B890000E3A134352461340424613436A465370CE
:10B8A000937806229343043A1343DBB20632934360
:10B8B0005A4693430F3A93436A460CA89370142256
:10B8C000FCF7A6FC02AB0C936B466A460D93132360
:10B8D000138793874B4654873A0010931632F889A2
:10B8E0000CA9FFF779FE0400B8E6C046A8C5010020
:10B8F0002410000026100000B8C50100251000002B
:10B900002520000070B588B06B46041ED97125D083
:10B91000028B174B08209A4201D108B070BD0E2649
:10B92000012304ADCAB26E4412490020338000F0F6
:10B93000D9FB102200212800FCF76AFCE388AE60E6
:10B940002B800123AB706B460733EB60208B290003
:10B95000FFF744FE041E03D12000DEE70E20DCE7E3
:10B9600002000549002000F0BDFB2000D5E7C046DD
:10B97000FFFF0000CCC50100F4C50100F0B54E4644
:10B98000574645462D4BE0B49946032644002318FC
:10B99000DB004B441500DA6A0F001640022E06D079
:10B9A0009A6A596A521A013A45D4AA423FDB0026E4
:10B9B000002D34D000239A46431C5A002418D31873
:10B9C000E400DB004C44984601E0002D26D0A36A39
:10B9D000626A216A9B1A013B27D4626A8A1A9342DF
:10B9E00001DB636ACB1A2E009D4200DD1E004A4631
:10B9F0004244636A50683900C018320000F036FCD7
:10BA0000636A226AF3186362636AB244BF19AD1BAA
:10BA10009342DAD100236362002DD8D1564630001C
:10BA20001CBC90469946A246F0BD5B18D5E7002E97
:10BA3000F5D01500BBE71B6AD218B6E768200020D6
:10BA4000F0B544465F464D465646F0B4884683B04E
:10BA5000040017001D00914200D2E5E00800012615
:10BA6000390000F077FB01368742F9D9AA46B54282
:10BA700000D2B24601230D9A1A40019203D10C9BC9
:10BA8000002B00D08CE0A6686B1E012D00DCC1E00D
:10BA90009946002301259B4607E0134301225242A9
:10BAA0009446DBB2E144002B14D07D43404629008C
:10BAB00000F050FB5A464946B84252410123012941
:10BAC000EBDC00231343012252429446DBB2E144F3
:10BAD000002BEAD1554B994600239B4608E0E368CA
:10BAE000002B28DB2800390000F034FB051E22D093
:10BAF0004046290000F02EFB030042466B43D31A58
:10BB000098466368B34209DD4B4622681B5C935537
:10BB1000E36801360133E3606368A6609E42DED1CC
:10BB2000320021682069FFF729FFA368984233D0CB
:10BB300001235B42E360019B002B26D00C9D002D6E
:10BB400023D02026002705E0E368002B1DDB013D04
:10BB5000002D1AD0AA4518D2A16863680A0099423C
:10BB600007DA236801325E54E368A2600133E360C0
:10BB700063689A42E8D121682069FFF7FFFEA36855
:10BB800098423ED001235B42E36003B03CBC904648
:10BB90009946A246AB46F0BD5B460026A3609EE7F1
:10BBA000202399460D9B9B072DD40022A6680C9B51
:10BBB000934606E0E368002BE7DB0C9B002B00D1EB
:10BBC00062E70C9A013A0C929A4500D35CE76368ED
:10BBD000B34208DD4A4623689A55E36801360133CB
:10BBE000E3606368A6609E42E4D132002168206968
:10BBF000FFF7C4FEA3689842C4D15B460026A36049
:10BC0000D8E7A760A0E730239946002DCDD0103BA0
:10BC10009946CAE700224146B9425241D2B20125B3
:10BC2000002A00D034E755E701261FE720C60100AF
:10BC3000F0B55F464D4644465646F0B49FB00EAB55
:10BC4000099340230A9300230B930C9304339946E2
:10BC5000033B04900D90904600209B460B784D1CB2
:10BC6000002B36D0252B1CD12A0013780027022563
:10BC7000082114002B2B0BD02B2B0DD92D2B65D08D
:10BC8000302B2FD12F430132137814002B2BF3D1FB
:10BC90004B4601321F43F7E7232B23D10F430132D9
:10BCA000F2E70B9A0A998A4257DA09998B540C9B4E
:10BCB0000132581C0A9B0B920C90029329009A4265
:10BCC00000D18BE0002800DA97E00B784D1C002BA8
:10BCD000C8D1002800DC90E00B9A002A00D0C1E116
:10BCE00080188AE01A00303A0025092A0AD8AA00EA
:10BCF000551901346D00ED182378303D1A00303AA3
:10BD0000092AF4D900262E2B55D01A0049468A4319
:10BD1000682A1FD0642B00D189E022D9732B00D16F
:10BD2000E6E000D870E0752B00D02FE14346414695
:10BD30001B6809A81A1D0A6019680A220197009554
:10BD40003300FFF77DFE0C98611CBBE75B460132B8
:10BD50001F4399E723780134D7E78A423ED0290070
:10BD60007CE7582B00D114E1632B00D1F3E0252BA5
:10BD7000EAD10B9D0A992A008D4208DA099901320D
:10BD80004B550C9B0A99581C0B9202930C908A42BB
:10BD9000DAD1099B02930D9B029918000393FFF7D8
:10BDA000EDFD0B9B0293984200D0CFE000230C984E
:10BDB0000B93611C86E76378611C1A00303A0C0013
:10BDC000092AA2D8B200961901347600F618237811
:10BDD000303E1A00303A092AF4D996E7099B0293BB
:10BDE0000D9B029918000393FFF7C8FD0B9B02936C
:10BDF000984200D131E1012040421FB03CBC904646
:10BE00009946A246AB46F0BD702B9DD143464146B4
:10BE10001B6809A81A1D0A601968002301930833DA
:10BE200000931022FFF70CFE0C98611C4AE7434672
:10BE300041461B681A1D0A601B68DA17981802939E
:10BE4000012350409A4609280ADDA2461C000A2117
:10BE500000F080F901340928F9D8230054469A46A5
:10BE60000596564500D2A8E0002D06D0029B002B77
:10BE700002DB4B463B4200D0013DBB0700D5A2E0B0
:10BE80005B463B4200D0A1E0002D00D19EE0202285
:10BE900007962B009246059E11E05146099B995446
:10BEA0000C9B0132581C0A9B0B920C9003939A42F4
:10BEB0000ED0002800DA47E72B1E00D10CE1013D2F
:10BEC0009E4200D308E10B9A0A9B9A42E5DBF3D12C
:10BED000099B03930D9B039918000693FFF74EFDF2
:10BEE0000B9B0393984231D100230C980B93E0E70E
:10BEF000434641461B681A1D0A601D682B78002BBB
:10BF000000D121E70B9A0A998A420FDA09998B54DA
:10BF10000C9B0132581C0A9B0B920C9002939A4284
:10BF200008D001350028E9DA611CCBE68A4201D04D
:10BF30000135E3E7099B02930D9B029918000393D7
:10BF4000FFF71CFD0B9B0293984232D00120404228
:10BF50000C90611CB6E6434642461D680B992B1DAA
:10BF600013600A9B0A0099420BDA099B0132029383
:10BF700002982B6843540C9B0B92581C02930A9B0B
:10BF80000C909A4200D104E7611C9BE6782B00D00C
:10BF9000DAE6434641461B6809A81A1D0A6019687B
:10BFA0001022019700953300FFF74AFD0C98611CA1
:10BFB00088E600230C980B93B3E753460593002DB6
:10BFC00000D15AE752E7002E00D059E7029B002B20
:10BFD00066DB4B463B424DD103233B40022B31D124
:10BFE000002E2FD1002D75D0B2462B00059E10E0FB
:10BFF0003021099B99540C9B0132581C0A9B0B92CF
:10C000000C9003939A420CD0002800DA9CE62B1E79
:10C010005FD05D1E9E4214D20B9A0A9B9A42E7DBC8
:10C02000F5D1099B03930D9B039918000593FFF726
:10C03000A5FC0B9B0393984288D100230C980B938B
:10C04000E2E75646029909A80197009533000A22B3
:10C05000FFF7F6FC0C98611C34E600230C980B9358
:10C0600029002FE60EA90498FFF788FC0C980B9A7C
:10C070008018C2E60B9A0A9B9A4217DA099B03932F
:10C080002B2303998B540C9B0132581C0A9B0B9257
:10C090000C9003939A420BD000289DDA611C11E6A4
:10C0A0005B4202930B9A0A9B9A4217DB9A4293D106
:10C0B000099B03930D9B039918000693FFF75EFC01
:10C0C0000B9B0393984200D040E700230C980B93FE
:10C0D000E2E756460025B5E7079E77E7099B0393FD
:10C0E0002D23CEE70EB400B582B003AB02CB01AA7C
:10C0F0000193FFF79DFD02B008BC03B01847C0468E
:10C1000003210A4802680A430260094802680A4398
:10C1100002600849084A094B9B1A03DD043BC858D2
:10C12000D050FBDC06488047064800472405004005
:10C130005405004038C6010000200020E8200020FF
:10C140004987010021810100FEE7FEE7FEE7FEE7E7
:10C15000FEE7FEE7002243088B4274D303098B42BB
:10C160005FD3030A8B4244D3030B8B4228D3030CC7
:10C170008B420DD3FF22090212BA030C8B4202D369
:10C180001212090265D0030B8B4219D300E0090A91
:10C19000C30B8B4201D3CB03C01A5241830B8B429A
:10C1A00001D38B03C01A5241430B8B4201D34B0383
:10C1B000C01A5241030B8B4201D30B03C01A5241E8
:10C1C000C30A8B4201D3CB02C01A5241830A8B426D
:10C1D00001D38B02C01A5241430A8B4201D34B0256
:10C1E000C01A5241030A8B4201D30B02C01A5241BA
:10C1F000CDD2C3098B4201D3CB01C01A524183096E
:10C200008B4201D38B01C01A524143098B4201D3A7
:10C210004B01C01A524103098B4201D30B01C01AD2
:10C220005241C3088B4201D3CB00C01A524183084C
:10C230008B4201D38B00C01A524143088B4201D379
:10C240004B00C01A5241411A00D2014652411046D9
:10C250007047FFE701B5002000F006F802BDC046B8
:10C260000029F7D076E770477047C046002310B525
:10C270009A4203D0CC5CC4540133F9E710BD0023CB
:10C28000C25C0133002AFBD1581E7047F8B5C04686
:10C29000F8BC08BC9E467047F8B5C046F8BC08BC60
:10C2A0009E467047002000200D0A5B636F6E6E5F34
:10C2B000706172616D735F6572726F725F68616EDB
:10C2C000646C65725D6572726F723A25780D0A0052
:10C2D0000D0A5B6F6E5F636F6E6E5F706172616D92
:10C2E000735F6576745D424C455F434F4E4E5F50C1
:10C2F0004152414D535F4556545F4641494C454478
:10C300000D0A00000D0A5B736C6565705F6D6F64EC
:10C31000655F656E7465725D746F20706F776572AE
:10C32000206F66662073797374656D0D0A000000D6
:10C330000D0A5B6273705F627574746F6E5F697310
:10C340005F707265737365645D6572726F723A25B2
:10C35000780D0A000D0A5B626C655F424C535F6F9B
:10C360006E5F627574746F6E5F616374696F6E5D2A
:10C370006572726F723A25780D0A00000D0A5B6FC4
:10C380006E5F626C655F6576745D424C455F4741E8
:10C39000505F4556545F434F4E4E45435445442CE1
:10C3A000206170705F627574746F6E5F656E61623C
:10C3B0006C6528296572726F723A25780D0A000043
:10C3C0000D0A5B6F6E5F626C655F6576745D424CF3
:10C3D000455F4741505F4556545F4449434F4E4E79
:10C3E00045435445442C206170705F627574746FCE
:10C3F0006E5F64697361626C6528296572726F7221
:10C400003A25780D0A0000000D0A5B73645F626CC8
:10C41000655F656E61626C655D6572726F723A250B
:10C42000780D0A0069466F6F7462616C6C5F4272CE
:10C430006163656C657400000D0A5B626C655F6129
:10C4400064766572746973696E675F696E69745D3D
:10C450006572726F723A25780D0A00000D0A5B63EF
:10C460006F6E6E5F706172616D735F696E69745D2E
:10C470006572726F723A25780D0A00000D0A5B69C9
:10C480006E69745D4F4B0D0A000000000D0A5B6C75
:10C490006F6F705D25640D0A000000000D0A5B736C
:10C4A000645F6170705F6576745F776169745D6504
:10C4B00072726F723A25780D0A000000368A010008
:10C4C000528A0100528A0100488901008E890100C8
:10C4D000028B0100448B0100DE8A01001E890100ED
:10C4E000DC8801001E890100DC8801000A89010046
:10C4F000E2890100E2890100E2890100E28901008C
:10C50000E2890100C88A0100C4890100AA8A0100E9
:10C510008C8A01000A8901000A890100848D0100CA
:10C52000A68D0100A68D0100328E0100688E0100EB
:10C53000F28E0100368F0100A28E0100AA8C01004C
:10C540007C8C0100AA8C01007C8C0100F28D010022
:10C55000D48C0100D48C0100D48C0100D48C010057
:10C56000D48C0100288D0100468D01000E8E010043
:10C57000CE8E01006A8D01006A8D010068230020C3
:10C580001000000011000000302300201000030004
:10C590000588010011000300058801008C2300209C
:10C5A000042500206C250020EFCDAB8967452301D1
:10C5B000FEAFDABC000000004C45442043686172C5
:10C5C0006163746572697374696300000D0A5B626C
:10C5D0006C655F424C535F6F6E5F627574746F6E13
:10C5E0005F616374696F6E5D73746174653A257819
:10C5F0000D0A00000D0A5B73645F626C655F676122
:10C600007474735F6876785D6572726F723A2578BC
:10C610000D0A00005465726D696E616C00000000C7
:10C620003031323334353637383941424344454668
:08C63000F0BAFF7F01000000D9
:10C6380000000000000000000000000000000000F2
:10C6480000000000000000000000000000000000E2
:10C6580000000000000000000000000000000000D2
:10C6680000000000000000000000000000000000C2
:10C6780000000000000000000000000000000000B2
:10C6880000000000000000000000000000000000A2
:10C698000A180100FFFFFFFF534547474552205244
:10C6A80054540000000000000200000002000000D6
:10C6B80014C60100C026002000040000000000008D
:10C6C8000000000000000000000000000000000062
:10C6D8000000000000000000000000000000000052
:10C6E80014C60100C02A002010000000000000004D
:10C6F8000000000000000000000000000000000032
:10C708000000000000000000000000000000000021
:08C71800E9800100C18001006D
:040000031000C10127
:00000001FF
